:020000040800F2
:1000000000000120211800085115000853150008B0
:100010005515000857150008591500080000000084
:10002000000000000000000000000000E1EE0208F7
:100030005B1500080000000081EF0208C5EF020810
:10004000691800086918000869180008691800088C
:1000500069180008691800085D150008691800088B
:10006000691800086918000869180008691800086C
:100070006918000869180008691500087915000852
:10008000691800086918000869180008691800084C
:10009000891500086918000869180008691800081F
:1000A00069180008991500086918000869180008FF
:1000B000691800086918000869180008691800081C
:1000C000691800086918000869180008691800080C
:1000D00069180008A91500086918000869180008BF
:1000E000BD1500086918000869180008691800089B
:1000F00069180008691800086918000869180008DC
:1001000069180008C915000869180008691800086E
:1001100069180008691800086918000869180008BB
:1001200069180008691800086918000869180008AB
:1001300000000000000000000000000000000000BF
:1001400000000000000000000000000000000000AF
:10015000000000000000000000000000000000009F
:10016000000000000000000000000000000000008F
:10017000000000000000000000000000000000007F
:10018000000000000000000000000000000000006F
:10019000000000000000000000000000000000005F
:1001A000000000000000000000000000000000004F
:1001B000000000000000000000000000000000003F
:1001C000000000000000000000000000000000002F
:1001D000000000000000000000000000000000001F
:0401E0005FF8E0F1F3
:1001F00081F0004102E000BF83F0004330B54FEAD8
:1002000041044FEA430594EA050F08BF90EA020F44
:100210001FBF54EA000C55EA020C7FEA645C7FEAD7
:10022000655C00F0E2804FEA5454D4EB5555B8BFFA
:100230006D420CDD2C4480EA020281EA030382EA6B
:10024000000083EA010180EA020281EA0303362DFD
:1002500088BF30BD11F0004F4FEA01314FF4801CD0
:100260004CEA113102D0404261EB410113F0004FE2
:100270004FEA03334CEA133302D0524263EB430399
:1002800094EA050F00F0A780A4F10104D5F1200E37
:100290000DDB02FA0EFC22FA05F2801841F1000192
:1002A00003FA0EF2801843FA05F359410EE0A5F166
:1002B00020050EF1200E012A03FA0EFC28BF4CF097
:1002C000020C43FA05F3C01851EBE37101F000454D
:1002D00007D54FF0000EDCF1000C7EEB00006EEB5A
:1002E0000101B1F5801F1BD3B1F5001F0CD34908E4
:1002F0005FEA30004FEA3C0C04F101044FEA44523B
:1003000012F5800F80F09A80BCF1004F08BF5FEAC1
:10031000500C50F1000041EB045141EA050130BDA1
:100320005FEA4C0C404141EB0101013C28BFB1F5B3
:10033000801FE9D291F0000F04BF01460020B1FAFE
:1003400081F308BF2033A3F10B03B3F120020CDAD1
:100350000C3208DD02F1140CC2F10C0201FA0CF0AF
:1003600021FA02F10CE002F11402D8BFC2F1200C14
:1003700001FA02F120FA0CFCDCBF41EA0C019040CA
:10038000E41AA2BF01EB0451294330BD6FEA040413
:100390001F3C1CDA0C340EDC04F11404C4F12002FE
:1003A00020FA04F001FA02F340EA030021FA04F310
:1003B00045EA030130BDC4F10C04C4F1200220FA67
:1003C00002F001FA04F340EA0300294630BD21FAA5
:1003D00004F0294630BD94F0000F83F4801306BF6B
:1003E00081F480110134013D4EE77FEA645C18BF5F
:1003F0007FEA655C29D094EA050F08BF90EA020FF6
:1004000005D054EA000C04BF1946104630BD91EAED
:10041000030F1EBF0021002030BD5FEA545C05D1F0
:100420004000494128BF41F0004130BD14F580042F
:100430003CBF01F5801130BD01F0004545F0FE41A3
:1004400041F470014FF0000030BD7FEA645C1ABFD8
:10045000194610467FEA655C1CBF0B46024650EA0F
:10046000013406BF52EA033591EA030F41F400213B
:1004700030BD00BF90F0000F04BF0021704730B5C1
:100480004FF4806404F132044FF000054FF0000196
:1004900050E700BF90F0000F04BF0021704730B557
:1004A0004FF4806404F1320410F0004548BF40422C
:1004B0004FF000013EE700BF42004FEAE2014FEA81
:1004C00031014FEA02701FBF12F07F4393F07F4F5C
:1004D00081F06051704732F07F4208BF704793F05F
:1004E0007F4F04BF41F40021704730B54FF4607472
:1004F00001F0004521F000411CE700BF50EA010275
:1005000008BF704730B54FF000050AE050EA01021D
:1005100008BF704730B511F0004502D5404261EB8D
:1005200041014FF4806404F132045FEA915C3FF4CE
:10053000D8AE4FF003025FEADC0C18BF03325FEA6B
:10054000DC0C18BF033202EBDC02C2F1200300FA1C
:1005500003FC20FA02F001FA03FE40EA0E0021FA41
:1005600002F11444BDE600BF4FEA410212F5001249
:1005700015D211D56FF47873B3EB625212D94FEAEA
:10058000C12343F0004343EA505311F0004F23FAD4
:1005900002F018BF404270474FF00000704750EA29
:1005A000013005D111F0004008BF6FF000407047E6
:1005B0004FF00000704700BF53B94AB9002908BF87
:1005C00000281CBF4FF0FF314FF0FF3000F00CB897
:1005D000ADF1080C6DE904CE2FF096FFDDF804E0D4
:1005E000DDE9022304B07047704700BF80EA010CC8
:1005F0001CF0030F37D110F0030C20F0030021F0A2
:10060000030150F8042B08BF51F8043B0ED08CF0C6
:10061000030C6FF07F434FEACC0C23FA0CFC51F82B
:10062000043B42EA0C0243EA0C0300BFA2F1013C86
:100630009A4201BF2CEA020C1CF0803F50F8042BB8
:1006400051F8043BF2D04FEA02604FEA122201282F
:1006500028BFB0EB036F08BF1B0AF4D003F0FF0301
:10066000000EC01A704710F0030F0AD010F8012BCB
:1006700011F8013B012A28BF9A42F4D0A2EB0300F3
:1006800070474DF8045D50F8042B01F0030521F08C
:10069000030151F8043B022D26D04DD822F07F45AE
:1006A000B5EB132FA2F1013C2CEA020C0DD11CF08A
:1006B000803C08BF51F8043B0AD185EA0205B5EB3E
:1006C000036F0CD150F8042BE8E74FEA13235BE0EB
:1006D0003CF07F4C54D10B784FEA126554E04FEA5E
:1006E000126503F0FF034FE04FEA0245A2F1013C1F
:1006F0004FEA15452CEA020CB5EB134F18D11CF04C
:10070000803C08BF51F8043B07D185EA0205B5EBF0
:10071000034F09D150F8042BE6E75FEA0C4C2FD1C8
:100720000B884FEA12452FE04FEA03434FEA124588
:100730004FEA134328E000BF02F0FF05B5EB136F4B
:10074000A2F1013C2CEA020C0DD11CF0803C08BF48
:1007500051F8043B0AD185EA0205B5EB032F0AD113
:1007600050F8042BE8E74FEA13630DE012F0FF0F97
:1007700006D051F8043B4FEA122523F07F4303E0F3
:100780004FF0000020BC704705F0FF0203F0FF00AF
:10079000012828BF904204BF2D0A1B0AF4D0A2EB07
:1007A000000020BC704700BF844641EA000313F0FC
:1007B000030349D1403A23D30B6803604B6843607D
:1007C0008B688360CB68C3600B6903614B694361CD
:1007D0008B698361CB69C3610B6A03624B6A4362B5
:1007E0008B6A8362CB6AC3620B6B03634B6B43639D
:1007F0008B6B8363CB6BC36340304031403ADBD2B9
:1008000030320BD30B6803604B6843608B688360A6
:10081000CB68C36010301031103AF3D20C3205D3DC
:1008200051F8043B40F8043B043AF9D2043208D0B2
:10083000D2071CBF11F8013B00F8013B01D30B8824
:1008400003806046704700BF082A13D38B07B1D0DE
:1008500010F00303AED0C3F10403D21ADB071CBFB0
:1008600011F8013B00F8013BA4D331F8023B20F81A
:10087000023B9FE7043AD9D3013A11F8013B00F853
:10088000013BF9D20B7803704B7843708B788370FF
:100890006046704770B54FF0FF0C4CF4E06C1CEAFA
:1008A00011541DBF1CEA135594EA0C0F95EA0C0F66
:1008B00000F0DEF82C4481EA030621EA4C5123EAD9
:1008C0004C5350EA013518BF52EA033541F4801108
:1008D00043F4801338D0A0FB02CE4FF00005E1FBBB
:1008E00002E506F00042E0FB03E54FF00006E1FB05
:1008F00003569CF0000F18BF4EF0010EA4F1FF0448
:10090000B6F5007F64F5407404D25FEA4E0E6D4187
:1009100046EB060642EAC62141EA55514FEAC52098
:1009200040EA5E504FEACE2EB4F1FD0C88BFBCF514
:10093000E06F1ED8BEF1004F08BF5FEA500E50F1C5
:10094000000041EB045170BD06F0004646EA01018B
:1009500040EA020081EA0301B4EB5C04C2BFD4EBBD
:100960000C0541EA045170BD41F480114FF0000EB6
:10097000013C00F3AB8014F1360FDEBF002001F024
:10098000004170BDC4F10004203C35DA0C341BDC9E
:1009900004F11404C4F1200500FA05F320FA04F070
:1009A00001FA05F240EA020001F0004221F00041A4
:1009B00010EBD37021FA04F642EB06015EEA430E17
:1009C00008BF20EAD37070BDC4F10C04C4F1200547
:1009D00000FA04F320FA05F001FA04F240EA0200FA
:1009E00001F0004110EBD37041F100015EEA430ECB
:1009F00008BF20EAD37070BDC4F1200500FA05F2EB
:100A00004EEA020E20FA04F301FA05F243EA020369
:100A100021FA04F001F0004121FA04F220EA020078
:100A200000EBD3705EEA430E08BF20EAD37070BDBE
:100A300094F0000F0FD101F00046400041EB01019E
:100A400011F4801F08BF013CF7D041EA060195F080
:100A5000000F18BF704703F00046520043EB03033A
:100A600013F4801F08BF013DF7D043EA0603704727
:100A700094EA0C0F0CEA135518BF95EA0C0F0CD032
:100A800050EA410618BF52EA4306D1D181EA030178
:100A900001F000414FF0000070BD50EA410606BF72
:100AA0001046194652EA430619D094EA0C0F02D1B7
:100AB00050EA013613D195EA0C0F05D152EA0336FC
:100AC0001CBF104619460AD181EA030101F000411A
:100AD00041F0FE4141F470014FF0000070BD41F063
:100AE000FE4141F4780170BD70B54FF0FF0C4CF43D
:100AF000E06C1CEA11541DBF1CEA135594EA0C0F5C
:100B000095EA0C0F00F0A7F8A4EB050481EA030EA8
:100B100052EA03354FEA013100F088804FEA03338F
:100B20004FF0805545EA131343EA12634FEA02225D
:100B300045EA111545EA10654FEA00260EF000411E
:100B40009D4208BF964244F1FD0404F5407402D270
:100B50005B084FEA3202B61A65EB03055B084FEA01
:100B600032024FF480104FF4002CB6EB020E75EBFE
:100B7000030E22BFB61A754640EA0C005B084FEA26
:100B80003202B6EB020E75EB030E22BFB61A7546A3
:100B900040EA5C005B084FEA3202B6EB020E75EBEE
:100BA000030E22BFB61A754640EA9C005B084FEA66
:100BB0003202B6EB020E75EB030E22BFB61A754673
:100BC00040EADC0055EA060E18D04FEA051545EA62
:100BD00016754FEA06164FEAC30343EA52734FEA0B
:100BE000C2025FEA1C1CC0D111F4801F0BD141EA84
:100BF00000014FF000004FF0004CB6E711F4801FE9
:100C000004BF01430020B4F1FD0C88BFBCF5E06FC8
:100C10003FF6AFAEB5EB030C04BFB6EB020C5FEAD8
:100C2000500C50F1000041EB045170BD0EF0004E2D
:100C30004EEA113114EB5C04C2BFD4EB0C0541EA5F
:100C4000045170BD41F480114FF0000E013C90E65C
:100C500045EA060E8DE60CEA135594EA0C0F08BF20
:100C600095EA0C0F3FF43BAF94EA0C0F0AD150EA1F
:100C700001347FF434AF95EA0C0F7FF425AF1046B2
:100C800019462CE795EA0C0F06D152EA03353FF4DA
:100C9000FDAE1046194622E750EA410618BF52EA57
:100CA00043067FF4C5AE50EA41047FF40DAF52EA2B
:100CB00043057FF4EBAE12E74FF0FF3C06E000BFC8
:100CC0004FF0010C02E000BF4FF0010C4DF804CDD5
:100CD0004FEA410C7FEA6C5C4FEA430C18BF7FEA95
:100CE0006C5C1BD001B050EA410C0CBF52EA430CC3
:100CF00091EA030F02BF90EA020F0020704710F143
:100D0000000F91EA030F58BF994208BF90422CBFD1
:100D1000D8176FEAE37040F0010070474FEA410CCA
:100D20007FEA6C5C02D150EA013C07D14FEA430CE8
:100D30007FEA6C5CD6D152EA033CD3D05DF8040B59
:100D4000704700BF8446104662468C46194663468B
:100D500000E000BF01B5FFF7B7FF002848BF10F162
:100D6000000F01BD4DF808EDFFF7F4FF0CBF0120A7
:100D700000205DF808FB00BF4DF808EDFFF7EAFF23
:100D800034BF012000205DF808FB00BF4DF808EDDE
:100D9000FFF7E0FF94BF012000205DF808FB00BFD3
:100DA0004DF808EDFFF7CEFF94BF012000205DF85D
:100DB00008FB00BF4DF808EDFFF7C4FF34BF01206A
:100DC00000205DF808FB00BF4FEA410C7FEA6C5C35
:100DD00002D150EA013C0AD14FEA430C7FEA6C5C35
:100DE00002D152EA033C02D14FF0000070474FF0AD
:100DF000010070470348044B834202D0034B03B108
:100E0000184770479C0900209C0900200000000042
:100E10000548064B1B1AD90F01EBA301491002D05C
:100E2000034B03B1184770479C0900209C09002020
:100E30000000000010B5064C237843B9FFF7DAFF35
:100E4000044B13B10448AFF300800123237010BD9D
:100E50009C09002000000000908A030808B5054B9B
:100E60001BB105490548AFF30080BDE80840FFF716
:100E7000CFBF00BF00000000A0090020908A030837
:100E800000B583B00E4B5A6942F001025A615B69AA
:100E900003F001030193019B002205210E2000F0C5
:100EA00063FD0E2000F070FD002205210F2000F0F0
:100EB0005BFD0F2000F068FD03B05DF804FB00BF90
:100EC0000010024008B52EF06DFD2EF049FB0B4BD3
:100ED00018602FF059F808F0C5FE06F0A5F806F0E6
:100EE000B9F906F049F9064B18682EF0B3FA20F06C
:100EF000E1FA052101482EF041FCF8E7BC09002089
:100F0000681C0020034B0360034B0B6080231360BD
:100F1000704700BFC00B0020C009002010B58EB084
:100F2000134C0DF11C0CA646BEE80F00ACE80F00F8
:100F30009EE807008CE80700002107A82DF027FF96
:100F40000C4B1860EE4604F11C0CBCE80F00AEE838
:100F50000F009CE807008EE80700002168462DF08E
:100F600016FF054B18602EF0A7FC0EB010BD00BF99
:100F7000A88A0308C02C0020681C002008B502487D
:100F80002FF088F908BD00BFD402002008B52EF06C
:100F9000E7FA054B1860FFF7F1FF2FF0DBF80521AA
:100FA00001482EF0EBFBF8E7B80900202DE9F04FDF
:100FB00089B0002404940594069407945D4B9A69C3
:100FC00042F010029A619A6902F010020092009AAF
:100FD0009A6942F004029A619A6902F0040201924D
:100FE000019A9A6942F008029A619A6902F008022D
:100FF0000292029A9A6942F020029A619B6903F078
:1010000020030393039BDFF83081224614214046DE
:1010100001F0D7F8494E22464FF49151304601F085
:10102000D0F8474F2246C021384601F0CAF8DFF811
:1010300014A101224021504601F0C3F84FF400539F
:101040000493DFF80491CDF81490069404A938466F
:1010500000F094FF01250495CDF81490069404A99E
:10106000404600F08BFF14230493059506944FF03F
:101070000209CDF81C9004A9404600F07FFF082328
:1010800004930594069404A9404600F077FF4FF4BA
:1010900090530493059506954FF00308CDF81C80F6
:1010A00004A9304600F06AFF4FF0400BCDF810B0B5
:1010B00005950694CDF81C8004A9384600F05EFF23
:1010C0008023049305950695CDF81C8004A9384625
:1010D00000F054FFCDF810B005950694CDF81C90A3
:1010E00004A9504600F04AFF202304930595069476
:1010F000CDF81C9004A9304600F040FF4FF48073F7
:1011000004930594069504A9304600F037FF224663
:101110000521062000F028FC062000F035FC2246C0
:101120000521282000F020FC282000F02DFC09B02B
:10113000BDE8F08F0010024000080140000C0140A3
:1011400000100140001401400000311010B50446A9
:101150000268074B9A4204D02268054B9A4203D09A
:1011600010BD00F095FBF7E701201EF02FF8F7E720
:10117000002C014072B6FEE700B597B0282200218E
:101180000CA82FF011FD00230793089309930A93ED
:101190000B93019302930393049305930693012207
:1011A0000C924FF480330D931092022213921493F9
:1011B0004FF4E01315930CA802F060F8C0B90F23A8
:1011C000079302210891002309934FF480620A9249
:1011D0000B9307A802F084FA60B91023019300234F
:1011E000069301A802F076FB30B917B05DF804FB56
:1011F000FFF7C0FFFFF7BEFFFFF7BCFF08B500F029
:1012000035FBFFF7B9FFFFF7D1FEFFF739FE00F01E
:1012100083F800F041FA00F021F805F065FE00F0D7
:101220009DF82EF0A3FE0022084909482CF0D2FEBA
:10123000014608482FF0B4FB07482EF0EFFF2EF0D0
:10124000C3FFFFF76BFE2DF09DFDFEE7743300201A
:1012500044310020248B0308288B0308064B074ADF
:101260001A6000225A609A60DA601A614FF4804274
:101270005A6102229A617047C42C0020008001400C
:1012800030B589B000230493059306930793026851
:101290001E4B9A4201D009B030BD03F510435A6984
:1012A00042F480625A615A6902F480620192019AA2
:1012B0009A6942F010029A619A6902F01002029251
:1012C000029A9A6942F020029A619B6903F0200316
:1012D0000393039B4FF4F8530493022505950324CD
:1012E000079404A90A4800F049FE042304930595D5
:1012F000079404A9074800F041FE0022052131208F
:1013000000F032FB312000F03FFBC4E700800140D9
:10131000001001400014014008B50E480E4B036058
:101320004FF48273436000238360C36003614361B1
:101330004FF4007282612822C261036243628362B9
:101340000A23C36203F0F0FA00B908BDFFF712FFE9
:10135000FBE700BFA02D00200030014008B50F487A
:101360000F4B03604FF48273436000238360C360BC
:1013700002220261012242614FF40072826138222E
:10138000C2610362436283620A23C36203F0CCFA40
:1013900000B908BDFFF7EEFEFBE700BF482D0020B7
:1013A0000038004010B588B00023049305930693DD
:1013B00007930368274A934204D0274A93421FD0D9
:1013C00008B010BD254B9A6942F480529A619A691F
:1013D00002F480520092009A9A6942F004029A61E3
:1013E0009B6903F004030193019BA0230493022350
:1013F00005930323079304A9194800F0BFFDDFE715
:10140000164BDA6942F48042DA61DA6902F480420A
:101410000292029A9A6942F008029A619B6903F06B
:1014200008030393039B4FF4204304930223059383
:10143000032307930B4C04A9204600F09FFD4FF4B3
:101440008043049300230593069304A9204600F0EB
:1014500095FDB5E700300140003800400010024023
:1014600000080140000C014000B583B0114B9A699F
:1014700042F001029A619A6902F001020092009A18
:10148000DA6942F08052DA61DB6903F0805301933C
:10149000019B00220F216FF0010000F065FA064A5F
:1014A000536823F0E06343F00073536003B05DF8CA
:1014B00004FB00BF001002400000014030B589B0BD
:1014C00004461E4B9A6942F400629A619B6903F4D8
:1014D00000630193019B02A903A802F0DDF902F069
:1014E000CBF9174AA2FB00239B0C013B1548164A77
:1014F000026040F2E732C260436000230361836010
:10150000836103F093FC054610B1284609B030BD55
:101510000C4803F041FB05460028F6D1192000F0E5
:1015200033FA0F2C01D90125EFE7002221461920BB
:1015300000F01AFA054B1C60E7E700BF00100240FC
:1015400083DE1B43F82D0020002C01400800002002
:10155000FEE7FEE7FEE7FEE7FEE7704708B501207D
:1015600000F036FE08BD000008B5024800F090FB10
:1015700008BD00BF442E002008B5024800F088FBDB
:1015800008BD00BF882E002008B5024801F022FCEB
:1015900008BD00BF8082002008B5024803F03CFB74
:1015A00008BD00BFF82D002008B5034803F080FFF8
:1015B0002EF098FD08BD00BFCC2E002008B54FF4DA
:1015C000005000F005FE08BD08B5024803F050F8D1
:1015D00008BD00BFC42C00200120704708B52FF0C3
:1015E00087FB162303604FF0FF3008BD08B54FF0AE
:1015F000FF31FFF7F3FFFEE770B50C4616460025F6
:1016000006E0AFF30080214601F8010B01350C46DE
:10161000B542F6DB304670BD70B50C461646002567
:1016200004E014F8010B00F0EBF80135B542F8DBEB
:10163000304670BD4FF0FF3070474FF400534B60A1
:1016400000207047012070470020704710B5034606
:101650000C4A0D490D48006840B10C48006803442D
:10166000521A934206D8094A136010BD0748084C25
:101670000460F2E72FF03CFB0C2303604FF0FF30D7
:10168000F3E700BF0000012000100000402E002002
:1016900040BA00207047000000B583B01748184BCF
:1016A00003604FF4E133436000238360C360036150
:1016B0000C2242618361C36103F0E0FC30B94FF456
:1016C000E05210490D4804F0E3F809E0FFF752FD3D
:1016D000F5E7002201921A6801925B680193019B71
:1016E000064B1B681A6812F0100FF2D1DA6842F04C
:1016F0001002DA6003B05DF804FB00BFCC2E0020BE
:10170000003801400C9B002070B586B00023029386
:101710000393049305930268334B9A4201D006B0B9
:1017200070BD044603F558439A6942F480429A61B9
:101730009A6902F480420092009A9A6942F0040287
:101740009A619B6903F004030193019B4FF40073BA
:1017500002930223039303230593244E02A93046E8
:1017600000F00CFC4FF48063029300250395049570
:1017700002A9304600F002FC1D481E4B0360456084
:1017800085608023C3600561456185614FF48053A6
:10179000C36100F01DF900BB154BE3635C621648A2
:1017A000164B036010234360002383608022C260D5
:1017B0000361436183614FF48053C36100F008F912
:1017C00070B90D4BA3635C6200220521252000F057
:1017D000CBF8252000F0D8F8A1E7FFF7CBFCDBE73A
:1017E000FFF7C8FCEDE700BF0038014000080140EA
:1017F000882E002058000240442E00204400024061
:1018000000B583B001904FF6FF73012201A9034890
:1018100003F064FC019803B05DF804FBCC2E0020BB
:101820000C480D490D4A002302E0D458C45004333B
:10183000C4188C42F9D30A4A0A4C002301E0136011
:101840000432A242FBD3FFF725FF2FF057FAFFF730
:10185000D5FC7047000000209C09002018A5060850
:101860009C0900203CBA0020FEE7000008B5074AAA
:10187000136843F010031360032000F063F80F2097
:10188000FFF71CFEFFF7F0FD002008BD002002401E
:10189000034A1168034B1B780B441360704700BF69
:1018A000142F002004000020014B1868704700BF6F
:1018B000142F002038B50446FFF7F6FF0546B4F1B3
:1018C000FF3F02D0044B1B781C44FFF7EDFF401B89
:1018D000A042FAD338BD00BF04000020002808DB76
:1018E0000901C9B200F1604000F5614080F80013C1
:1018F000704700F00F000901C9B2014B195470473D
:1019000014ED00E000B500F00700C0F1070CBCF1D9
:10191000040F28BF4FF0040C031D062B0FD9C31E64
:101920004FF0FF3E0EFA0CF021EA000199400EFA4A
:1019300003FE22EA0E0241EA02005DF804FB0023E6
:10194000EEE70000074AD36823F4E0631B041B0C96
:10195000000200F4E060034343F0BF6343F400334C
:10196000D360704700ED00E010B50446054BD86821
:10197000C0F30220FFF7C6FF01462046FFF7AEFF87
:1019800010BD00BF00ED00E0002807DB00F01F02E3
:10199000400901239340024A42F82030704700BFBB
:1019A00000E100E030B40124056CAC40C56B6C6014
:1019B000046863604368102B05D00368996003686E
:1019C000DA6030BC704703689A600368D960F8E752
:1019D00000283AD010B4024600681D4B984229D81E
:1019E0001C4B03441C49A1FB03131B099B001364FC
:1019F0001A4BD363022382F82130016821F47F510E
:101A000021F03001536894682343D4682343146958
:101A100023435469234394692343D46923430B43E9
:101A2000036000209063012382F8213082F82000B7
:101A300010BC70470A4B03440749A1FB03131B0961
:101A40009B001364074BD363D4E70120704700BFAA
:101A500007040240F8FFFDBFCDCCCCCC0000024013
:101A6000F8FBFDBF0004024038B5044690F82000A2
:101A7000012832D0012084F8200094F82100C0B25F
:101A8000012804D0002384F82030022038BD022031
:101A900084F821000020A0632568286820F0010058
:101AA00028602046FFF77EFFE36A5BB12268136877
:101AB00043F00E0313602268136843F001031360C0
:101AC0000020E3E72268136823F004031360226810
:101AD000136843F00A031360EDE70220D6E70346DC
:101AE00090F82120D2B2022A06D00422826300227A
:101AF00080F820200120704701680A6822F00E0259
:101B00000A6001680A6822F001020A60026CC06B78
:101B1000012101FA02F2426083F82110002083F8CB
:101B20002000704708B590F82130DBB2022B03D0BB
:101B300004238363012008BD0268136823F00E03A9
:101B400013600268136823F00103136003684C4AB2
:101B500093424ED9783A934224D01432934230D0F3
:101B6000143293422FD0143293422FD01432934226
:101B70002FD0143293422FD0143293422FD002F53B
:101B8000627293422ED0143293422DD0143293427B
:101B90002CD01432934202D04FF4803203E04FF441
:101BA000805200E00122374B5A60012380F8213037
:101BB000002380F82030436B002B5ED09847002034
:101BC000B9E71022EFE74FF48072ECE74FF4805250
:101BD000E9E74FF48032E6E74FF48012E3E74FF095
:101BE0008072E0E70122DEE71022DCE74FF480722A
:101BF000D9E7254A934224D01432934225D0143297
:101C0000934224D01432934224D01432934224D0ED
:101C10001432934224D01432934224D002F56272DB
:101C2000934223D01432934222D01432934221D0D3
:101C30001432934202D04FF4803203E04FF48052CA
:101C400000E00122114B5A60AFE71022FAE74FF48F
:101C50008072F7E74FF48052F4E74FF48032F1E7F7
:101C60004FF48012EEE74FF08072EBE70122E9E7D4
:101C70001022E7E74FF48072E4E700205BE700BF43
:101C800080000240000402400800024000000240C0
:101C900038B5C36B1A6804682568016C04238B404F
:101CA000134200F09B8015F0040F00F0978023682A
:101CB00013F0200F03D1236823F00403236003688B
:101CC0009A4A934246D9783A934224D014329342A6
:101CD00028D01432934227D01432934227D01432A2
:101CE000934227D01432934227D01432934227D004
:101CF00002F56272934226D01432934225D01432F8
:101D0000934224D01432934202D04FF4802203E055
:101D10004FF4804200E00422854B5A60C36A03B14D
:101D2000984738BD4022F7E74FF48062F4E74FF45C
:101D30008042F1E74FF48022EEE74FF48002EBE7B8
:101D40004FF08062E8E70422E6E74022E4E74FF440
:101D50008062E1E7774A934224D01432934225D03F
:101D60001432934224D01432934224D0143293423A
:101D700024D01432934224D01432934224D002F55A
:101D80006272934223D01432934222D0143293428F
:101D900021D01432934202D04FF4802203E04FF45A
:101DA000804200E00422644B5A60B7E74022FAE721
:101DB0004FF48062F7E74FF48042F4E74FF480225B
:101DC000F1E74FF48002EEE74FF08062EBE7042288
:101DD000E9E74022E7E74FF48062E4E702238B4023
:101DE000134200F0AB8015F0020F00F0A7802368CB
:101DF00013F0200F06D1236823F00A032360012388
:101E000080F821300368494A93424BD9783A93428B
:101E100024D0143293422DD0143293422CD0143259
:101E200093422CD0143293422CD0143293422CD0B3
:101E3000143293422CD002F5627293422BD01432AA
:101E400093422AD01432934229D01432934202D0C2
:101E50004FF4003203E04FF4005200E00222344B12
:101E60005A60002380F82030836A002B3FF459AF7A
:101E7000984756E72022F2E74FF40072EFE74FF45D
:101E80000052ECE74FF40032E9E74FF40012E6E7C6
:101E90004FF00072E3E70222E1E72022DFE74FF490
:101EA0000072DCE7234A934224D01432934225D0B7
:101EB0001432934224D01432934224D014329342E9
:101EC00024D01432934224D01432934224D002F509
:101ED0006272934223D01432934222D0143293423E
:101EE00021D01432934202D04FF4003203E04FF479
:101EF000005200E00222104B5A60B2E72022FAE7BB
:101F00004FF40072F7E74FF40052F4E74FF4003259
:101F1000F1E74FF40012EEE74FF00072EBE7022218
:101F2000E9E72022E7E74FF40072E4E7800002408F
:101F300000040240080002400000024008238B40D9
:101F400013423FF4EEAE15F0080F3FF4EAAE2368FB
:101F500023F00E032360026CC16B012303FA02F22B
:101F60004A60836380F82130002380F82030036BBF
:101F7000002B3FF4D6AE9847D3E600BF70B582B0D1
:101F80000024A446ACE0854DAB4210D007D9844D67
:101F9000AB420CD005F58035AB4208D013E0A5F577
:101FA0008015AB4203D005F57025AB4207D18B6895
:101FB000002B5FD0012B58D04261082403E0A5F527
:101FC0008015AB42F3D0BEF1FF0F55D806464FEA5D
:101FD0008C0233680F25954023EA050304FA02F2C8
:101FE000134333604B6813F0805F77D06D4B9A6971
:101FF00042F001029A619B6903F001030193019B86
:102000004FEA9C02951C684B53F825600CF00305C1
:10201000AD000F23AB4026EA0306644B984232D052
:1020200003F58063984200F0978003F5806398423F
:1020300000F0948003F58063984200F0918003F5EE
:102040008063984200F08E8003F58063984218D038
:10205000062319E0CC68B6E7CC680434B3E7CC6853
:102060000834B0E7CC680C34ADE702610824AAE775
:102070000024A8E70424A6E7061DACF1080292009C
:10208000A7E7052300E00023AB4033430232464D6F
:1020900045F822304B6813F4801F65D0444A93689A
:1020A00043EA0E0393604B6813F4001F62D0404A6A
:1020B000D36843EA0E03D3604B6813F4003F5FD04C
:1020C0003B4A536843EA0E0353604B6813F4803F66
:1020D0005CD0374A136843EA0E0313600CF1010C1D
:1020E0000B6833FA0CF257D0012202FA0CF203EA21
:1020F000020E32EA0303F1D14B68122B3FF643AFD5
:10210000122B3FF660AF01A555F823F0AF1F000872
:10211000552000085F20000871200008C71F000834
:10212000C71F0008C71F0008C71F0008C71F0008F7
:10213000C71F0008C71F0008C71F0008C71F0008E7
:10214000C71F0008C71F0008C71F0008C71F0008D7
:102150005920000865200008012395E7022393E732
:10216000032391E704238FE7114A936823EA0E03C0
:10217000936098E70E4AD36823EA0E03D3609BE787
:102180000B4A536823EA0E0353609EE7084A13681C
:1021900023EA0E031360A1E702B070BD0000221015
:1021A0000000311000100240000001400008014012
:1021B000000401408368194201D0012070470020CB
:1021C00070470AB10161704709040161704700005E
:1021D00008B5054B5B69034200D108BD024B58614D
:1021E00005F04EF8F9E700BF0004014038B512F4DD
:1021F000804F44D00468B4F850309BB291F800C0CE
:1022000003EBCC03023304EB4304B4F80044C4F3FF
:1022100009048B69A34228D31B1B8B618B697BB993
:10222000056835F82C309BB223F4804323F070030B
:1022300083F4005343F4004343F0800325F82C302B
:1022400012F0400F0ED002680D7832F825309BB2A4
:1022500023F4E04323F0700343F4004343F0C0034E
:1022600022F8253024B9204638BD00238B61D5E7FC
:1022700023460A894969006804F01EFEF3E70468F2
:10228000B4F850309BB291F800C003EBCC03063396
:1022900004EB4304B4F80044C4F309048B69A3427B
:1022A0002FD31B1B8B618B697BB9056835F82C30EC
:1022B0009BB223F4804323F0700383F4005343F470
:1022C000004343F0800325F82C3012F0400F0FD16B
:1022D000026891F800C032F82C309BB223F4E0433E
:1022E00023F0700343F4004343F0C00322F82C3082
:1022F000002CB8D023464A894969006804F0DCFD07
:10230000B1E700238B61CEE770B586B0002800F0FE
:102310008180044690F8A932EBB1032384F8A932F6
:10232000206803F058FE254655F8106BEC460FCD9B
:10233000ACE80F002B68CCF80030231D0ECB3046E4
:1023400003F039FE054658B1022384F8A93201256D
:10235000284606B070BD80F8A8322DF04FFCDCE7AF
:102360000021206803F041FE2B4616E05A1C02EBC8
:10237000820104EBC1010120487002EB820104F8E4
:10238000313004EBC1000021C17003EB830004EB8A
:10239000C0008163C1630164D3B261688B42E5D33D
:1023A00016E005EB850304EBC303002283F86921E3
:1023B00083F8685183F86B21C3F87821C3F87C2136
:1023C00005EB850304EBC303C3F880210135EDB2AF
:1023D000A942E6D8254655F8106BEC460FCDACE87F
:1023E0000F002B68CCF80030231D0ECB304603F0D5
:1023F000FEFD054620B1022384F8A9320125A7E796
:10240000002384F82430012384F8A932206804F0E2
:1024100051F99DE701259BE738B590F8A832012BCB
:1024200011D00446012580F8A852006803F0CAFDC7
:10243000294620462DF0F7FC206804F039F90020E9
:1024400084F8A80238BD0220FCE770B505460C46AA
:10245000164612F0400F00F00E810268B2F85030BC
:102460009BB2097803EBC103023302EB4302B2F8DB
:102470000024C2F30902A36993424ED99B1AA361B7
:10248000A369002B66D16378002B49D12B68B3F880
:10249000502092B2134403EB0113B3F80424C2F3A7
:1024A0000902A3F80424B3F804246FEA42426FEA55
:1024B000524292B2A3F804242B686278002A3CD1DD
:1024C000B3F8502092B21344227803EB0213B3F80E
:1024D0000C24C2F30902A3F80C24B3F80C246FEA0D
:1024E00042426FEA524292B2A3F80C242178284665
:1024F0002DF0B8FB16F4804F41D02A68217832F8CD
:1025000021309BB223F4E04323F0700343F44043B3
:1025100043F0800322F8213031E00023A361AFE7CC
:10252000012BC9D12B68B3F8502092B2134403EBAE
:1025300001130022A3F80424BEE7012AD6D1B3F880
:10254000502092B21344227803EB02130022A3F826
:102550000C24CBE716F4804F0DD0286830F82130DA
:102560009BB223F4E04323F0700343F4404343F071
:10257000800320F8213094F82430012B12D02A68EF
:10258000217832F821309BB223F4E04323F040035A
:1025900083F0300343F4004343F0800322F82130FA
:1025A000002070BD636913446361E3691344E36110
:1025B000216A2369994224D3C91A21626278002AC8
:1025C00044D12A68B2F8501089B20A44217802EB4B
:1025D0000112B2F80414C1F30901A2F804143E2B4D
:1025E0001BD9580913F01F0F00D10138B2F8041499
:1025F00089B2800280B2014341F40041A2F8041480
:1026000026E021B9002384F824301346D6E70023BE
:1026100084F8243023620B46D0E74BB9B2F8041497
:102620006FEA41416FEA514189B2A2F804140FE008
:10263000590813F0010F00D00131B2F8040480B240
:10264000890289B20143A2F8041401E0012A06D0EC
:102650009BB222896169286804F034F88FE72A6800
:10266000B2F8501089B20A44217802EB011299B2F3
:10267000A2F80414ECE70268B2F850309BB2097873
:1026800003EBC103063302EB4302B2F80024C2F3AA
:102690000902A36993424FD39B1AA361A369002B3C
:1026A00067D16378002B4AD12B68B3F8502092B2DF
:1026B000134403EB0113B3F80424C2F30902A3F893
:1026C0000424B3F804246FEA42426FEA524292B201
:1026D000A3F804242B686278002A3DD1B3F8502077
:1026E00092B21344227803EB0213B3F80C24C2F322
:1026F0000902A3F80C24B3F80C246FEA42426FEAF3
:10270000524292B2A3F80C24217828462DF0AAFA5E
:1027100016F4804F7FF433AF2A68217832F82130E5
:102720009BB223F4E04323F0700343F4404343F0AF
:10273000800322F8213022E70023A361AEE7012BBA
:10274000C8D12B68B3F8502092B2134403EB0113A5
:102750000022A3F80424BDE7012AD5D1B3F8502004
:1027600092B21344227803EB02130022A3F80C2444
:10277000CAE716F4804F0DD1286830F821309BB29B
:1027800023F4E04323F0700343F4404343F0800319
:1027900020F8213094F82430012B7FF4F0AE6369E7
:1027A00013446361E3691344E361216A2369994235
:1027B00024D3C91A21622A686178002943D1B2F86A
:1027C000501089B20A44217802EB0112B2F80C14BD
:1027D000C1F30901A2F80C143E2B1BD9580913F0C0
:1027E0001F0F00D10138B2F80C1489B2800280B2F8
:1027F000014341F40041A2F80C1426E021B9002362
:1028000084F824301346D6E70023236284F824306A
:102810000B46D0E74BB9B2F80C146FEA41416FEAAE
:10282000514189B2A2F80C140FE0590813F0010FBE
:1028300000D00131B2F80C0480B2890289B20143A0
:10284000A2F80C1401E0012906D09BB262896169EB
:10285000286803F037FF92E6B2F8501089B20A44B4
:10286000217802EB011299B2A2F80C14EDE72DE9E0
:10287000F04105462868B0F8443013F4004F00F0EA
:102880009282B0F84440A3B214F00F0440F0E2800A
:1028900013F0100F6BD003889AB213F4006F40F05E
:1028A0009D8012F4004FE5D0038823F070031B05D0
:1028B0001B0D43F0800303802868B0F850309BB2B2
:1028C00095F8682103EBC203063300EB4303B3F82A
:1028D0000034C3F30903C5F884318BB1D5F87C11FA
:1028E00071B1B5F86E2104F0E7FAD5F87C31D5F86E
:1028F00084211344C5F87C31002128462DF0A6F927
:102900002A68138899B213F4006FB3D101F44051CF
:10291000B1F5405FAED0B2F850309BB21A44B2F875
:102920000C34C3F30903A2F80C34D5F878313E2BEC
:1029300077D9590913F01F0F00D10139B2F80C34BF
:102940009BB2890289B20B4343F40043A2F80C34D2
:102950002A6813889BB223F4804323F0700383F426
:10296000405343F4004343F08003138082E703881D
:102970009BB223F4E14323F070036FEA43436FEA11
:1029800053439BB203802A68B2F850309BB295F84B
:10299000281003EBC103023302EB4302B2F8003408
:1029A000C3F309036B64EA6B1A44EA630021284607
:1029B0002DF058F995F82430002B3FF45BAF2B6CC9
:1029C000002B7FF457AF95F824302A6843F080033A
:1029D000A2F84C30002385F824304BE7B0F8503093
:1029E0009BB295F8682103EBC203063300EB430367
:1029F000B3F80034C3F30903C5F88431B5F86E2188
:102A000005F52C7104F058FA2A68138823F0700336
:102A10001B051B0D43F08003138028462DF00EF993
:102A200028E74BB9B2F80C346FEA43436FEA5343DB
:102A30009BB2A2F80C348BE7590813F0010F00D0B9
:102A40000131B2F80C3498B28B029BB20343A2F866
:102A50000C347DE730F824309EB213F4004F4CD193
:102A600016F0800F3FF406AF621C02EB820105EB0B
:102A7000C101286830F824309BB223F4E14323F0ED
:102A800070036FEA43436FEA53439BB220F824304C
:102A9000CB78012B00F0F28016F4807F40F07E812D
:102AA0002868B0F850309BB2621C02EB820215F825
:102AB000326003EBC603023300EB4303B3F8003488
:102AC000C3F3090304EB840205EBC202126C9A42C1
:102AD00040F24C8104EB840705EBC707D21A3A6435
:102AE00004EB840205EBC202126C002A40F045811F
:102AF000314628462DF0B6F8BCE630F8243023F0F5
:102B000070031B051B0D43F0800320F8243004EBF9
:102B10008401C90001F5B47105EB010804EB8403DD
:102B200005EBC30393F87431002B42D12868B0F849
:102B300050309BB204EB840205EBC20292F868218C
:102B400003EBC203063300EB4303B3F80074C7F38F
:102B5000090717BB04EB840305EBC303D3F88421F7
:102B60003A44C3F88421D3F87C213A44C3F87C2149
:102B7000D3F880313BB104EB840305EBC303D3F8F6
:102B800078319F4275D204EB840305EBC30393F8BD
:102B9000681128462DF05AF862E704EB840105EB32
:102BA000C1013B46B1F86E21D1F87C1104F084F9E3
:102BB000D0E704EB840305EBC30393F86B31022BDE
:102BC00035D0296804EB840205EBC20292F8680153
:102BD00031F820309BB223F4E04323F0700343F438
:102BE000004343F0C00321F82030286892F86821A0
:102BF00030F8223013F4804F20D0B0F850309BB220
:102C000003EBC203023300EB4303B3F80074C7F3D2
:102C10000907002F9ED004EB840105EBC1013B4660
:102C2000B1F87021D1F87C1104F046F992E73246F0
:102C300041462846FFF7DAFA07468BE7B0F85030EE
:102C40009BB203EBC203063300EB4303B3F80074FB
:102C5000C7F30907002F3FF47DAF04EB840105EBB8
:102C6000C1013B46B1F87221D1F87C1104F024F97E
:102C700070E74146286803F038FDF1E604EB840371
:102C800005EBC30300221A6493F83430FBB116F04D
:102C9000400F37D04B781BBB2B68B3F8502092B253
:102CA0001344621C02EB820215F8322003EB02137C
:102CB000B3F80424C2F30902A3F80424B3F80424EB
:102CC0006FEA42426FEA524292B2A3F804240134FE
:102CD00004EB840415F8341028462CF0C3FFC9E532
:102CE000012BF4D12B68B3F8502092B21344621C2C
:102CF00002EB820215F8322003EB02130022A3F844
:102D00000424E4E72A68631C03EB830305EBC30395
:102D10005B78D3B9B2F850309BB21344621C02EB1B
:102D2000820215F8322003EB0213B3F80C24C2F32D
:102D30000902A3F80C24B3F80C246FEA42426FEAAC
:102D4000524292B2A3F80C24C1E7012BBFD1B2F8D2
:102D500050309BB21344621C02EB820215F8322001
:102D600003EB02130022A3F80C24B0E704EB840267
:102D700005EBC20200271764B2E604EB840205EB00
:102D8000C202D66B1E44D663526C04EB840405EB7E
:102D9000C4041344636403F0A8FC6BE53246284680
:102DA000FFF753FB66E50020BDE8F08190F8A832FC
:102DB000012B0DD010B50446012380F8A83280F80D
:102DC0002410006803F06EFC002084F8A80210BDF7
:102DD0000220704710B584B00446006803F06CFC14
:102DE00010F4004F20D110F4806F21D110F4804FE7
:102DF0002FD110F4005F37D110F4805F3ED110F472
:102E0000006F40F0878010F4007F40F0AE8010F437
:102E1000807F27D02268B2F844309BB223F48073BD
:102E20009BB2A2F844301DE02046FFF720FD19E0D8
:102E30002268B2F844309BB223F480639BB2A2F8BC
:102E4000443020462CF01FFF00212046FFF7AEFF44
:102E500008E02268B2F844309BB223F480439BB26E
:102E6000A2F8443004B010BD2268B2F844309BB2DE
:102E700023F400539BB2A2F84430F3E72268B2F87F
:102E800040309BB223F004039BB2A2F8403022688A
:102E9000B2F840309BB223F008039BB2A2F8403056
:102EA00020462CF013FF2268B2F844309BB223F482
:102EB00080539BB2A2F84430D4E7226832F8231042
:102EC00004AA02EB430222F8101C0133DBB2072BE9
:102ED000F3D92268B2F840309BB243F00103A2F864
:102EE00040302268B2F840309BB223F001039BB21D
:102EF000A2F840302368B3F8442012F4806FF9D070
:102F0000B3F8442092B222F4806292B2A3F8442033
:102F100000230BE00023DAE7226804A901EB430158
:102F200031F8101C22F823100133DBB2072BF3D940
:102F30002268B2F840309BB243F00803A2F8403058
:102F40002268B2F844309BB223F400639BB2A2F82B
:102F500044302268B2F840309BB243F00403A2F838
:102F6000403020462CF0A2FE7CE72268B2F84430C4
:102F70009BB223F400739BB2A2F8443020462CF09D
:102F80007CFE6FE710B50446084611F0800F25D18E
:102F900001F0070C0CEB8C01C90001F5B47E04EBC9
:102FA0000E010CEB8C0C04EBCC0C4FF0000E8CF8EB
:102FB00069E100F0070008700A61CB70022B1AD09B
:102FC00094F8A832012B19D0012384F8A832206884
:102FD00003F022F8002084F8A80210BD01F0070CCD
:102FE0000CF1010C0CEB8C0104EBC1014FF0010E54
:102FF00081F801E0DDE700230B71E1E70220ECE757
:1030000010B504460B4611F0800F1FD101F00702E6
:1030100002EB8201C90001F5B471014402EB8202A6
:1030200000EBC202002082F8690103F007030B7075
:1030300094F8A832012B13D0012384F8A832206819
:1030400003F0CFF9002084F8A80210BD01F00702B8
:10305000013202EB820100EBC10101204870E4E77C
:103060000220F2E710B501F0070C0CEB8C01C9004F
:1030700001F5B4710CEB8C0E00EBCE0ECEF87C217A
:10308000CEF880310024CEF884418EF869418EF864
:1030900068C10144006803F028FB204610BD01F020
:1030A000070101EB810100EBC100D0F884017047FA
:1030B00038B501F0070404F1010C0CEB8C0104EBB2
:1030C000840E00EBCE0ECEF83C20CEF8403001222C
:1030D0008EF84C20CEF848300025CEF8445000EB56
:1030E000C1035A7000F831401946006803F0FDFA38
:1030F000284638BD38B501F007054268954231D8F9
:1031000004460B4611F0800F1ED101EB8101C9006E
:1031100001F5B471014403EB830300EBC303002208
:1031200083F8692101238B700D7094F8A832012B6C
:103130001AD0012384F8A832206803F03DFA5DB16B
:10314000002084F8A80238BD6B1C03EB830100EB60
:10315000C10101224A70E5E704F52C71206803F0F3
:10316000AFFAEDE70120EEE70220ECE70B4601F0B5
:103170000F014268914230D810B5044613F0800F19
:1031800021D103F0070202EB8201C90001F5B471FD
:10319000014402EB820200EBC202002082F86901C6
:1031A00000228A7003F007030B7094F8A832012BF9
:1031B00015D0012384F8A832206803F022FA0020F9
:1031C00084F8A80210BD03F00702013202EB82016D
:1031D00000EBC10101204870E2E7012070470220A6
:1031E000F0E790F8A832012B14D010B50446012363
:1031F00080F8A83211F0800F06D1006802F00AFFB3
:10320000002084F8A80210BD01F00701006802F058
:10321000FFFEF5E70220704711F0800F0BD001F0A0
:103220000701013101EB810100EBC10052B90273CA
:10323000C3800020704701EB8101C90001F5B47122
:103240000844F3E70122027303811B0C4381F0E77A
:1032500082B0084B1B68084AA2FB03235B0A00FBF1
:1032600003F3019300BF019B5A1E0192002BF9D179
:1032700002B0704700000020D34D6210002800F01B
:10328000F18170B582B00446036813F0010F2CD0B1
:10329000994B5B6803F00C03042B1DD0964B5B68C5
:1032A00003F00C03082B12D06368B3F5803F41D0C4
:1032B000002B55D103F1804303F504331A6822F43F
:1032C00080321A601A6822F480221A6037E08A4B32
:1032D0005B6813F4803FE7D0874B1B6813F4003F13
:1032E00003D06368002B00F0BF81236813F0020F46
:1032F00075D0814B5B6813F00C0F5FD07E4B5B6821
:1033000003F00C03082B54D02369002B00F08A80B3
:103310007A4B01221A60FEF7C7FA0546764B1B6806
:1033200013F0020F75D1FEF7BFFA401B0228F5D942
:1033300003209EE1704A136843F48033136063688E
:1033400043B3FEF7B1FA05466B4B1B6813F4003F1D
:10335000CBD1FEF7A9FA401B6428F5D9032088E1F8
:10336000B3F5A02F09D0644B1A6822F480321A609A
:103370001A6822F480221A60E1E703F18043A3F582
:103380003C331A6842F480221A601A6842F4803290
:103390001A60D4E7FEF788FA0546574B1B6813F40A
:1033A000003FA2D0FEF780FA401B6428F5D9032025
:1033B0005FE1514B5B6813F4803FA5D14E4B1B6816
:1033C00013F0020F03D02369012B40F04F814A4ACA
:1033D000136823F0F803616943EAC10313602368AB
:1033E00013F0080F33D0A369002B5CD0434B0122AC
:1033F000C3F88024FEF758FA05463F4B5B6A13F08A
:10340000020F21D1FEF750FA401B0228F5D9032004
:103410002FE1394A136823F0F803616943EAC103D5
:103420001360DCE7354B00221A60FEF73DFA0546D3
:10343000314B1B6813F0020FD1D0FEF735FA401B59
:103440000228F5D9032014E10120FFF701FF2368CA
:1034500013F0040F00F09680274BDB6913F0805FB8
:1034600034D1254BDA6942F08052DA61DB6903F02E
:1034700080530193019B0125214B1B6813F4807F2E
:1034800026D0E368012B3DD0002B53D103F18043BC
:1034900003F504331A6A22F001021A621A6A22F052
:1034A00004021A6233E0154B0022C3F88024FEF7B1
:1034B000FBF90546104B5B6A13F0020FC7D0FEF70D
:1034C000F3F9401B0228F5D90320D2E00025D3E709
:1034D0000B4A136843F480731360FEF7E5F9064660
:1034E000074B1B6813F4807FCBD1FEF7DDF9801BFF
:1034F0006428F5D90320BCE00010024000004242DD
:10350000007000405F4A136A43F001031362E368EE
:1035100033B3FEF7C9F906465A4B1B6A13F0020F84
:103520002FD1FEF7C1F9801B41F288339842F3D9BD
:1035300003209EE0052B09D0524B1A6A22F00102AB
:103540001A621A6A22F004021A62E0E74D4B1A6A04
:1035500042F004021A621A6A42F001021A62D6E7C5
:10356000FEF7A2F90646474B1B6A13F0020F08D07C
:10357000FEF79AF9801B41F288339842F3D9032071
:1035800077E0E5B9E369002B72D03E4A526802F059
:103590000C02082A56D0022B17D03B4B00221A6689
:1035A000FEF782F90446374B1B6813F0007F47D0C3
:1035B000FEF77AF9001B0228F5D9032059E0314AB9
:1035C000D36923F08053D361DCE72F4B00221A66C6
:1035D000FEF76AF905462B4B1B6813F0007F06D0F7
:1035E000FEF762F9401B0228F5D9032041E0236A67
:1035F000B3F5803F1AD023494B6823F47413226A31
:10360000606A024313434B601F4B01221A66FEF7A8
:103610004BF904461B4B1B6813F0007F0ED1FEF7DD
:1036200043F9001B0228F5D9032022E0154A53680C
:1036300023F40033A1680B435360DCE7002018E05B
:10364000002016E0012B16D00E4B5B6803F480318E
:10365000226A914211D103F47013626A93420ED12F
:10366000002006E001207047012002E0012000E078
:10367000002002B070BD0120FBE70120F9E7012026
:10368000F7E700BF00100240000042420F4B5B68AA
:1036900003F00C02082A01D00D487047C3F383429F
:1036A0000C49885C13F4803F0BD0084B5B68C3F374
:1036B0004043094AD35C064A02FB00F0B0FBF3F03A
:1036C0007047064B03FB00F0704700BF001002403C
:1036D00000127A00488B0308448B030800093D0060
:1036E000002800F0A08070B50D460446524B1B68C0
:1036F00003F007038B420BD24F4A136823F00703F2
:103700000B431360136803F007038B4240F08D8076
:10371000236813F0020F17D013F0040F04D0474AA8
:10372000536843F4E0635360236813F0080F04D038
:10373000424A536843F460535360404A536823F04D
:10374000F003A1680B435360236813F0010F31D0DD
:103750006368012B20D0022B25D0384A126812F062
:10376000020F64D035494A6822F0030213434B60CC
:10377000FEF79AF80646314B5B6803F00C0362686B
:10378000B3EB820F16D0FEF78FF8801B41F288331F
:103790009842F0D9032045E0284A126812F4003F0D
:1037A000E0D101203EE0254A126812F0007FD9D115
:1037B000012037E0204B1B6803F00703AB420AD916
:1037C0001D4A136823F007032B431360136803F0AB
:1037D0000703AB422DD1236813F0040F06D0174A1C
:1037E000536823F4E063E1680B435360236813F0EC
:1037F000080F07D0114A536823F46053216943EA44
:10380000C1035360FFF742FF0C4B5B68C3F3031324
:103810000B4AD35CD8400B4B18600B4B1868FDF774
:103820004DFE002070BD012070470120FAE7012005
:10383000F8E70120F6E700BF002002400010024038
:10384000348B03080000002008000020014B18689A
:10385000704700BF0000002008B5FFF7F7FF044BDA
:103860005B68C3F30223034AD35CD84008BD00BFA2
:10387000001002402C8B030808B5FFF7E7FF044B4C
:103880005B68C3F3C223034AD35CD84008BD00BFC2
:10389000001002402C8B03080F2303600B4B5A6867
:1038A00002F0030242605A6802F0F00282605A6835
:1038B00002F4E062C2605B68DB0803F4E06303616A
:1038C000034B1B6803F007030B60704700100240B6
:1038D0000020024070B582B00446036813F0010F67
:1038E00036D03F4BDB6913F0805F49D13C4BDA693E
:1038F00042F08052DA61DB6903F080530193019B4F
:103900000125384B1B6813F4807F3BD0344B1B6A76
:1039100013F4407313D0626802F440729A420ED0DE
:103920002F4A136A23F440702F490126C1F84064DE
:103930000026C1F84064106213F0010F36D1284A06
:10394000136A23F4407361680B431362002D3ED168
:10395000236813F0020F06D0214A536823F4404332
:10396000A1680B435360236813F0100F34D01C4A36
:10397000536823F4800361690B43536000202CE0FB
:103980000025BEE7174A136843F480731360FDF700
:103990008BFF0646134B1B6813F4807FB6D1FDF7EF
:1039A00083FF801B6428F5D9032016E0FDF77CFF18
:1039B00006460B4B1B6A13F0020FC0D1FDF774FFD4
:1039C000801B41F288339842F3D9032005E0D36984
:1039D00023F08053D361BBE7002002B070BD00BF6D
:1039E00000100240007000400000424270B582B0FA
:1039F000044600230193006801F0CDFF054610B195
:103A0000284602B070BD206802F0BEFA38B9012322
:103A1000A364A36C012B0BD02E46284614E0002390
:103A2000A364206801F0B7FF0028F2D00546E7E75D
:103A30000021206802F016F90028EDD04FF08055E3
:103A4000DEE7019B01330193019A4FF6FE739A4220
:103A500013D896B90021206802F004F9E0B91249A0
:103A6000206802F0DDF90646C0B90021206801F0A7
:103A70007DFFC30FE5D01E46E3E7019A4FF6FE73C4
:103A80009A420ED810F0804302D001236364B7E756
:103A9000002262641D46B3E70546B1E74FF080554A
:103AA000AEE74FF08075ABE7000010C1F8B5846A4F
:103AB000C66AA6B9F8BD386801F033FF2070C0F3BC
:103AC00007236370C0F30743A370000EE070043453
:103AD000043E0135072DEED9BC62FE62EAE70746D7
:103AE0000025F7E7F0B583B0046A466ADEB903B093
:103AF000F0BD23780193627843EA02230193A27810
:103B000043EA02430193E27843EA026301930434F7
:103B1000043E01A9386801F007FF0135072DE8D9F7
:103B20003C627E62E3E707460025F7E7F0B589B01F
:103B300004460F46FDF7B8FE0646002300930193A6
:103B40000821206801F0E4FF054610B1284609B0BD
:103B5000F0BD216D0904206802F084F805460028B4
:103B6000F4D14FF0FF3302930823039330230493DF
:103B700002230593002306930123079302A92068DB
:103B800001F0F7FE206802F09DF8054658B1DDE728
:103B900001F0C7FE4DF825000135FDF785FE831BBA
:103BA000B3F1FF3F3FD02068436B13F02A0F07D1DA
:103BB000436B13F4001FEBD1436B13F4005FECD1A4
:103BC000436B13F0080F25D1436B13F0020F24D180
:103BD000456B15F0200523D140F23A538363019AD7
:103BE000130203F47F0343EA0263110A01F47F41E5
:103BF0000B4343EA12633B60009A130203F47F0312
:103C000043EA0263110A01F47F410B4343EA126362
:103C10007B609BE70825856398E70225856395E728
:103C20002025856392E74FF000458FE710B582B0FD
:103C30000446002100910191006801F097FE10F008
:103C4000007F13D169462046FFF770FF80B9019BC2
:103C500013F4802F0ED0216D0904206802F002F8C1
:103C600030B90221206802F015F801E04FF400603D
:103C700002B010BD4FF08060FAE710B582B0044684
:103C8000002100910191006801F070FE10F0007FAA
:103C900013D169462046FFF749FF80B9019B13F411
:103CA000803F0ED0216D0904206801F0DBFF30B9A0
:103CB0000021206801F0EEFF01E04FF4006002B047
:103CC00010BD4FF08060FAE770B581B104460E4632
:103CD000016D0904006802F00DF8054608B1284698
:103CE00070BD0021206801F041FE3060F7E74FF021
:103CF0000065F4E72DE9F04F87B005460C461646FF
:103D00009B46DDF840A0FDF7CFFD002C36D0814664
:103D100095F83470FFB2012F40F005810023AB63AA
:103D200006EB0B03EA6D93422ED8032385F834305B
:103D30002B680022DA626B6C012B00D076024FF008
:103D4000FF3300934FEA4B23019390230293022306
:103D5000039300230493012305936946286801F027
:103D600008FEBBF1010F14D902232B6331462868EA
:103D700001F0FEFEA0B9DDF8048038E0AB6B43F043
:103D80000063AB630127D3E0AB6B43F00073AB631D
:103D9000CEE001232B633146286801F0D1FEE9E72C
:103DA0002B68654A9A63AB6B0343AB63012385F8C9
:103DB000343000232B63BBE0286801F0B2FD207093
:103DC000C0F307236370C0F30743A370000EE070D5
:103DD0000434A8F104080136072EEDD9FDF764FD7F
:103DE000A0EB0900504510D2BAF1000F0DD02868A1
:103DF000466B40F22A331E4015D1436B13F4004F3B
:103E0000ECD0B8F1000FE9D0E6E72B684A4A9A6394
:103E1000AB6B43F00043AB63012385F834300023E0
:103E20002B63032784E0436B13F4807F05D0BBF141
:103E3000010F02D96B6C032B38D12B685A6B12F02F
:103E4000080F44D15A6B12F0020F4CD15A6B12F08A
:103E5000200F54D12868436B13F4001F5BD0B8F1D6
:103E6000000F58D001F05DFD2070C0F30723637090
:103E7000C0F30743A370000EE0700434A8F10408F7
:103E8000FDF712FDA0EB0900504502D2BAF1000F78
:103E9000E0D12B68284A9A63AB6B43F00043AB63D5
:103EA000012385F8343000232B6341E001F0A8FEA4
:103EB00003460028C1D02A681F499163AA6B1343A7
:103EC000AB63012385F8343000232B6330E01A4ABA
:103ED0009A63AB6B43F00803AB63012385F834307E
:103EE00000232B6324E0144A9A63AB6B43F0020374
:103EF000AB63012385F8343000232B6318E00E4AAE
:103F00009A63AB6B43F02003AB63012385F8343035
:103F100000232B630CE040F23A538363012385F8BE
:103F20003430002704E0AB6B43F00053AB63012750
:103F3000384607B0BDE8F08FFF0540002DE9F04F8F
:103F40008BB005460C4616469B46DDF850A0FDF7A3
:103F5000ABFC002C37D0804695F83470FFB2012FAF
:103F600040F0E2800023AB6306EB0B03EA6D934263
:103F70002FD8032385F834302B680022DA626B6C6B
:103F8000012B00D076024FF0FF3304934FEA4B230E
:103F90000593902306930023079308930123099325
:103FA00004A9286801F0E5FCBBF1010F16D9202314
:103FB0002B633146286801F00BFE0190019BABB9E1
:103FC000DDF8149040E0AB6B43F00063AB63012776
:103FD000AFE0AB6B43F00073AB63AAE010232B633D
:103FE0003146286801F0DCFD0190E7E72B68534A71
:103FF0009A63AB6B019A1343AB63012385F83430AA
:1040000000232B6395E023780393627843EA02232D
:104010000393A27843EA02430393E27843EA0263FC
:1040200003930434A9F1040903A9286801F07CFC76
:104030000136072EE7D9FDF737FCA0EB0800504505
:1040400010D2BAF1000F0DD02868466B40F21A3337
:104050001E4015D1436B13F4804FECD0B9F1000F23
:10406000E9D0E6E72B68354A9A63AB6B019A1343B4
:10407000AB63012385F8343000232B63032758E01A
:10408000436B13F4807F05D0BBF1010F02D96B6C39
:10409000032B18D12B685A6B12F0080F24D15A6BDE
:1040A00012F0020F2CD15A6B12F0100F34D0234AA9
:1040B0009A63AB6B43F01003AB63012385F8343094
:1040C00000232B6335E001F09BFD03460028E1D07F
:1040D0002A681A499163AA6B1343AB63012385F8DD
:1040E000343000232B6324E0144A9A63AB6B43F013
:1040F0000803AB63012385F8343000232B6318E0F9
:104100000E4A9A63AB6B43F00203AB63012385F85D
:10411000343000232B630CE040F23A529A630123BF
:1041200085F83430002704E0AB6B43F00053AB63F9
:10413000012738460BB0BDE8F08F00BFFF054000F7
:1041400090F83400704770470346426E920F0A7031
:10415000426EC2F383624A7090F8672002F0030255
:104160008A7090F86620CA7090F865200A7190F8FD
:1041700064204A71826E120DCA80B0F86A2002F083
:104180000F020A72826EC2F3C0324A72826EC2F3AA
:1041900080328A72826EC2F34032CA72826EC2F379
:1041A00000320A7300224A73426C002A40F0868073
:1041B000806E40F6FC7202EA8002D86E42EA90728B
:1041C0000A61DA6EC2F3C2620A7593F86F2002F0D8
:1041D00007024A75DA6EC2F342528A75DA6EC2F38A
:1041E0008242CA75DA6EC2F3C2320A760A690132B5
:1041F0005A65087E00F00700023082405A6591F847
:1042000008C00CF00F0C012000FA0CF09865400A71
:1042100000FB02F2DA654FF400721A66DA6EC2F33E
:1042200080324A76DA6EC2F3C6128A76DA6E02F00D
:104230007F02CA761A6FD20F0A771A6FC2F34172E1
:104240004A771A6FC2F382628A771A6FC2F3835277
:10425000CA771A6FC2F3405281F82020002081F8FB
:104260002100B3F8722002F0010281F822201A6FB7
:10427000C2F3C03281F823201A6FC2F3803281F872
:1042800024201A6FC2F3403281F825201A6FC2F33E
:10429000003281F826201A6FC2F3812281F827208C
:1042A0001A6FC2F3012281F828201B6FC3F3460363
:1042B00081F82930012381F82A307047012A11D171
:1042C000826E120402F47C12B0F86E0002430A619E
:1042D0000A69013292025A65DA654FF400729A65F2
:1042E0001A669BE7026805499163826B42F080522F
:1042F0008263012083F83400704700BFFF0540004F
:1043000070B590B004460123ADF81230006801F09A
:1043100014FB00286CD0636C032B45D1636C032B1A
:104320005DD1636C032B1DD0BDF81210216509040B
:10433000206801F03AFD054600285BD10021206885
:1043400001F014FB60660421206801F00FFBA066F9
:104350000821206801F00AFBE0660C21206801F0CA
:1043600005FB20670421206801F000FB000DE064DC
:1043700005A92046FFF7E8FE00283ED1226D120471
:104380000023206801F056FC054698BB234653F8ED
:10439000106B93E807008DE80700043494E80E00E2
:1043A000304601F0A5FA25E0206801F0E9FC054659
:1043B00000BB0021206801F0D9FA60670421206861
:1043C00001F0D4FAA0670821206801F0CFFAE06775
:1043D0000C21206801F0CAFAC4F880009EE70DF1B4
:1043E0001201206801F086FD0546002899D001E001
:1043F0004FF08065284610B070BD4FF08055F9E74A
:1044000070B58AB00446002304930593069307937E
:104410000893762309930AAB13E907008DE8070098
:1044200004AB0ECB206801F063FA18B101252846D1
:104430000AB070BD05461A4E0023C6F8A0302068A9
:1044400001F077FA0123C6F8A0300220FDF732FA16
:104450002046FFF7CBFA30B1012584F83450A36B26
:104460000343A363E3E72046FFF74AFF30B101258A
:1044700084F83450A36B0343A363D8E74FF400716F
:10448000206801F045FB0028D1D0236805499963D5
:10449000A36B0343A363012584F83450C7E700BF2F
:1044A00000003042FF054000A8B110B5044690F866
:1044B000343063B1032384F834302046FFF7A0FF83
:1044C00058B9A0632063012384F8343010BD03770A
:1044D000FCF7D6FEEEE7012070470120F6E7436CBB
:1044E0000B60836C4B60C36C8B60036DCB60436D62
:1044F0000B61836D4B61C36D8B61036ECB610020DB
:104500007047000030B58BB004460D46032380F899
:104510003430436C032B1CD0B1F5805F08D0B1F56B
:10452000006F0AD079B1836B43F00063836314E0BA
:10453000836B43F0805383630FE0FFF777FBA36B3C
:104540000343A36309E0FFF798FBA36B0343A36353
:1045500003E0836B43F080538363A36BC3B1236891
:10456000174A9A63012584F834504FF4007120688B
:1045700001F0CEFA30B1236811499963A36B03436C
:10458000A3630125012384F8343028460BB030BDE5
:1045900063680493A3680593E368069307956369CA
:1045A0000893A36909930AAB13E907008DE8070094
:1045B00004AB0ECB206801F09BF90025D5E700BFC6
:1045C000FF05400010B582B004460023019301A905
:1045D000FFF77AFB10B1A36B0343A3630198C0F309
:1045E000432002B010BD10B5446A236840F23A522D
:1045F0009A632046FFF7E6FF012384F83430002356
:1046000023630538012805D9A36B53B9204602F06E
:10461000AEFC10BD206801F0F3FAA36B0343A36363
:10462000F2E72046FFF78FFDF3E710B5446A2368F1
:1046300040F23A529A632046FFF7C4FF012384F800
:104640003430002323630538012805D9A36B53B9FF
:10465000204602F08CFC10BD206801F0D1FAA36B5B
:104660000343A363F2E72046FFF76DFDF3E7000085
:1046700038B50446056B03685A6B12F4004F02D03C
:1046800015F0080F28D15A6B12F4807F5AD04FF4DE
:1046900080729A632268D36B23F4414323F03A0378
:1046A000D3632268D36A23F00103D36215F0080FA5
:1046B00026D015F0220F12D1236840F23A529A63A5
:1046C000012384F834300023236315F0030F13D043
:1046D000204602F056FC01E0FFF7E8F938BD2068FB
:1046E00001F08EFA03460028E6D0A26B1343A363C1
:1046F0002046FFF728FDDFE7204602F03DFCEDE70E
:1047000015F0800FEAD015F0200F0ED115F0030F31
:10471000E4D12268D36A23F00803D362012384F82A
:104720003430204602F028FCD8E7206801F068FA0F
:1047300003460028EAD0A26B1343A3632046FFF789
:1047400002FDE3E75A6B12F4804F02D015F0080F18
:104750004CD15A6B12F03A0FC0D05A6B12F0020FC4
:1047600003D0A26B42F00202A2635A6B12F0080F50
:1047700003D0A26B42F00802A2635A6B12F0200F22
:1047800003D0A26B42F02002A2635A6B12F0100F0A
:1047900003D0A26B42F01002A26340F23A729A6315
:1047A0002268D36B23F44E7323F00203D363206893
:1047B00001F026FAA36B0343A36315F0080F19D188
:1047C00015F0800F8AD015F0300F1CD115F0030FB3
:1047D00026D0236C174A5A63206CFDF7A3F90028F2
:1047E0003FF47CAF206CFFF720FF77E72046FFF710
:1047F00079F973E7012384F83430002323632046DA
:10480000FFF7A1FC6AE7E36B0B4A5A63E06BFDF725
:1048100089F900283FF462AFE06BFFF7E4FE5DE743
:104820000023A363012284F834202363204602F08E
:104830009EFB53E72B460008E74500082DE9F047AB
:1048400082B00546884617461E46FDF72DF80A9B9E
:104850001B1A03EB0609FDF727F88246284B1B6855
:10486000C3F3CB3309FB03F301932B689C6838EA4D
:1048700004040CBF01230023BB423DD0B6F1FF3F2F
:10488000F3D0FDF711F8A0EB0A00484507D2019AD2
:1048900002B14A46019B013B01939146E5E72A6834
:1048A000536823F0E00353606B68B3F5827F0BD04D
:1048B000AB6AB3F5005F14D0012385F851300023B3
:1048C00085F85030032018E0AB68B3F5004F02D0F4
:1048D000B3F5806FECD12A68136823F040031360AE
:1048E000E6E72A68136823F4005313602A68136804
:1048F00043F400531360DFE7002002B0BDE8F08707
:104900000000002010B582B004460B460092002241
:104910008021FFF793FF08B902B010BD636D43F02B
:10492000200363650320F7E7002856D010B504463E
:10493000436A33B94368B3F5827F05D00023C3616E
:1049400002E00023036143610023A36294F8513025
:10495000002B3CD0022384F851302268136823F0E6
:1049600040031360636803F48273A26802F4044294
:104970001343E26802F400621343226902F0020268
:104980001343626902F001021343A26902F4007248
:104990001343E26902F038021343226A02F08002F4
:1049A0001343A26A02F40052216813430B60638B25
:1049B000226803F0040353602268D36923F4006380
:1049C000D36100206065012384F8513010BD84F864
:1049D00050302046FCF7E6FCBCE7012070472DE98B
:1049E000F04383B01D4690F85030012B00F0D18089
:1049F000044688469146012380F85030FCF754FF66
:104A0000074694F85160F6B2012E40F0BA80B8F132
:104A1000000F00F0B780B9F1000F00F0B38003235E
:104A200084F8513000236365C4F83080A4F83490D2
:104A3000A4F83690A363A387E38763642364A36821
:104A4000B3F5004F1ED023681A6812F0400F03D14F
:104A50001A6842F040021A60E368B3F5006F1CD098
:104A6000636813B1B9F1010F55D1226B2368127835
:104A70001A73236B01332363E38E9BB2013B9BB21A
:104A8000E38648E02268136823F04003136022683D
:104A9000136843F480431360D5E7636813B1B9F139
:104AA000010F15D1226B23681288DA60236B023361
:104AB0002363E38E9BB2013B9BB2E38608E0FCF7E5
:104AC000F3FEC01BA84202D3B5F1FF3F15D1A5B13B
:104AD000E38E9BB2002B3CD023689A6812F0020F41
:104AE000EDD0226B1288DA60236B02332363E38EEE
:104AF0009BB2013B9BB2E386EAE7012384F8513085
:104B000003263FE0FCF7D0FEC01BA84202D3B5F15C
:104B1000FF3F19D1C5B1E38E9BB2D3B123689A6828
:104B200012F0020FEED0226B12781A73236B01334E
:104B30002363B4F836C01FFA8CFC0CF1FF3C1FFA5B
:104B40008CFCA4F836C0E6E7012384F85130032634
:104B500018E03A4629462046FFF7D4FE08B1202344
:104B60006365A36833B901932368DA6801929B688F
:104B70000193019B636D2BB9012384F8513000260A
:104B800000E00226002384F85030304603B0BDE830
:104B9000F0830226F9E7704790F83D30DBB2012B35
:104BA0002FD1022380F83D300268D36843F001031F
:104BB000D3600368154A934218D002F5006293420D
:104BC00014D0B3F1804F11D0A2F5983293420DD09A
:104BD00002F58062934209D002F58062934205D0CB
:104BE0001A6842F001021A60002070479A6802F0C9
:104BF0000702062A07D01A6842F001021A60002054
:104C00007047012070470020704700BF002C014012
:104C1000704770477047704710B5044603681A69BB
:104C200012F0020F11D0DA6812F0020F0DD06FF0FF
:104C300002021A610123037703689B6913F0030FD3
:104C400070D0FFF7E6FF0023237723681A6912F07C
:104C5000040F12D0DA6812F0040F0ED06FF00402C5
:104C60001A610223237723689B6913F4407F5FD086
:104C70002046FFF7CEFF0023237723681A6912F03E
:104C8000080F12D0DA6812F0080F0ED06FF0080289
:104C90001A61042323772368DB6913F0030F4ED0D6
:104CA0002046FFF7B6FF0023237723681A6912F026
:104CB000100F12D0DA6812F0100F0ED06FF0100241
:104CC0001A61082323772368DB6913F4407F3DD002
:104CD0002046FFF79EFF0023237723681A6912F00E
:104CE000010F03D0DA6812F0010F36D123681A6978
:104CF00012F0800F03D0DA6812F0800F34D12368ED
:104D00001A6912F0400F03D0DA6812F0400F32D166
:104D100023681A6912F0200F03D0DA6812F0200F0E
:104D200030D110BDFFF774FF2046FFF773FF8AE70D
:104D30002046FFF76DFF2046FFF76CFF9BE72046FC
:104D4000FFF766FF2046FFF765FFACE72046FFF759
:104D50005FFF2046FFF75EFFBDE76FF001021A61BB
:104D60002046FCF7F3F9C1E76FF080021A61204694
:104D700000F089F8C3E76FF040021A612046FFF7A0
:104D80004AFFC5E76FF020021A61204600F07AF86A
:104D9000C7E700000368244A904212D002F500627F
:104DA00090420ED0B0F1804F0BD0A2F598329042D5
:104DB00007D002F58062904203D002F580629042F3
:104DC00003D123F070034A681343174A904212D06C
:104DD00002F5006290420ED0B0F1804F0BD0A2F5E8
:104DE0009832904207D002F58062904203D002F5DB
:104DF0008062904203D123F44073CA68134323F0C6
:104E000080034A69134303608B68C3620B68836243
:104E1000054B984203D003F50063984201D10B691A
:104E20000363012343617047002C014040B310B578
:104E3000044690F83D30F3B1022384F83D3021461A
:104E400051F8040BFFF7A6FF012384F8463084F8DD
:104E50003E3084F83F3084F8403084F8413084F8A4
:104E6000423084F8433084F8443084F8453084F884
:104E70003D30002010BD80F83C30FFF78CFEDBE7B2
:104E80000120704770477047026802F10C0353E835
:104E9000003F23F0C0030C3242E800310029F3D177
:104EA000202380F841307047026802F10C0353E878
:104EB000003F23F490730C3242E800310029F3D113
:104EC000026802F1140353E8003F23F00103143297
:104ED00042E800310029F3D1036B012B05D02023D8
:104EE00080F84230002303637047026802F10C032C
:104EF00053E8003F23F010030C3242E80031002950
:104F0000F3D1ECE790F84130DBB2212B01D0022045
:104F100070478368B3F5805F17D0036A5A1C02623A
:104F20001A7803685A60C38C9BB2013B9BB2C3845E
:104F30004BB90268D36823F08003D3600268D3685A
:104F400043F04003D360002070470369002BE4D195
:104F5000036A1B880268C3F308035360036A0233C1
:104F60000362E0E710B504460268136923F4405376
:104F7000C1680B43136183680269134342691A4392
:104F80000168CB6823F4B05323F00C031343CB60C8
:104F90000268536923F4407381690B4353610268CB
:104FA000134B9A4220D0FEF757FC024602EB8202D6
:104FB00002EB820263689B00B2FBF3F20D48A0FB98
:104FC00002314909642303FB11231B013233A0FB87
:104FD00003035B0903F0F00202EB011203F00F037D
:104FE000216813448B6010BDFEF746FC0246DDE7E6
:104FF000003801401F85EB512DE9F84305460F4667
:1050000016469946DDF820802B681C6837EA0404B0
:105010000CBF01240024B4422DD1B8F1FF3FF3D0DE
:10502000B8F1000F05D0FCF73FFCA0EB09004045AC
:10503000EAD92A6802F10C0353E8003F23F4D07345
:105040000C3242E800310029F3D12A6802F114033E
:1050500053E8003F23F00103143242E800310029F5
:10506000F3D1202385F8413085F84230002385F8BC
:105070004030032000E00020BDE8F88360B310B5A5
:10508000044690F8413013B3242384F84130226859
:10509000D36823F40053D3602046FFF763FF2268F0
:1050A000136923F4904313612268536923F02A03A0
:1050B00053612268D36843F40053D36000206064D6
:1050C000202384F8413084F84230606310BD80F8BA
:1050D0004030FCF719FBD7E7012070472DE9F0417C
:1050E00082B01E4690F84130DBB2202B4BD10446F3
:1050F0000D46904600294AD00AB9012044E0002319
:105100004364212380F84130FCF7CEFB0746A4F826
:105110002480A4F82680A368B3F5805F02D04FF006
:1051200000080FE02369FBB14FF000080AE038F8EF
:10513000023B2268C3F308035360E28C92B2013A47
:1051400092B2E284E38C9BB28BB100963B46002284
:1051500080212046FFF750FFD8B9002DE7D015F881
:10516000012B23685A60E8E7A8460025EAE7009685
:105170003B46002240212046FFF73EFF58B920233E
:1051800084F8413000E0022002B0BDE8F081012047
:10519000FAE70320F8E70320F6E72DE9F04182B0B3
:1051A0001E4690F84230DBB2202B53D104460D4608
:1051B0009046002952D00AB901204CE000234364F4
:1051C000222280F842200363FCF76EFB0746A4F816
:1051D0002C80A4F82E80A368B3F5805F02D04FF036
:1051E000000817E0236913B14FF0000812E0A84649
:1051F00000250FE023685B68C3F3080328F8023B2F
:1052000003E023685B682B700135E28D92B2013AAE
:1052100092B2E285E38D9BB2BBB100963B46002281
:1052200020212046FFF7E8FED0B9002DE2D0A36888
:10523000B3F5805FE5D013B92369002BE1D0236873
:105240005B6803F07F032B70DEE7202384F8423095
:10525000002000E0022002B0BDE8F0810120FAE762
:105260000320F8E738B5134690F84120D2B2202A3F
:105270002FD1044600292ED00BB9012038BD016280
:105280008384C38400224264212084F84100A06BFF
:10529000124D8562A06B124DC562A06B114D056366
:1052A000A06B426322680432A06BFCF7DDFB23682D
:1052B0006FF040021A60226802F1140353E8003FC5
:1052C00043F08003143242E800310029F3D100207A
:1052D000D4E70220D2E70120D0E700BFEB5200085C
:1052E000535300085F530008704708B50346406AEF
:1052F0001B681B6813F0200F1AD10023C3840268B7
:1053000002F1140353E8003F23F08003143242E813
:1053100000310029F3D1026802F10C0353E8003F89
:1053200043F040030C3242E800310029F3D108BDBC
:10533000FFF7DAFFFBE708B50168CA6822F0400210
:10534000CA60202280F84120FFF7CEFF002008BD70
:10535000704708B5406AFFF7FBFF08BD704710B5FE
:10536000446A23685A6994F84130DBB2212B10D08B
:1053700023685A6902F0400294F84230DBB2222BD3
:1053800011D0636C43F01003636420462AF022FEC0
:1053900010BD02F08002002AEAD00023E3842046F8
:1053A000FFF772FDE4E7002AEBD00023E3852046F7
:1053B000FFF77AFDE5E708B5406A0023C385C3849B
:1053C0002AF008FE08BD704790F84230DBB2222B6D
:1053D00069D18368B3F5805F4FD0826AB3F5805F8F
:1053E00004D0002B56D10369002B53D103685B68AE
:1053F0001370836A01338362C38D9BB2013B9BB2FE
:10540000C385002B51D100B583B00268D36823F067
:105410002003D3600268D36823F48073D3600268EA
:10542000536923F001035361202380F842300023A5
:105430004363036B012B33D100230363026802F142
:105440000C0353E8003F23F010030C3242E8003114
:105450000029F3D103681A6812F0100F06D0002259
:1054600001921A6801925B680193019B818DFFF79D
:10547000AAFF002003B05DF804FB0269002AACD14A
:10548000826A03685B68C3F308031380836A02338C
:105490008362B1E703685B6803F07F031370A8E7DA
:1054A0002AF096FDE5E702207047002070470000D3
:1054B00010B582B0044602681368D068516913F0D1
:1054C0000F0F09D113F0200F0CD010F0200F09D0CE
:1054D0002046FFF779FF16E011F0010115D110F415
:1054E000907F12D1216B012979D013F0800F03D066
:1054F00010F0800F40F0138113F0400F03D010F034
:10550000400F40F0108102B010BD13F0010F06D023
:1055100010F4807F03D0626C42F00102626413F0E9
:10552000040F04D019B1626C42F00202626413F0FD
:10553000020F04D019B1626C42F00402626413F0ED
:10554000080F07D010F0200F00D119B1626C42F0A3
:1055500008026264626C002AD5D013F0200F02D0DA
:1055600010F0200F29D123685B6903F04003626CBF
:1055700012F0080F00D163B32046FFF795FC2368B3
:105580005B6913F0400F20D0226802F1140353E846
:10559000003F23F04003143242E800310029F3D1E8
:1055A000E36B73B1624A5A63E06BFCF7BBFA002805
:1055B000A9D0E06B436B9847A5E72046FFF704FFAF
:1055C000D1E720462AF006FD9DE720462AF002FD9D
:1055D00099E720462AF0FEFC0023636493E713F06A
:1055E000100F82D010F0100F3FF47FAF0023019313
:1055F0001368019353680193019B536913F0400FA3
:1056000051D0E26B13685B689BB2002B3FF47BAF19
:10561000A18D99427FF677AFE3859369202B37D030
:10562000226802F10C0353E8003F23F480730C322C
:1056300042E800310029F3D1226802F1140353E853
:10564000003F23F00103143242E800310029F3D176
:10565000226802F1140353E8003F23F040031432A0
:1056600042E800310029F3D1202384F8423000239E
:105670002363226802F10C0353E8003F23F0100378
:105680000C3242E800310029F3D1E06BFCF727FA35
:1056900002236363A18DE38D9BB2C91A89B22046B0
:1056A000FFF791FE2FE7A18DE38D9BB2C91A89B256
:1056B000E38D9BB2002B3FF426AF00293FF423AFCC
:1056C000226802F10C0353E8003F23F490730C327C
:1056D00042E800300028F3D1226802F1140353E8B5
:1056E000003F23F00103143242E800300028F3D1D8
:1056F000202384F8423000232363226802F10C0344
:1057000053E8003F23F010030C3242E80030002839
:10571000F3D1022363632046FFF755FEF3E62046EC
:10572000FFF7F0FBEFE62046FFF705FEEBE600BFD4
:10573000B753000808B5406A01234363036B012B8C
:1057400002D0FFF70BFE08BD818D4908FFF73BFE35
:10575000F9E708B50346406A1B681B6813F0200F81
:105760002BD10023C385026802F10C0353E8003FEC
:1057700023F480730C3242E800310029F3D102682F
:1057800002F1140353E8003F23F00103143242E80E
:1057900000310029F3D1026802F1140353E8003FFD
:1057A00023F04003143242E800310029F3D12023D2
:1057B00080F84230036B012B07D000234363036B57
:1057C000012B0FD02AF004FC08BD026802F10C0383
:1057D00053E8003F23F010030C3242E80031002967
:1057E000F3D1EAE7818DFFF7EEFDEDE730B583B049
:1057F000044613468162828500254564222280F892
:105800004220C26B1F489062E26B1F48D062E26B7D
:105810001E481063E26B556320680A46011DE06B69
:10582000FCF722F9019523681A6801925B680193DD
:10583000019B23695BB1226802F10C0353E8003F2E
:1058400043F480730C3242E800310029F3D122681E
:1058500002F1140353E8003F43F00103143242E81D
:1058600000310029F3D1226802F1140353E8003F0C
:1058700043F04003143242E800310029F3D1002004
:1058800003B030BD53570008355700085F53000878
:1058900008B590F84230DBB2202B08D149B10AB9E3
:1058A000012008BD00230363FFF7A0FFF9E70220F2
:1058B000F7E70120F5E700000B4B1B680B4AA2FB42
:1058C00003235B0A41F2883202FB03F31A46013BD1
:1058D0003AB1426B12F0800FF8D0C52383630020E9
:1058E00070474FF00040704700000020D34D621019
:1058F00084B00DF1040C8CE80E000B461343039AA0
:105900001343049A1343059A1343069A13434268B8
:1059100022F4FD4222F07F0213434360002004B0D2
:105920007047D0F8800070470B68C0F880300020C6
:1059300070470323036000207047006800F00300F5
:1059400070470B6883604B688A681343CA681343C7
:105950000A691343C26822F47F6222F00F021343E4
:10596000C360002070470069C0B2704714304058CF
:1059700070470B6843624B6883628B68CA68134345
:105980000A6913434A691343C26A22F0F7021343B8
:10599000C3620020704710B586B00446002301930F
:1059A0000293039304934FF48063059301A9FFF7D7
:1059B000C8FF2046FFF780FF06B010BD38B504468B
:1059C0000D46504B1B685049A1FB03135B0A03FBB8
:1059D00002F21346013A002B5DD0636B13F0450FC2
:1059E000F7D013F4006FF4D1636B13F0040F06D1FA
:1059F000636B13F0010F05D00120A0634DE004207C
:105A0000A0634AE0C523A3632046FFF7ACFFA8428A
:105A100001D0012041E000212046FFF7A7FF034607
:105A20003A481840C8B3002B38DB13F0804F38D108
:105A300013F0005F37D113F0805F36D113F0006FA1
:105A400036D113F0806F36D113F0807F36D113F446
:105A5000000F36D113F4800F36D113F4001F36D166
:105A600013F4801F36D113F4802F36D113F4003F86
:105A700036D113F4803F36D113F4004F36D113F4EE
:105A8000804F36D113F4005F36D113F0080F36D0B3
:105A90004FF4000001E04FF0004038BD4FF00070BF
:105AA000FBE74020F9E78020F7E74FF48070F4E748
:105AB0004FF40070F1E74FF48060EEE74FF40060C0
:105AC000EBE74FF48050E8E74FF40050E5E74FF480
:105AD0008040E2E74FF40040DFE74FF40030DCE7BE
