:020000040800F2
:1000000000000120B9160008D9140008DB1400080C
:10001000DD140008DF140008E114000800000000EF
:1000200000000000000000000000000031EA0208AB
:10003000E314000800000000D1EA020815EB0208F2
:100040000117000801170008011700080117000830
:100050000117000801170008E5140008011700083F
:100060000117000801170008011700080117000810
:100070000117000801170008011700080117000800
:1000800001170008011700080117000801170008F0
:10009000F1140008011700080117000801170008F3
:1000A00001170008011500080117000801170008D2
:1000B00001170008011700080117000801170008C0
:1000C00001170008011700080117000801170008B0
:1000D00001170008011700080117000801170008A0
:1000E0001115000801170008011700080117000882
:1000F0000117000801170008011700080117000880
:10010000011700081D150008011700080117000855
:10011000011700080117000801170008011700085F
:10012000011700080117000801170008011700084F
:1001300000000000000000000000000000000000BF
:1001400000000000000000000000000000000000AF
:10015000000000000000000000000000000000009F
:10016000000000000000000000000000000000008F
:10017000000000000000000000000000000000007F
:10018000000000000000000000000000000000006F
:10019000000000000000000000000000000000005F
:1001A000000000000000000000000000000000004F
:1001B000000000000000000000000000000000003F
:1001C000000000000000000000000000000000002F
:1001D000000000000000000000000000000000001F
:0401E0005FF8E0F1F3
:1001F00081F0004102E000BF83F0004330B54FEAD8
:1002000041044FEA430594EA050F08BF90EA020F44
:100210001FBF54EA000C55EA020C7FEA645C7FEAD7
:10022000655C00F0E2804FEA5454D4EB5555B8BFFA
:100230006D420CDD2C4480EA020281EA030382EA6B
:10024000000083EA010180EA020281EA0303362DFD
:1002500088BF30BD11F0004F4FEA01314FF4801CD0
:100260004CEA113102D0404261EB410113F0004FE2
:100270004FEA03334CEA133302D0524263EB430399
:1002800094EA050F00F0A780A4F10104D5F1200E37
:100290000DDB02FA0EFC22FA05F2801841F1000192
:1002A00003FA0EF2801843FA05F359410EE0A5F166
:1002B00020050EF1200E012A03FA0EFC28BF4CF097
:1002C000020C43FA05F3C01851EBE37101F000454D
:1002D00007D54FF0000EDCF1000C7EEB00006EEB5A
:1002E0000101B1F5801F1BD3B1F5001F0CD34908E4
:1002F0005FEA30004FEA3C0C04F101044FEA44523B
:1003000012F5800F80F09A80BCF1004F08BF5FEAC1
:10031000500C50F1000041EB045141EA050130BDA1
:100320005FEA4C0C404141EB0101013C28BFB1F5B3
:10033000801FE9D291F0000F04BF01460020B1FAFE
:1003400081F308BF2033A3F10B03B3F120020CDAD1
:100350000C3208DD02F1140CC2F10C0201FA0CF0AF
:1003600021FA02F10CE002F11402D8BFC2F1200C14
:1003700001FA02F120FA0CFCDCBF41EA0C019040CA
:10038000E41AA2BF01EB0451294330BD6FEA040413
:100390001F3C1CDA0C340EDC04F11404C4F12002FE
:1003A00020FA04F001FA02F340EA030021FA04F310
:1003B00045EA030130BDC4F10C04C4F1200220FA67
:1003C00002F001FA04F340EA0300294630BD21FAA5
:1003D00004F0294630BD94F0000F83F4801306BF6B
:1003E00081F480110134013D4EE77FEA645C18BF5F
:1003F0007FEA655C29D094EA050F08BF90EA020FF6
:1004000005D054EA000C04BF1946104630BD91EAED
:10041000030F1EBF0021002030BD5FEA545C05D1F0
:100420004000494128BF41F0004130BD14F580042F
:100430003CBF01F5801130BD01F0004545F0FE41A3
:1004400041F470014FF0000030BD7FEA645C1ABFD8
:10045000194610467FEA655C1CBF0B46024650EA0F
:10046000013406BF52EA033591EA030F41F400213B
:1004700030BD00BF90F0000F04BF0021704730B5C1
:100480004FF4806404F132044FF000054FF0000196
:1004900050E700BF90F0000F04BF0021704730B557
:1004A0004FF4806404F1320410F0004548BF40422C
:1004B0004FF000013EE700BF42004FEAE2014FEA81
:1004C00031014FEA02701FBF12F07F4393F07F4F5C
:1004D00081F06051704732F07F4208BF704793F05F
:1004E0007F4F04BF41F40021704730B54FF4607472
:1004F00001F0004521F000411CE700BF50EA010275
:1005000008BF704730B54FF000050AE050EA01021D
:1005100008BF704730B511F0004502D5404261EB8D
:1005200041014FF4806404F132045FEA915C3FF4CE
:10053000D8AE4FF003025FEADC0C18BF03325FEA6B
:10054000DC0C18BF033202EBDC02C2F1200300FA1C
:1005500003FC20FA02F001FA03FE40EA0E0021FA41
:1005600002F11444BDE600BF4FEA410212F5001249
:1005700015D211D56FF47873B3EB625212D94FEAEA
:10058000C12343F0004343EA505311F0004F23FAD4
:1005900002F018BF404270474FF00000704750EA29
:1005A000013005D111F0004008BF6FF000407047E6
:1005B0004FF00000704700BF53B94AB9002908BF87
:1005C00000281CBF4FF0FF314FF0FF3000F00CB897
:1005D000ADF1080C6DE904CE2FF0FEFBDDF804E070
:1005E000DDE9022304B07047704700BF80EA010CC8
:1005F0001CF0030F37D110F0030C20F0030021F0A2
:10060000030150F8042B08BF51F8043B0ED08CF0C6
:10061000030C6FF07F434FEACC0C23FA0CFC51F82B
:10062000043B42EA0C0243EA0C0300BFA2F1013C86
:100630009A4201BF2CEA020C1CF0803F50F8042BB8
:1006400051F8043BF2D04FEA02604FEA122201282F
:1006500028BFB0EB036F08BF1B0AF4D003F0FF0301
:10066000000EC01A704710F0030F0AD010F8012BCB
:1006700011F8013B012A28BF9A42F4D0A2EB0300F3
:1006800070474DF8045D50F8042B01F0030521F08C
:10069000030151F8043B022D26D04DD822F07F45AE
:1006A000B5EB132FA2F1013C2CEA020C0DD11CF08A
:1006B000803C08BF51F8043B0AD185EA0205B5EB3E
:1006C000036F0CD150F8042BE8E74FEA13235BE0EB
:1006D0003CF07F4C54D10B784FEA126554E04FEA5E
:1006E000126503F0FF034FE04FEA0245A2F1013C1F
:1006F0004FEA15452CEA020CB5EB134F18D11CF04C
:10070000803C08BF51F8043B07D185EA0205B5EBF0
:10071000034F09D150F8042BE6E75FEA0C4C2FD1C8
:100720000B884FEA12452FE04FEA03434FEA124588
:100730004FEA134328E000BF02F0FF05B5EB136F4B
:10074000A2F1013C2CEA020C0DD11CF0803C08BF48
:1007500051F8043B0AD185EA0205B5EB032F0AD113
:1007600050F8042BE8E74FEA13630DE012F0FF0F97
:1007700006D051F8043B4FEA122523F07F4303E0F3
:100780004FF0000020BC704705F0FF0203F0FF00AF
:10079000012828BF904204BF2D0A1B0AF4D0A2EB07
:1007A000000020BC704700BF844641EA000313F0FC
:1007B000030349D1403A23D30B6803604B6843607D
:1007C0008B688360CB68C3600B6903614B694361CD
:1007D0008B698361CB69C3610B6A03624B6A4362B5
:1007E0008B6A8362CB6AC3620B6B03634B6B43639D
:1007F0008B6B8363CB6BC36340304031403ADBD2B9
:1008000030320BD30B6803604B6843608B688360A6
:10081000CB68C36010301031103AF3D20C3205D3DC
:1008200051F8043B40F8043B043AF9D2043208D0B2
:10083000D2071CBF11F8013B00F8013B01D30B8824
:1008400003806046704700BF082A13D38B07B1D0DE
:1008500010F00303AED0C3F10403D21ADB071CBFB0
:1008600011F8013B00F8013BA4D331F8023B20F81A
:10087000023B9FE7043AD9D3013A11F8013B00F853
:10088000013BF9D20B7803704B7843708B788370FF
:100890006046704770B54FF0FF0C4CF4E06C1CEAFA
:1008A00011541DBF1CEA135594EA0C0F95EA0C0F66
:1008B00000F0DEF82C4481EA030621EA4C5123EAD9
:1008C0004C5350EA013518BF52EA033541F4801108
:1008D00043F4801338D0A0FB02CE4FF00005E1FBBB
:1008E00002E506F00042E0FB03E54FF00006E1FB05
:1008F00003569CF0000F18BF4EF0010EA4F1FF0448
:10090000B6F5007F64F5407404D25FEA4E0E6D4187
:1009100046EB060642EAC62141EA55514FEAC52098
:1009200040EA5E504FEACE2EB4F1FD0C88BFBCF514
:10093000E06F1ED8BEF1004F08BF5FEA500E50F1C5
:10094000000041EB045170BD06F0004646EA01018B
:1009500040EA020081EA0301B4EB5C04C2BFD4EBBD
:100960000C0541EA045170BD41F480114FF0000EB6
:10097000013C00F3AB8014F1360FDEBF002001F024
:10098000004170BDC4F10004203C35DA0C341BDC9E
:1009900004F11404C4F1200500FA05F320FA04F070
:1009A00001FA05F240EA020001F0004221F00041A4
:1009B00010EBD37021FA04F642EB06015EEA430E17
:1009C00008BF20EAD37070BDC4F10C04C4F1200547
:1009D00000FA04F320FA05F001FA04F240EA0200FA
:1009E00001F0004110EBD37041F100015EEA430ECB
:1009F00008BF20EAD37070BDC4F1200500FA05F2EB
:100A00004EEA020E20FA04F301FA05F243EA020369
:100A100021FA04F001F0004121FA04F220EA020078
:100A200000EBD3705EEA430E08BF20EAD37070BDBE
:100A300094F0000F0FD101F00046400041EB01019E
:100A400011F4801F08BF013CF7D041EA060195F080
:100A5000000F18BF704703F00046520043EB03033A
:100A600013F4801F08BF013DF7D043EA0603704727
:100A700094EA0C0F0CEA135518BF95EA0C0F0CD032
:100A800050EA410618BF52EA4306D1D181EA030178
:100A900001F000414FF0000070BD50EA410606BF72
:100AA0001046194652EA430619D094EA0C0F02D1B7
:100AB00050EA013613D195EA0C0F05D152EA0336FC
:100AC0001CBF104619460AD181EA030101F000411A
:100AD00041F0FE4141F470014FF0000070BD41F063
:100AE000FE4141F4780170BD70B54FF0FF0C4CF43D
:100AF000E06C1CEA11541DBF1CEA135594EA0C0F5C
:100B000095EA0C0F00F0A7F8A4EB050481EA030EA8
:100B100052EA03354FEA013100F088804FEA03338F
:100B20004FF0805545EA131343EA12634FEA02225D
:100B300045EA111545EA10654FEA00260EF000411E
:100B40009D4208BF964244F1FD0404F5407402D270
:100B50005B084FEA3202B61A65EB03055B084FEA01
:100B600032024FF480104FF4002CB6EB020E75EBFE
:100B7000030E22BFB61A754640EA0C005B084FEA26
:100B80003202B6EB020E75EB030E22BFB61A7546A3
:100B900040EA5C005B084FEA3202B6EB020E75EBEE
:100BA000030E22BFB61A754640EA9C005B084FEA66
:100BB0003202B6EB020E75EB030E22BFB61A754673
:100BC00040EADC0055EA060E18D04FEA051545EA62
:100BD00016754FEA06164FEAC30343EA52734FEA0B
:100BE000C2025FEA1C1CC0D111F4801F0BD141EA84
:100BF00000014FF000004FF0004CB6E711F4801FE9
:100C000004BF01430020B4F1FD0C88BFBCF5E06FC8
:100C10003FF6AFAEB5EB030C04BFB6EB020C5FEAD8
:100C2000500C50F1000041EB045170BD0EF0004E2D
:100C30004EEA113114EB5C04C2BFD4EB0C0541EA5F
:100C4000045170BD41F480114FF0000E013C90E65C
:100C500045EA060E8DE60CEA135594EA0C0F08BF20
:100C600095EA0C0F3FF43BAF94EA0C0F0AD150EA1F
:100C700001347FF434AF95EA0C0F7FF425AF1046B2
:100C800019462CE795EA0C0F06D152EA03353FF4DA
:100C9000FDAE1046194622E750EA410618BF52EA57
:100CA00043067FF4C5AE50EA41047FF40DAF52EA2B
:100CB00043057FF4EBAE12E74FF0FF3C06E000BFC8
:100CC0004FF0010C02E000BF4FF0010C4DF804CDD5
:100CD0004FEA410C7FEA6C5C4FEA430C18BF7FEA95
:100CE0006C5C1BD001B050EA410C0CBF52EA430CC3
:100CF00091EA030F02BF90EA020F0020704710F143
:100D0000000F91EA030F58BF994208BF90422CBFD1
:100D1000D8176FEAE37040F0010070474FEA410CCA
:100D20007FEA6C5C02D150EA013C07D14FEA430CE8
:100D30007FEA6C5CD6D152EA033CD3D05DF8040B59
:100D4000704700BF8446104662468C46194663468B
:100D500000E000BF01B5FFF7B7FF002848BF10F162
:100D6000000F01BD4DF808EDFFF7F4FF0CBF0120A7
:100D700000205DF808FB00BF4DF808EDFFF7EAFF23
:100D800034BF012000205DF808FB00BF4DF808EDDE
:100D9000FFF7E0FF94BF012000205DF808FB00BFD3
:100DA0004DF808EDFFF7CEFF94BF012000205DF85D
:100DB00008FB00BF4DF808EDFFF7C4FF34BF01206A
:100DC00000205DF808FB00BF4FEA410C7FEA6C5C35
:100DD00002D150EA013C0AD14FEA430C7FEA6C5C35
:100DE00002D152EA033C02D14FF0000070474FF0AD
:100DF000010070470348044B834202D0034B03B108
:100E0000184770478809002088090020000000006A
:100E10000548064B1B1AD90F01EBA301491002D05C
:100E2000034B03B118477047880900208809002048
:100E30000000000010B5064C237843B9FFF7DAFF35
:100E4000044B13B10448AFF300800123237010BD9D
:100E500088090020000000000066030808B5054B63
:100E60001BB105490548AFF30080BDE80840FFF716
:100E7000CFBF00BF000000008C09002000660308FF
:100E800008B52EF039FD2EF0EFFA0B4B18602EF05E
:100E900075FF07F0CDFF05F0E1F905F0F5FA05F073
:100EA00085FA064B18682EF059FA1FF0C5FB05218C
:100EB00001482EF0E7FBF8E7A8090020000C00200D
:100EC00008B51DF07FF905F0F9FA08BD034B036082
:100ED000034B0B6080231360704700BFAC0B0020F6
:100EE000AC09002010B58EB0134C0DF11C0CA646B9
:100EF000BEE80F00ACE80F009EE807008CE8070092
:100F0000002107A82DF0D5FC0C4B1860EE4604F12B
:100F10001C0CBCE80F00AEE80F009CE807008EE850
:100F20000700002168462DF0C4FC054B18602EF028
:100F30006DFC0EB010BD00BF18660308040C002045
:100F4000000C002010B52DF085FDFFF7B9FF24F04F
:100F5000DFFC0446154924F0E7FC00231A4609216A
:100F6000204608F0BBFE2DF097FD41F658302EF0DC
:100F7000DBFB2DF06FFD29F0B9FC0D49204624F074
:100F8000D3FC2DF089FD41F658302EF0CDFB29F031
:100F9000ADFC084802F09AFD0328FAD02EF0ACFC14
:100FA00000224021044800F020FE10BD70660308B6
:100FB0007C660308080C00200014014008B52EF0E0
:100FC00053FA084B1860FFF7BDFF40F6B8302EF01B
:100FD000ABFB00202EF052F9052102482EF052FB07
:100FE000FAE700BFA40900202DE9F04788B00024EB
:100FF0000494059406940794484B9A6942F01002B1
:101000009A619A6902F010020092009A9A6942F07D
:1010100004029A619A6902F004020192019A9A69A3
:1010200042F020029A619A6902F020020292029A2A
:101030009A6942F008029A619B6903F008030393DE
:10104000039B374F22461421384600F0CEFDDFF8CF
:10105000D48022464021404600F0C7FDDFF8C8A0FA
:1010600001224021504600F0C0FDDFF8C09001226F
:101070002021484600F0B9FD4FF4005304932C4E54
:101080000596069404A9404600F08CFC01250495C1
:101090000596069404A9384600F084FC14230493B2
:1010A000059506940226079604A9384600F07AFCB6
:1010B000082304930594069404A9384600F072FCB2
:1010C0004027049705950694079604A9404600F02A
:1010D00069FC049705950694079604A9504600F00C
:1010E00061FC2023049305950694079604A94846BD
:1010F00000F058FC22460521062000F081FB062066
:1011000000F08EFB22460521282000F079FB2820E4
:1011100000F086FB08B0BDE8F08700BF0010024079
:10112000000801400010014000140140000C014083
:101130000000311010B582B00023009301AA694667
:101140002DF0C3FAC8B9019BD3F81412023993F8F1
:10115000024204FB01F1009B03FB04F4B1F5A04F34
:1011600005D26208490807482FF04EFB06E0E20A64
:10117000C90A05482FF048FB00E00024204602B0D1
:1011800010BD00BFA0660308C466030810B504467E
:101190000268074B9A4204D02268054B9A4203D05A
:1011A00010BD00F0C1FAF7E701201DF0D1F8F7E714
:1011B000002C014072B6FEE700B597B0282200214E
:1011C0000CA82FF0D1FB00230793089309930A93EF
:1011D0000B930193029303930493059306930122C7
:1011E0000C924FF480330D931092022213921493B9
:1011F0004FF4E01315930CA801F0F8FCC0B90F23CD
:10120000079302210891002309934FF480620A9208
:101210000B9307A801F02AFF60B910230193002364
:10122000069301A802F01CF830B917B05DF804FB72
:10123000FFF7C0FFFFF7BEFFFFF7BCFF08B500F0E8
:1012400061FAFFF7B9FFFFF7CFFE00F07DF800F07D
:10125000CDF900F01BF804F059FF002207490848B7
:101260002CF03CFC014607482FF0CEFA0648FFF769
:1012700061FFFFF737FE2DF017FBFEE7A80F0020F8
:10128000780D0020EC660308F0660308064B074A59
:101290001A6000225A609A60DA601A614FF4804244
:1012A0005A6102229A617047080C002000800140B8
:1012B00030B589B000230493059306930793026821
:1012C0001E4B9A4201D009B030BD03F510435A6954
:1012D00042F480625A615A6902F480620192019A72
:1012E0009A6942F010029A619A6902F01002029221
:1012F000029A9A6942F020029A619B6903F02003E6
:101300000393039B4FF4F85304930225059503249C
:10131000079404A90A4800F045FB042304930595AB
:10132000079404A9074800F03DFB00220521312065
:1013300000F066FA312000F073FAC4E70080014043
:10134000001001400014014008B50E480E4B036028
:101350004FF48273436000238360C3600361436181
:101360004FF4007282612822C26103624362836289
:101370000A23C36202F09AFF00B908BDFFF71AFF03
:10138000FBE700BF8C0C00200030014000B587B0A7
:10139000002302930393049305930268124B9A422D
:1013A00002D007B05DF804FB03F560439A6942F48C
:1013B00080529A619A6902F480520092009A9A6966
:1013C00042F004029A619B6903F004030193019BBC
:1013D000A0230293022303930323059302A9034846
:1013E00000F0E0FADDE700BF0030014000080140F6
:1013F00000B583B0114B9A6942F001029A619A6973
:1014000002F001020092009ADA6942F08052DA6139
:10141000DB6903F080530193019B00220F216FF0E1
:10142000010000F0EDF9064A536823F0E06343F051
:101430000073536003B05DF804FB00BF001002406E
:101440000000014030B589B004461E4B9A6942F451
:1014500000629A619B6903F400630193019B02A9F6
:1014600003A801F0DFFE01F0CDFE174AA2FB002326
:101470009B0C013B1548164A026040F2E732C260FD
:101480004360002303618360836103F091F90546A3
:1014900010B1284609B030BD0C4803F03FF80546AE
:1014A0000028F6D1192000F0BBF90F2C01D9012535
:1014B000EFE700222146192000F0A2F9054B1C603D
:1014C000E7E700BF0010024083DE1B43E40C00206E
:1014D000002C014008000020FEE7FEE7FEE7FEE7E3
:1014E000FEE7704708B5012000F086FB08BD00004C
:1014F00008B5024801F005F908BD00BF84C000200E
:1015000008B5024803F04AF808BD00BFE40C00200B
:1015100008B54FF4005000F06FFB08BD08B5024855
:1015200002F068FD08BD00BF080C002001207047D4
:1015300008B52FF0CFFA162303604FF0FF3008BD37
:1015400008B54FF0FF31FFF7F3FFFEE770B50C462B
:101550001646002506E0AFF30080214601F8010B96
:1015600001350C46B542F6DB304670BD70B50C4611
:101570001646002504E014F8010B00F08DF8013543
:10158000B542F8DB304670BD4FF0FF3070474FF486
:1015900000534B60002070470120704700207047C7
:1015A00010B503460C4A0D490D48006840B10C487F
:1015B00000680344521A934206D8094A136010BDCA
:1015C0000748084C0460F2E72FF084FA0C2303600C
:1015D0004FF0FF30F3E700BF0000012000100000D3
:1015E0002C0D002090C600207047000008B50A4866
:1015F0000A4B03604FF4E133436000238360C36010
:1016000003610C2242618361C36103F07DF900B97B
:1016100008BDFFF7CFFDFBE7300D0020003801408B
:1016200010B586B0002302930393049305930268D8
:10163000174B9A4201D006B010BD03F558439A6982
:1016400042F480429A619A6902F480420092009AC0
:101650009A6942F004029A619B6903F004030193C2
:10166000019B4FF40073029302230393032305931A
:10167000084C02A9204600F095F94FF480630293CC
:1016800000230393049302A9204600F08BF9D2E7CC
:10169000003801400008014000B583B001904FF6CA
:1016A000FF73012201A9034803F05DF9019803B01B
:1016B0005DF804FB300D00200C480D490D4A002355
:1016C00002E0D458C4500433C4188C42F9D30A4AF7
:1016D0000A4C002301E013600432A242FBD3FFF75F
:1016E00083FF2FF0FDF9FFF7A9FD704700000020F0
:1016F00088090020E8350608880900208CC60020EB
:10170000FEE7000008B5074A136843F010031360B2
:10171000032000F063F80420FFF794FEFFF768FE53
:10172000002008BD00200240034A1168034B1B78CB
:101730000B441360704700BF740D002004000020AC
:10174000014B1868704700BF740D002038B504467F
:10175000FFF7F6FF0546B4F1FF3F02D0044B1B78BC
:101760001C44FFF7EDFF401BA042FAD338BD00BF79
:1017700004000020002808DB0901C9B200F1604024
:1017800000F5614080F80013704700F00F00090178
:10179000C9B2014B1954704714ED00E000B500F0D8
:1017A0000700C0F1070CBCF1040F28BF4FF0040C78
:1017B000031D062B0FD9C31E4FF0FF3E0EFA0CF08F
:1017C00021EA000199400EFA03FE22EA0E0241EAE4
:1017D00002005DF804FB0023EEE70000074AD3682F
:1017E00023F4E0631B041B0C000200F4E0600343DD
:1017F00043F0BF6343F40033D360704700ED00E073
:1018000010B50446054BD868C0F30220FFF7C6FFA9
:1018100001462046FFF7AEFF10BD00BF00ED00E01F
:10182000002807DB00F01F02400901239340024A11
:1018300042F82030704700BF00E100E008B590F8A2
:101840002130022B03D004238363012008BD0268EA
:10185000136823F00E0313600268136823F001037A
:10186000136003684B4A93424ED9783A934224D08E
:101870001432934230D0143293422FD01432934218
:101880002FD0143293422FD0143293422FD01432DF
:1018900093422FD002F5627293422ED014329342BB
:1018A0002DD0143293422CD01432934202D04FF4F4
:1018B000803203E04FF4805200E00122364B5A6040
:1018C000012380F82130002380F82030436B002B67
:1018D0005ED098470020B9E71022EFE74FF48072FE
:1018E000ECE74FF48052E9E74FF48032E6E74FF43B
:1018F0008012E3E74FF08072E0E70122DEE710227A
:10190000DCE74FF48072D9E7244A934224D01432A2
:10191000934225D01432934224D01432934224D0DF
:101920001432934224D01432934224D0143293427E
:1019300024D002F56272934223D01432934222D013
:101940001432934221D01432934202D04FF48032A9
:1019500003E04FF4805200E00122114B5A60AFE7E0
:101960001022FAE74FF48072F7E74FF48052F4E761
:101970004FF48032F1E74FF48012EEE74FF08072BF
:10198000EBE70122E9E71022E7E74FF48072E4E792
:1019900000205BE780000240000402400800024093
:1019A0000000024070B582B00024A446ACE0854D32
:1019B000AB4210D007D9844DAB420CD005F5803531
:1019C000AB4208D013E0A5F58015AB4203D005F576
:1019D0007025AB4207D18B68002B5FD0012B58D00C
:1019E0004261082403E0A5F58015AB42F3D0BEF1B7
:1019F000FF0F55D806464FEA8C0233680F259540F5
:101A000023EA050304FA02F2134333604B6813F030
:101A1000805F77D06D4B9A6942F001029A619B69B1
:101A200003F001030193019B4FEA9C02951C684B54
:101A300053F825600CF00305AD000F23AB4026EAF8
:101A40000306644B984232D003F58063984200F05D
:101A5000978003F58063984200F0948003F58063DB
:101A6000984200F0918003F58063984200F08E80E8
:101A700003F58063984218D0062319E0CC68B6E7D6
:101A8000CC680434B3E7CC680834B0E7CC680C34D5
:101A9000ADE702610824AAE70024A8E70424A6E72A
:101AA000061DACF108029200A7E7052300E0002321
:101AB000AB4033430232464D45F822304B6813F4B5
:101AC000803F65D0444A136843EA0E0313604B68B5
:101AD00013F4003F62D0404A536843EA0E03536058
:101AE0004B6813F4801F5FD03B4A936843EA0E03B0
:101AF00093604B6813F4001F5CD0374AD36843EA05
:101B00000E03D3600CF1010C0B6833FA0CF257D0C2
:101B1000012202FA0CF203EA020E32EA0303F1D1C7
:101B20004B68122B3FF643AF122B3FF660AF01A577
:101B300055F823F0D71900087D1A0008871A000805
:101B4000991A0008EF190008EF190008EF190008AA
:101B5000EF190008EF190008EF190008EF19000845
:101B6000EF190008EF190008EF190008EF19000835
:101B7000EF190008EF190008811A00088D1A0008F3
:101B8000012395E7022393E7032391E704238FE7DB
:101B9000114A136823EA0E03136098E70E4A53684C
:101BA00023EA0E0353609BE70B4A936823EA0E0374
:101BB00093609EE7084AD36823EA0E03D360A1E747
:101BC00002B070BD00002210000031100010024071
:101BD00000000140000801400004014083681942F0
:101BE00001D001207047002070470AB101617047A1
:101BF000090401617047000008B5054B5B690342A9
:101C000000D108BD024B586104F054FCF9E700BF55
:101C10000004014038B512F4804F44D00468B4F891
:101C200050309BB291F800C003EBCC03023304EBBD
:101C30004304B4F80044C4F309048B69A34228D3D5
:101C40001B1B8B618B697BB9056835F82C309BB207
:101C500023F4804323F0700383F4005343F40043E0
:101C600043F0800325F82C3012F0400F0ED00268AC
:101C70000D7832F825309BB223F4E04323F0700353
:101C800043F4004343F0C00322F8253024B9204632
:101C900038BD00238B61D5E723460A89496900686E
:101CA00004F01BFAF3E70468B4F850309BB291F8E3
:101CB00000C003EBCC03063304EB4304B4F8004448
:101CC000C4F309048B69A3422FD31B1B8B618B695F
:101CD0007BB9056835F82C309BB223F4804323F0A0
:101CE000700383F4005343F4004343F0800325F86A
:101CF0002C3012F0400F0FD1026891F800C032F87A
:101D00002C309BB223F4E04323F0700343F40043F0
:101D100043F0C00322F82C30002CB8D023464A8967
:101D20004969006804F0D9F9B1E700238B61CEE777
:101D300070B586B0002800F08580044690F8A9327E
:101D4000EBB1032384F8A932206803F00CFA25468E
:101D500055F8106BEC460FCDACE80F002B68CCF8B3
:101D60000030231D0ECB304603F0EDF9054658B187
:101D7000022384F8A9320125284606B070BD80F8F8
:101D8000A8322DF0E5FEDCE70021206803F0F5F92C
:101D90002B461AE05A1C02EB820104EBC101012020
:101DA000487002EB820104F8313003EB830104EB4D
:101DB000C101CB8602EB820C04EBCC0C00208CF82A
:101DC00003008863C8630864D3B261688B42E1D3BF
:101DD00016E005EB850304EBC303002283F86921B9
:101DE00083F8685183F86B21C3F87821C3F87C210C
:101DF00005EB850304EBC303C3F880210135EDB285
:101E0000A942E6D8254655F8106BEC460FCDACE854
:101E10000F002B68CCF80030231D0ECB304603F0AA
:101E2000AEF9054620B1022384F8A9320125A3E7C3
:101E3000002384F82430012384F8A932206803F0B9
:101E4000D8FC99E7012597E738B590F8A832012B1F
:101E500011D00446012580F8A852006803F07AF9F1
:101E6000294620462DF089FF206803F0C0FC0020A1
:101E700084F8A80238BD0220FCE770B505460C4680
:101E8000164612F0400F00F00D810268B2F8503093
:101E90009BB2097803EBC103023302EB4302B2F8B1
:101EA0000024C2F30902A369934252D99B1AA36189
:101EB000A369002B6AD16378002B4DD12B68B3F84E
:101EC000502092B2134403EB0113B3F8042492B2EE
:101ED00022F4F84292B2A3F80424B3F804246FEA7F
:101EE00042426FEA524292B2A3F804242B6862780D
:101EF000002A3ED1B3F8502092B21344227803EB6B
:101F00000213B3F80C2492B222F4F84292B2A3F86E
:101F10000C24B3F80C246FEA42426FEA524292B2A8
:101F2000A3F80C24217828462DF046FE16F4804FA5
:101F300041D02A68217832F821309BB223F4E04363
:101F400023F0700343F4404343F0800322F8213030
:101F500031E00023A361ABE7012BC7D12B68B3F8B5
:101F6000502092B2134403EB01130022A3F804247F
:101F7000BCE7012AD6D1B3F8502092B2134422789C
:101F800003EB02130022A3F80C24CBE716F4804FD6
:101F90000DD0286830F821309BB223F4E04323F0C1
:101FA000700343F4404343F0800320F8213094F859
:101FB0002430012B12D02A68217832F821309BB2CC
:101FC00023F4E04323F0400383F0300343F4004361
:101FD00043F0800322F82130002070BD6369134470
:101FE0006361E3691344E361216A236999421FD362
:101FF000C91A21626278002A3FD12A68B2F85010CB
:1020000089B20A44217802EB0112EBB9B2F8041448
:1020100089B221F4F84189B2A2F80414B2F8041488
:102020006FEA41416FEA514189B2A2F8041426E0F7
:1020300021B9002384F824301346DBE7002384F819
:10204000243023620B46D5E73E2B09D8590813F0FC
:10205000010F00D00131890289B2A2F804140EE008
:10206000590913F01F0F00D101396FEAC1616FEAFE
:10207000514189B2A2F8041401E0012A06D09BB2B2
:1020800022896169286803F0BCFB94E72A68B2F8EA
:10209000501089B20A44217802EB011299B2A2F8D9
:1020A0000414ECE70268B2F850309BB2097803EBF5
:1020B000C103063302EB4302B2F80024C2F3090263
:1020C000A369934253D39B1AA361A369002B6BD1DD
:1020D0006378002B4ED12B68B3F8502092B2134492
:1020E00003EB0113B3F8042492B222F4F84292B243
:1020F000A3F80424B3F804246FEA42426FEA524280
:1021000092B2A3F804242B686278002A3FD1B3F876
:10211000502092B21344227803EB0213B3F80C243C
:1021200092B222F4F84292B2A3F80C24B3F80C2431
:102130006FEA42426FEA524292B2A3F80C2421782D
:1021400028462DF039FD16F4804F7FF434AF2A680D
:10215000217832F821309BB223F4E04323F070035E
:1021600043F4404343F0800322F8213023E7002367
:10217000A361AAE7012BC6D12B68B3F8502092B215
:10218000134403EB01130022A3F80424BBE7012A44
:10219000D5D1B3F8502092B21344227803EB021346
:1021A0000022A3F80C24CAE716F4804F0DD128684A
:1021B00030F821309BB223F4E04323F0700343F462
:1021C000404343F0800320F8213094F82430012B61
:1021D0007FF4F1AE636913446361E3691344E3611F
:1021E000216A236999421FD3C91A21622A6861783A
:1021F00000293ED1B2F8501089B20A44217802EB8E
:102200000112EBB9B2F80C1489B221F4F84189B289
:10221000A2F80C14B2F80C146FEA41416FEA514174
:1022200089B2A2F80C1426E021B9002384F82430E6
:102230001346DBE70023236284F824300B46D5E7FE
:102240003E2B09D8590813F0010F00D00131890243
:1022500089B2A2F80C140EE0590913F01F0F00D137
:1022600001396FEAC1616FEA514189B2A2F80C14D9
:1022700001E0012906D09BB262896169286803F0F8
:10228000C0FA98E6B2F8501089B20A44217802EBFD
:10229000011299B2A2F80C14EDE72DE9F0410546C0
:1022A0002868B0F8443013F4004F00F01382B0F8FF
:1022B0004440A3B214F00F0440F0D88013F0100F84
:1022C00061D003889AB213F4006F40F0938012F447
:1022D000004FE5D0038823F070031B051B0D43F06E
:1022E000800303802868B0F850309BB295F86821CD
:1022F00003EBC203063300EB4303B3F80034C3F32C
:102300000903C5F884318BB1D5F87C1171B1B5F8EA
:102310006E2103F0E2FED5F87C31D5F88421134418
:10232000C5F87C31002128462DF03AFC2B681A882C
:1023300012F4006FB4D1B3F8502092B21344D5F820
:102340007821002A79D1B3F80C2492B222F4F84211
:1023500092B2A3F80C24B3F80C246FEA42426FEA5D
:10236000524292B2A3F80C242A6813889BB223F439
:10237000804323F0700383F4405343F4004343F05D
:10238000800313808CE703889BB223F4E14323F09E
:1023900070036FEA43436FEA53439BB203802A689A
:1023A000B2F850309BB295F8281003EBC10302330A
:1023B00002EB4302B2F80034C3F309036B64EA6B27
:1023C0001A44EA63002128462DF0F6FB95F82430E4
:1023D000002B3FF465AF2B6C002B7FF461AF95F8B9
:1023E00024302A6843F08003A2F84C30002385F89B
:1023F000243055E7B0F850309BB295F8682103EBD4
:10240000C203063300EB4303B3F80034C3F30903FC
:10241000C5F88431B5F86E2105F52C7103F05DFE29
:102420002A68138823F070031B051B0D43F08003FB
:10243000138028462DF0ACFB32E73E2A09D851081C
:1024400012F0010F00D001318A0292B2A3F80C24DD
:102450008AE7510912F01F0F00D101396FEAC162FA
:102460006FEA524292B2A3F80C247DE730F8243090
:102470009EB213F4004F4FD116F0800F3FF410AF0F
:10248000621C02EB820105EBC101286830F82430A0
:102490009BB223F4E14323F070036FEA43436FEAF6
:1024A00053439BB220F82430CB78032B07D033B1B1
:1024B000022B40F00A8116F4807F40F006812868E4
:1024C000B0F850309BB2621C02EB820215F8326009
:1024D00003EBC603023300EB4303B3F80034C3F34A
:1024E000090304EB840205EBC202126C9A4240F22B
:1024F000D48004EB840705EBC707D21A3A6404EBD7
:10250000840205EBC202126C002A40F0CD803146F5
:1025100028462DF051FBC3E630F8243023F0700339
:102520001B051B0D43F0800320F8243004EB8401CD
:10253000C90001F5B47105EB010804EB840305EB58
:10254000C30393F87431002B42D12868B0F850309F
:102550009BB204EB840205EBC20292F8682103EB04
:10256000C203063300EB4303B3F80074C7F3090753
:1025700017BB04EB840305EBC303D3F884213A446F
:10258000C3F88421D3F87C213A44C3F87C21D3F8E2
:1025900080313BB104EB840305EBC303D3F87831FE
:1025A0009F4275D204EB840305EBC30393F86811D3
:1025B00028462DF0F5FA5FE704EB840105EBC10135
:1025C0003B46B1F86E21D1F87C1103F086FDD0E7CF
:1025D00004EB840305EBC30393F86B31022B35D076
:1025E000296804EB840205EBC20292F8680131F815
:1025F00020309BB223F4E04323F0700343F4004304
:1026000043F0C00321F82030286892F8682130F8A0
:10261000223013F4804F20D0B0F850309BB203EB3F
:10262000C203023300EB4303B3F80074C7F3090796
:10263000002F9ED004EB840105EBC1013B46B1F8AD
:102640007021D1F87C1103F048FD92E732464146F3
:102650002846FFF7DFFA07468BE7B0F850309BB209
:1026600003EBC203063300EB4303B3F80074C7F374
:102670000907002F3FF47DAF04EB840105EBC10196
:102680003B46B1F87221D1F87C1103F026FD70E7CA
:102690004146286803F0C8F8EEE604EB840205EB37
:1026A000C202002717642AE704EB840205EBC2028A
:1026B000D66B1E44D663526C04EB840405EBC40451
:1026C0001344636403F0B0F8EAE532462846FFF7A6
:1026D000D4FBE5E50020BDE8F08190F8A832012B9D
:1026E0000DD010B50446012380F8A83280F82410DC
:1026F000006803F076F8002084F8A80210BD0220DC
:10270000704710B584B00446006803F074F810F404
:10271000004F47D1206803F06EF810F4806F45D168
:10272000206803F068F810F4804F08D02268B2F8EF
:1027300044309BB223F480439BB2A2F8443020681B
:1027400003F059F810F4005F08D02268B2F8443062
:102750009BB223F400539BB2A2F84430206803F0EC
:102760004AF810F4805F32D1206803F044F810F486
:10277000006F78D1206803F03EF810F4007F40F03D
:102780009D80206803F037F810F4807F08D022681D
:10279000B2F844309BB223F480739BB2A2F8443069
:1027A00004B010BD2046FFF778FDB3E72268B2F809
:1027B00044309BB223F480639BB2A2F8443020469D
:1027C0002DF00BFA00212046FFF787FFA8E72268CB
:1027D000B2F840309BB223F004039BB2A2F8403021
:1027E0002268B2F840309BB223F008039BB2A2F8F3
:1027F000403020462DF014FA2268B2F844309BB2E3
:1028000023F480539BB2A2F84430ADE7226832F83B
:10281000231004AA02EB430222F8101C0133DBB29E
:10282000072BF3D92268B2F840309BB243F0010382
:10283000A2F840302268B2F840309BB223F0010386
:102840009BB2A2F840302368B3F8442012F4806FA2
:10285000F9D0B3F8442092B222F4806292B2A3F885
:10286000442000230BE00023DAE7226804A901EBEF
:10287000430131F8101C22F823100133DBB2072B7F
:10288000F3D92268B2F840309BB243F00803A2F8B3
:1028900040302268B2F844309BB223F400639BB20C
:1028A000A2F844302268B2F840309BB243F00403EF
:1028B000A2F8403020462DF0A3F95BE72268B2F879
:1028C00044309BB223F400739BB2A2F844302046FC
:1028D0002DF07DF955E710B504468C4611F0800FB8
:1028E0002AD101F0070000EB8001C90001F5B47E98
:1028F00004EB0E0100EB800004EBC0004FF0000E73
:1029000080F869E10CF0070C81F800C00A61CB7017
:102910004A780AB1A1F80EC0022B19D094F8A83257
:10292000012B18D0012384F8A832206802F03CFC67
:10293000002084F8A80210BD01F00700013000EB70
:10294000800104EBC1014FF0010E81F801E0D9E7ED
:1029500000230B71E2E70220EDE710B504460B46B9
:1029600011F0800F1FD101F0070202EB8201C900B4
:1029700001F5B471014402EB820200EBC2020020B7
:1029800082F8690103F007030B7094F8A832012B59
:1029900013D0012384F8A832206802F0C1FD002082
:1029A00084F8A80210BD01F00702013202EB820197
:1029B00000EBC10101204870E4E70220F2E710B506
:1029C00001F0070404EB8401C90001F5B47101446E
:1029D00004EB840C00EBCC0CCCF87C21CCF88031DF
:1029E0000023CCF884318CF869318CF8684124B923
:1029F000006802F019FF002010BD006802F014FF0B
:102A0000F9E701F0070101EB810100EBC100D0F80B
:102A10008401704710B501F0070404F1010C0CEBC0
:102A20008C0100EBC10104EB840E00EBCE0ECEF85E
:102A30003C20CEF8403001228EF84C20CEF84830B1
:102A40000023CEF844304A700CEB8C0C00F83C406C
:102A500024B9006802F0E8FE002010BD006802F012
:102A6000E3FEF9E738B501F007054268954231D831
:102A700004460B4611F0800F1ED101EB8101C90005
:102A800001F5B471014403EB830300EBC30300229F
:102A900083F8692101238B700D7094F8A832012B03
:102AA0001AD0012384F8A832206802F024FE5DB118
:102AB000002084F8A80238BD6B1C03EB830100EBF7
:102AC000C10101224A70E5E704F52C71206802F08B
:102AD00096FEEDE70120EEE70220ECE70B4601F061
:102AE0000F014268914230D810B5044613F0800FB0
:102AF00021D103F0070202EB8201C90001F5B47194
:102B0000014402EB820200EBC202002082F869015C
:102B100000228A7003F007030B7094F8A832012B8F
:102B200015D0012384F8A832206802F009FE0020A5
:102B300084F8A80210BD03F00702013202EB820103
:102B400000EBC10101204870E2E70120704702203C
:102B5000F0E790F8A832012B14D010B504460123F9
:102B600080F8A83211F0800F06D1006802F01AFB3D
:102B7000002084F8A80210BD01F00701006802F0EF
:102B80000FFBF5E70220704711F0800F0BD001F02A
:102B90000701013101EB810100EBC10052B9027361
:102BA000C3800020704701EB8101C90001F5B471B9
:102BB0000844F3E70122027303811B0C4381F0E711
:102BC00082B0084B1B68084AA2FB03235B0A00FB88
:102BD00003F3019300BF019B5A1E0192002BF9D110
:102BE00002B0704700000020D34D6210002800F0B2
:102BF000F18170B582B00446036813F0010F2CD048
:102C0000994B5B6803F00C03042B1DD0964B5B685B
:102C100003F00C03082B12D06368B3F5803F41D05A
:102C2000002B55D103F1804303F504331A6822F4D5
:102C300080321A601A6822F480221A6037E08A4BC8
:102C40005B6813F4803FE7D0874B1B6813F4003FA9
:102C500003D06368002B00F0BF81236813F0020FDC
:102C600075D0814B5B6813F00C0F5FD07E4B5B68B7
:102C700003F00C03082B54D02369002B00F08A804A
:102C80007A4B01221A60FEF75BFD0546764B1B6806
:102C900013F0020F75D1FEF753FD401B0228F5D942
:102CA00003209EE1704A136843F480331360636825
:102CB00043B3FEF745FD05466B4B1B6813F4003F1D
:102CC000CBD1FEF73DFD401B6428F5D9032088E1F8
:102CD000B3F5A02F09D0644B1A6822F480321A6031
:102CE0001A6822F480221A60E1E703F18043A3F519
:102CF0003C331A6842F480221A601A6842F4803227
:102D00001A60D4E7FEF71CFD0546574B1B6813F409
:102D1000003FA2D0FEF714FD401B6428F5D9032024
:102D20005FE1514B5B6813F4803FA5D14E4B1B68AC
:102D300013F0020F03D02369012B40F04F814A4A60
:102D4000136823F0F803616943EAC1031360236841
:102D500013F0080F33D0A369002B5CD0434B012242
:102D6000C3F88024FEF7ECFC05463F4B5B6A13F08A
:102D7000020F21D1FEF7E4FC401B0228F5D9032005
:102D80002FE1394A136823F0F803616943EAC1036C
:102D90001360DCE7354B00221A60FEF7D1FC0546D4
:102DA000314B1B6813F0020FD1D0FEF7C9FC401B5A
:102DB0000228F5D9032014E10120FFF701FF236861
:102DC00013F0040F00F09680274BDB6913F0805F4F
:102DD00034D1254BDA6942F08052DA61DB6903F0C5
:102DE00080530193019B0125214B1B6813F4807FC5
:102DF00026D0E368012B3DD0002B53D103F1804353
:102E000003F504331A6A22F001021A621A6A22F0E8
:102E100004021A6233E0154B0022C3F88024FEF747
:102E20008FFC0546104B5B6A13F0020FC7D0FEF70C
:102E300087FC401B0228F5D90320D2E00025D3E708
:102E40000B4A136843F480731360FEF779FC06465F
:102E5000074B1B6813F4807FCBD1FEF771FC801BFE
:102E60006428F5D90320BCE0001002400000424273
:102E7000007000405F4A136A43F001031362E36885
:102E800033B3FEF75DFC06465A4B1B6A13F0020F84
:102E90002FD1FEF755FC801B41F288339842F3D9BD
:102EA00003209EE0052B09D0524B1A6A22F0010242
:102EB0001A621A6A22F004021A62E0E74D4B1A6A9B
:102EC00042F004021A621A6A42F001021A62D6E75C
:102ED000FEF736FC0646474B1B6A13F0020F08D07C
:102EE000FEF72EFC801B41F288339842F3D9032071
:102EF00077E0E5B9E369002B72D03E4A526802F0F0
:102F00000C02082A56D0022B17D03B4B00221A661F
:102F1000FEF716FC0446374B1B6813F0007F47D0C2
:102F2000FEF70EFC001B0228F5D9032059E0314AB8
:102F3000D36923F08053D361DCE72F4B00221A665C
:102F4000FEF7FEFB05462B4B1B6813F0007F06D0F7
:102F5000FEF7F6FB401B0228F5D9032041E0236A67
:102F6000B3F5803F1AD023494B6823F47413226AC7
:102F7000606A024313434B601F4B01221A66FEF73F
:102F8000DFFB04461B4B1B6813F0007F0ED1FEF7DE
:102F9000D7FB001B0228F5D9032022E0154A53680D
:102FA00023F40033A1680B435360DCE7002018E0F2
:102FB000002016E0012B16D00E4B5B6803F4803125
:102FC000226A914211D103F47013626A93420ED1C6
:102FD000002006E001207047012002E0012000E00F
:102FE000002002B070BD0120FBE70120F9E70120BD
:102FF000F7E700BF001002400000424286B0174BC6
:103000000FCB0DF1180C0CE90F0040F20123ADF8C5
:103010000430134B5B6803F00C02082A02D01148FD
:1030200006B07047C3F3834218326A4412F8100C9A
:1030300013F4803F0DD00A4B5B68C3F34043183351
:103040006B4413F8143C074A02FB00F0B0FBF3F0AA
:10305000E6E7054B03FB00F0E2E700BF0C6703085F
:103060000010024000127A0000093D00002800F024
:10307000A08070B50D460446524B1B6803F0070351
:103080008B420BD24F4A136823F007030B431360A4
:10309000136803F007038B4240F08D80236813F020
:1030A000020F17D013F0040F04D0474A536843F4BB
:1030B000E0635360236813F0080F04D0424A53685A
:1030C00043F460535360404A536823F0F003A1680F
:1030D0000B435360236813F0010F31D06368012B59
:1030E00020D0022B25D0384A126812F0020F64D08B
:1030F00035494A6822F0030213434B60FEF720FB78
:103100000646314B5B6803F00C036268B3EB820F39
:1031100016D0FEF715FB801B41F288339842F0D998
:10312000032045E0284A126812F4003FE0D1012054
:103130003EE0254A126812F0007FD9D1012037E025
:10314000204B1B6803F00703AB420AD91D4A1368E2
:1031500023F007032B431360136803F00703AB420C
:103160002DD1236813F0040F06D0174A536823F4B7
:10317000E063E1680B435360236813F0080F07D046
:10318000114A536823F46053216943EAC103536031
:10319000FFF734FF0C4B5B68C3F303130B4AD35C9C
:1031A000D8400B4B18600B4B1868FEF74BF900200A
:1031B00070BD012070470120FAE70120F8E70120E7
:1031C000F6E700BF0020024000100240FC66030842
:1031D0000000002008000020014B1868704700BF65
:1031E0000000002008B5FFF7F7FF044B5B68C3F34E
:1031F0000223034AD35CD84008BD00BF0010024040
:10320000F466030808B5FFF7E7FF044B5B68C3F3F8
:10321000C223034AD35CD84008BD00BF001002405F
:10322000F46603080F2303600B4B5A6802F0030295
:1032300042605A6802F0F00282605A6802F4E0626A
:10324000C2605B68DB0803F4E0630361034B1B6847
:1032500003F007030B60704700100240002002409B
:1032600070B582B00446036813F0010F36D03F4BAF
:10327000DB6913F0805F49D13C4BDA6942F0805240
:10328000DA61DB6903F080530193019B0125384B20
:103290001B6813F4807F3BD0344B1B6A13F44073DC
:1032A00013D0626802F440729A420ED02F4A136A19
:1032B00023F440702F490126C1F840640026C1F86C
:1032C0004064106213F0010F36D1284A136A23F4C8
:1032D000407361680B431362002D3ED1236813F0E5
:1032E000020F06D0214A536823F44043A1680B43E0
:1032F0005360236813F0100F34D01C4A536823F432
:10330000800361690B43536000202CE00025BEE779
:10331000174A136843F480731360FEF711FA0646E8
:10332000134B1B6813F4807FB6D1FEF709FA801B9C
:103330006428F5D9032016E0FEF702FA06460B4B87
:103340001B6A13F0020FC0D1FEF7FAF9801B41F29D
:1033500088339842F3D9032005E0D36923F08053E2
:10336000D361BBE7002002B070BD00BF0010024077
:10337000007000400000424270B582B00446002355
:103380000193006801F0FAFD054610B1284602B02D
:1033900070BD206801F005FE38B90123A364A36C59
:1033A000012B0BD02E46284614E00023A36420688E
:1033B00001F0E4FD0028F2D00546E7E7002120688F
:1033C00001F006FE0028EDD04FF08055DEE7019BAE
:1033D00001330193019A4FF6FE739A4213D896B9BE
:1033E0000021206801F0F4FDE0B91249206801F0E5
:1033F00007FE0646C0B90021206801F005FCC30F96
:10340000E5D01E46E3E7019A4FF6FE739A420ED8C6
:1034100010F0804302D001236364B7E700226264A6
:103420001D46B3E70546B1E74FF08055AEE74FF0D4
:103430008075ABE7000010C1F8B5846AC66AA6B90A
:10344000F8BD386801F0B7FB2070C0F30723637044
:10345000C0F30743A370000EE0700434043E01354E
:10346000072DEED9BC62FE62EAE707460025F7E7C2
:10347000F0B583B0046A466ADEB903B0F0BD2378C4
:103480000193627843EA02230193A27843EA02435C
:103490000193E27843EA026301930434043E01A9F4
:1034A000386801F08BFB0135072DE8D93C627E625C
:1034B000E3E707460025F7E7F0B589B004460F4675
:1034C000FEF73EF906460023009301930821206889
:1034D00001F0AAFC054610B1284609B0F0BD216DE7
:1034E0000904206801F074FD05460028F4D14FF06E
:1034F000FF3302930823039330230493022305939D
:10350000002306930123079302A9206801F07AFCA7
:10351000206801F0A6FD054658B1DDE701F04BFB40
:103520004DF825000135FEF70BF9831BB3F1FF3F82
:103530003FD02068436B13F02A0F07D1436B13F47D
:10354000001FEBD1436B13F4005FECD1436B13F01E
:10355000080F25D1436B13F0020F24D1456B15F0F2
:10356000200523D140F23A538363019A130203F4F6
:103570007F0343EA0263110A01F47F410B4343EAEC
:1035800012633B60009A130203F47F0343EA026371
:10359000110A01F47F410B4343EA12637B609BE70E
:1035A0000825856398E70225856395E720258563CF
:1035B00092E74FF000458FE710B582B00446002136
:1035C00000910191006801F01FFB10F0007F13D102
:1035D00069462046FFF770FF80B9019B13F4802FE6
:1035E0000ED0216D0904206801F0F2FC30B90221EF
:1035F000206801F01EFD01E04FF4006002B010BD34
:103600004FF08060FAE710B582B0044600210091C7
:103610000191006801F0F8FA10F0007F13D16946BB
:103620002046FFF749FF80B9019B13F4803F0ED07D
:10363000216D0904206801F0CBFC30B9002120681D
:1036400001F0F7FC01E04FF4006002B010BD4FF054
:103650008060FAE770B581B104460E46016D090439
:10366000006801F058FD054608B1284670BD0021EC
:10367000206801F0C9FA3060F7E74FF00065F4E721
:103680002DE9F04F87B005460C4616469B46DDF8FF
:1036900040A0FEF755F8002C36D0814695F83470DE
:1036A000FFB2012F40F005810023AB6306EB0B0353
:1036B000EA6D93422ED8032385F834302B6800221C
:1036C000DA626B6C012B00D076024FF0FF3300936F
:1036D0004FEA4B2301939023029302230393002389
:1036E0000493012305936946286801F08BFBBBF125
:1036F000010F14D902232B633146286801F0C4FB63
:10370000A0B9DDF8048038E0AB6B43F00063AB6335
:103710000127D3E0AB6B43F00073AB63CEE0012332
:103720002B633146286801F097FBE9E72B68654A6F
:103730009A63AB6B0343AB63012385F834300023FA
:103740002B63BBE0286801F036FA2070C0F3072332
:103750006370C0F30743A370000EE0700434A8F157
:1037600004080136072EEDD9FDF7EAFFA0EB0900AA
:10377000504510D2BAF1000F0DD02868466B40F2C8
:103780002A331E4015D1436B13F4004FECD0B8F12F
:10379000000FE9D0E6E72B684A4A9A63AB6B43F027
:1037A0000043AB63012385F8343000232B630327E8
:1037B00084E0436B13F4807F05D0BBF1010F02D985
:1037C0006B6C032B38D12B685A6B12F0080F44D165
:1037D0005A6B12F0020F4CD15A6B12F0200F54D1D9
:1037E0002868436B13F4001F5BD0B8F1000F58D06A
:1037F00001F0E1F92070C0F307236370C0F30743C1
:10380000A370000EE0700434A8F10408FDF798FFDF
:10381000A0EB0900504502D2BAF1000FE0D12B68AD
:10382000284A9A63AB6B43F00043AB63012385F8EE
:10383000343000232B6341E001F06EFB0346002887
:10384000C1D02A681F499163AA6B1343AB6301235C
:1038500085F8343000232B6330E01A4A9A63AB6B4F
:1038600043F00803AB63012385F8343000232B6356
:1038700024E0144A9A63AB6B43F00203AB63012369
:1038800085F8343000232B6318E00E4A9A63AB6B43
:1038900043F02003AB63012385F8343000232B630E
:1038A0000CE040F23A538363012385F8343000275B
:1038B00004E0AB6B43F00053AB630127384607B01D
:1038C000BDE8F08FFF0540002DE9F04F8BB00546B5
:1038D0000C4616469B46DDF850A0FDF731FF002C44
:1038E00037D0804695F83470FFB2012F40F0E28067
:1038F0000023AB6306EB0B03EA6D93422FD803233F
:1039000085F834302B680022DA626B6C012B00D012
:1039100076024FF0FF3304934FEA4B230593902335
:1039200006930023079308930123099304A92868A9
:1039300001F068FABBF1010F16D920232B63314641
:10394000286801F0D1FA0190019BABB9DDF8149021
:1039500040E0AB6B43F00063AB630127AFE0AB6BC0
:1039600043F00073AB63AAE010232B633146286851
:1039700001F0A2FA0190E7E72B68534A9A63AB6B18
:10398000019A1343AB63012385F8343000232B6382
:1039900095E023780393627843EA02230393A278A5
:1039A00043EA02430393E27843EA02630393043455
:1039B000A9F1040903A9286801F000F90136072ECE
:1039C000E7D9FDF7BDFEA0EB0800504510D2BAF1D3
:1039D000000F0DD02868466B40F21A331E4015D1F7
:1039E000436B13F4804FECD0B9F1000FE9D0E6E758
:1039F0002B68354A9A63AB6B019A1343AB6301237F
:103A000085F8343000232B63032758E0436B13F40D
:103A1000807F05D0BBF1010F02D96B6C032B18D14D
:103A20002B685A6B12F0080F24D15A6B12F0020F58
:103A30002CD15A6B12F0100F34D0234A9A63AB6B1F
:103A400043F01003AB63012385F8343000232B636C
:103A500035E001F061FA03460028E1D02A681A49EE
:103A60009163AA6B1343AB63012385F834300023C1
:103A70002B6324E0144A9A63AB6B43F00803AB63F7
:103A8000012385F8343000232B6318E00E4A9A6333
:103A9000AB6B43F00203AB63012385F834300023A2
:103AA0002B630CE040F23A529A63012385F83430DC
:103AB000002704E0AB6B43F00053AB6301273846AB
:103AC0000BB0BDE8F08F00BFFF05400090F8340058
:103AD000704770470346426E920F0A70426EC2F3FF
:103AE00083624A7090F8672002F003028A7090F8AF
:103AF0006620CA7090F865200A7190F864204A71B7
:103B0000826E120DCA80B0F86A2002F00F020A72AB
:103B1000826EC2F3C0324A72826EC2F380328A72FF
:103B2000826EC2F34032CA72826EC2F300320A73EE
:103B300000224A73426C002A40F08680806E40F674
:103B4000FC7202EA8002D86E42EA90720A61DA6E72
:103B5000C2F3C2620A7593F86F2002F007024A7539
:103B6000DA6EC2F342528A75DA6EC2F38242CA75C5
:103B7000DA6EC2F3C2320A760A6901325A65087EE9
:103B800000F00700023082405A6591F808C00CF03E
:103B90000F0C012000FA0CF09865400A00FB02F2BD
:103BA000DA654FF400721A66DA6EC2F380324A7632
:103BB000DA6EC2F3C6128A76DA6E02F07F02CA7635
:103BC0001A6FD20F0A771A6FC2F341724A771A6FCF
:103BD000C2F382628A771A6FC2F38352CA771A6F6E
:103BE000C2F3405281F82020002081F82100B3F870
:103BF000722002F0010281F822201A6FC2F3C03253
:103C000081F823201A6FC2F3803281F824201A6FC2
:103C1000C2F3403281F825201A6FC2F3003281F8D6
:103C200026201A6FC2F3812281F827201A6FC2F36F
:103C3000012281F828201B6FC3F3460381F8293045
:103C4000012381F82A307047012A11D1826E1204B3
:103C500002F47C12B0F86E0002430A610A69013274
:103C600092025A65DA654FF400729A651A669BE70C
:103C7000026805499163826B42F0805282630120A1
:103C800083F83400704700BFFF05400070B590B066
:103C900004460123ADF81230006800F09CFF0028B4
:103CA0006CD0636C032B45D1636C032B5DD1636CCB
:103CB000032B1DD0BDF8121021650904206801F006
:103CC000FDF9054600285BD10021206800F09CFF2B
:103CD00060660421206800F097FFA0660821206834
:103CE00000F092FFE0660C21206800F08DFF206755
:103CF0000421206800F088FF000DE06405A920463B
:103D0000FFF7E8FE00283ED1226D12040023206850
:103D100001F01CF9054698BB234653F8106B93E855
:103D200007008DE80700043494E80E00304600F0E8
:103D300029FF25E0206801F0ACF9054600BB002111
:103D4000206800F061FF60670421206800F05CFFDC
:103D5000A0670821206800F057FFE0670C21206869
:103D600000F052FFC4F880009EE70DF112012068B8
:103D700001F0B9F90546002899D001E04FF08065BF
:103D8000284610B070BD4FF08055F9E770B58AB085
:103D90000446002304930593069307930893762320
:103DA00009930AAB13E907008DE8070004AB0ECBBB
:103DB000206800F0E7FE18B1012528460AB070BD62
:103DC0000546184E0023C6F8A030206800F0FBFE20
:103DD0000123C6F8A0302046FFF7CEFA30B1012506
:103DE00084F83450A36B0343A363E6E72046FFF750
:103DF0004DFF30B1012584F83450A36B0343A36316
:103E0000DBE74FF40071206801F00EF80028D4D0F1
:103E1000236805499963A36B0343A363012584F8D1
:103E20003450CAE700003042FF054000A8B110B589
:103E3000044690F8343063B1032384F834302046CC
:103E4000FFF7A4FF58B9A0632063012384F834303E
:103E500010BD0377FDF72CFAEEE701207047012033
:103E6000F6E7436C0B60836C4B60C36C8B60036D37
:103E7000CB60436D0B61836D4B61C36D8B61036ED2
:103E8000CB6100207047000030B58BB004460D4672
:103E9000032380F83430436C032B1CD0B1F5805FD2
:103EA00008D0B1F5006F0AD079B1836B43F000639D
:103EB000836314E0836B43F0805383630FE0FFF769
:103EC0007BFBA36B0343A36309E0FFF79CFBA36B9E
:103ED0000343A36303E0836B43F080538363A36BCB
:103EE000C3B12368174A9A63012584F834504FF40C
:103EF0000071206800F098FF30B123681149996380
:103F0000A36B0343A3630125012384F834302846BF
:103F10000BB030BD63680493A3680593E368069310
:103F2000079563690893A36909930AAB13E907002E
:103F30008DE8070004AB0ECB206800F023FE0025BF
:103F4000D5E700BFFF05400010B582B0044600234E
:103F5000019301A9FFF77EFB10B1A36B0343A36399
:103F60000198C0F3432002B010BD10B5446A236825
:103F700040F23A529A632046FFF7E6FF012384F8A5
:103F80003430002323630538012805D9A36B53B9C6
:103F9000204602F0FEF810BD206800F0BDFFA36BC4
:103FA0000343A363F2E72046FFF793FDF3E710B561
:103FB000446A236840F23A529A632046FFF7C4FFEE
:103FC000012384F83430002323630538012805D900
:103FD000A36B53B9204602F0DCF810BD206800F056
:103FE0009BFFA36B0343A363F2E72046FFF771FD3A
:103FF000F3E7000038B50446056B03685A6B12F40A
:10400000004F02D015F0080F28D15A6B12F4807FB0
:104010005AD04FF480729A632268D36B23F44143E1
:1040200023F03A03D3632268D36A23F00103D362F7
:1040300015F0080F26D015F0220F12D1236840F298
:104040003A529A63012384F834300023236315F035
:10405000030F13D0204602F0A6F801E0FFF7ECF9B9
:1040600038BD206800F058FF03460028E6D0A26B58
:104070001343A3632046FFF72CFDDFE7204602F041
:104080008DF8EDE715F0800FEAD015F0200F0ED176
:1040900015F0030FE4D12268D36A23F00803D3623A
:1040A000012384F83430204602F078F8D8E72068FD
:1040B00000F032FF03460028EAD0A26B1343A3634B
:1040C0002046FFF706FDE3E75A6B12F4804F02D05B
:1040D00015F0080F4CD15A6B12F03A0FC0D05A6B42
:1040E00012F0020F03D0A26B42F00202A2635A6BDD
:1040F00012F0080F03D0A26B42F00802A2635A6BC1
:1041000012F0200F03D0A26B42F02002A2635A6B80
:1041100012F0100F03D0A26B42F01002A26340F223
:104120003A729A632268D36B23F44E7323F002032E
:10413000D363206800F0F0FEA36B0343A36315F084
:10414000080F19D115F0800F8AD015F0300F1CD14F
:1041500015F0030F26D0236C174A5A63206CFDF725
:104160006DFB00283FF47CAF206CFFF720FF77E762
:104170002046FFF77DF973E7012384F834300023EC
:1041800023632046FFF7A5FC6AE7E36B0B4A5A63FB
:10419000E06BFDF753FB00283FF462AFE06BFFF7E5
:1041A000E4FE5DE70023A363012284F83420236347
:1041B000204601F0EEFF53E7AF3F00086B3F0008D9
:1041C0002DE9F04782B00546884617461E46FDF7A2
:1041D000B7FA0A9B1B1A03EB0609FDF7B1FA8246F0
:1041E000284B1B68C3F3CB3309FB03F301932B6804
:1041F0009C6838EA04040CBF01230023BB423DD075
:10420000B6F1FF3FF3D0FDF79BFAA0EB0A0048455B
:1042100007D2019A02B14A46019B013B01939146A4
:10422000E5E72A68536823F0E00353606B68B3F551
:10423000827F0BD0AB6AB3F5005F14D0012385F801
:104240005130002385F85030032018E0AB68B3F5F7
:10425000004F02D0B3F5806FECD12A68136823F0C9
:1042600040031360E6E72A68136823F400531360E1
:104270002A68136843F400531360DFE7002002B09C
:10428000BDE8F0870000002010B582B004460B4660
:10429000009200228021FFF793FF08B902B010BD01
:1042A000636D43F0200363650320F7E7002856D0D1
:1042B00010B50446436A33B94368B3F5827F05D02D
:1042C0000023C36102E00023036143610023A36272
:1042D00094F85130002B3CD0022384F851302268EE
:1042E000136823F040031360636803F48273A268C9
:1042F00002F404421343E26802F4006213432269A9
:1043000002F002021343626902F001021343A26940
:1043100002F400721343E26902F038021343226A86
:1043200002F080021343A26A02F400522168134390
:104330000B60638B226803F0040353602268D36927
:1043400023F40063D36100206065012384F85130B9
:1043500010BD84F850302046FDF718F8BCE7012066
:1043600070472DE9F04383B01D4690F85030012B83
:1043700000F0D180044688469146012380F85030F1
:10438000FDF7DEF9074694F85160F6B2012E40F0D1
:10439000AF80B8F1000F00F0AC80B9F1000F00F071
:1043A000A880032384F8513000236365C4F830806B
:1043B000A4F83490A4F83690A363A387E3876364DA
:1043C0002364A368B3F5004F1ED023681A6812F067
:1043D000400F03D11A6842F040021A60E368B3F557
:1043E000006F1CD0636813B1B9F1010F52D1226B79
:1043F000236812781A73236B01332363E38E9BB215
:10440000013B9BB2E38645E02268136823F040033A
:1044100013602268136843F480431360D5E7636830
:1044200013B1B9F1010F16D1226B23681288DA603B
:10443000236B02332363E38E9BB2013B9BB2E38683
:1044400009E0FDF77DF9C01BA84202D3B5F1FF3F9B
:1044500059D1002D59D0E38E9BB2002B33D0236865
:104460009A6812F0020FECD0226B1288DA60236B8C
:1044700002332363E38E9BB2013B9BB2E386EAE700
:10448000FDF75EF9C01BA84202D3B5F1FF3F3ED154
:10449000002D3ED0E38E9BB2ABB123689A6812F038
:1044A000020FEDD0226B12781A73236B0133236352
:1044B000B4F836C01FFA8CFC0CF1FF3C1FFA8CFCE0
:1044C000A4F836C0E6E73A4629462046FFF7DCFE68
:1044D00008B120236365A36833B901932368DA68C0
:1044E00001929B680193019B636D13B9002600E064
:1044F0000226012384F85130002384F850303046DE
:1045000003B0BDE8F0830326F3E70326F1E70326B3
:10451000EFE70326EDE70226F1E7704790F83D301C
:10452000DBB2012B2FD1022380F83D300268D36823
:1045300043F00103D3600368154A934218D002F593
:104540000062934214D0B3F1804F11D0A2F598329B
:1045500093420DD002F58062934209D002F5806249
:10456000934205D01A6842F001021A600020704799
:104570009A6802F00702062A07D01A6842F0010280
:104580001A6000207047012070470020704700BF6C
:10459000002C0140704770477047704710B50446C3
:1045A00003681A6912F0020F11D0DA6812F0020FD4
:1045B0000DD06FF002021A610123037703689B6933
:1045C00013F0030F70D0FFF7E6FF00232377236873
:1045D0001A6912F0040F12D0DA6812F0040F0ED02C
:1045E0006FF004021A610223237723689B6913F496
:1045F000407F5FD02046FFF7CEFF0023237723685C
:104600001A6912F0080F12D0DA6812F0080F0ED0F3
:104610006FF008021A61042323772368DB6913F023
:10462000030F4ED02046FFF7B6FF00232377236801
:104630001A6912F0100F12D0DA6812F0100F0ED0B3
:104640006FF010021A61082323772368DB6913F4E3
:10465000407F3DD02046FFF79EFF0023237723684D
:104660001A6912F0010F03D0DA6812F0010F36D187
:1046700023681A6912F0800F03D0DA6812F0800FF5
:1046800034D123681A6912F0400F03D0DA6812F0AF
:10469000400F32D123681A6912F0200F03D0DA6874
:1046A00012F0200F30D110BDFFF774FF2046FFF746
:1046B00073FF8AE72046FFF76DFF2046FFF76CFF88
:1046C0009BE72046FFF766FF2046FFF765FFACE754
:1046D0002046FFF75FFF2046FFF75EFFBDE76FF064
:1046E00001021A612046FCF751FDC1E76FF080021C
:1046F0001A61204600F089F8C3E76FF040021A61A2
:104700002046FFF74AFFC5E76FF020021A612046F6
:1047100000F07AF8C7E700000368244A904212D0FC
:1047200002F5006290420ED0B0F1804F0BD0A2F59E
:104730009832904207D002F58062904203D002F591
:104740008062904203D123F070034A681343174AF2
:10475000904212D002F5006290420ED0B0F1804F2C
:104760000BD0A2F59832904207D002F580629042B9
:1047700003D002F58062904203D123F44073CA68EB
:10478000134323F080034A69134303608B68C362B9
:104790000B688362054B984203D003F5006398428F
:1047A00001D10B690363012343617047002C014071
:1047B00040B310B5044690F83D30F3B1022384F8BD
:1047C0003D30214651F8040BFFF7A6FF012384F882
:1047D000463084F83E3084F83F3084F8403084F826
:1047E000413084F8423084F8433084F8443084F80F
:1047F000453084F83D30002010BD80F83C30FFF794
:104800008CFEDBE7012070477047704710B5044607
:104810000268136923F44053C1680B431361836832
:104820000269134342691A430168CB6823F4B05309
:1048300023F00C031343CB600268536923F44073E5
:1048400081690B4353610268134B9A4220D0FEF7F3
:10485000C9FC024602EB820202EB820263689B0003
:10486000B2FBF3F20D48A0FB02314909642303FBBC
:1048700011231B013233A0FB03035B0903F0F00299
:1048800002EB011203F00F03216813448B6010BD8B
:10489000FEF7B8FC0246DDE7003801401F85EB510A
:1048A0002DE9F84305460F4616469946DDF8208067
:1048B0002B681C6837EA04040CBF01240024B442AE
:1048C0001FD1B8F1FF3FF3D0B8F1000F05D0FCF7CE
:1048D00037FFA0EB09004045EAD92A68D36823F4E2
:1048E000D073D3602A68536923F0010353612023F6
:1048F00085F83D3085F83E30002385F83C300320B4
:1049000000E00020BDE8F88358B310B5044690F8E5
:104910003D300BB3242384F83D302268D36823F460
:104920000053D3602046FFF771FF2268136923F418
:10493000904313612268536923F02A03536122686C
:10494000D36843F40053D36000202064202384F80C
:104950003D3084F83E3010BD80F83C30FCF760FEFE
:10496000D8E7012070472DE9F04182B01E4690F84B
:104970003D30DBB2202B54D104460D469046002931
:1049800053D0002A53D090F83C30012B51D0012352
:1049900080F83C3000230364212380F83D30FCF78D
:1049A000CFFE0746A4F82480A4F82680A368B3F5B8
:1049B000805F05D04FF00008002384F83C3012E0FF
:1049C000236913B14FF00008F6E7A8460025F3E786
:1049D00038F8023B2268C3F308035360E28C92B2BA
:1049E000013A92B2E284E38C9BB273B100963B46EB
:1049F000002280212046FFF753FFE0B9002DE7D0C9
:104A000015F8012B23685A60E8E700963B46002220
:104A100040212046FFF744FF78B9202384F83D3039
:104A200000E0022002B0BDE8F0810120FAE7012099
:104A3000F8E70220F6E70320F4E70320F2E700009E
:104A40000B4B1B680B4AA2FB03235B0A4FF4FA6271
:104A500002FB03F31A46013B3AB1426B12F0800F9E
:104A6000F8D0C5238363002070474FF000407047A3
:104A700000000020D34D62100146144B1B68144AFD
:104A8000A2FB03235B0A4FF4FA6202FB03F31A460C
:104A9000013BBAB14A6B12F0450FF8D012F4006F27
:104AA000F5D14B6B13F0040F06D1486B10F00100E9
:104AB00005D1C5238B6370470420886370470120AC
:104AC000886370474FF00040704700BF000000202F
:104AD000D34D62100146104B1B68104AA2FB032302
:104AE0005B0A4FF4FA6202FB03F31A46013B82B100
:104AF0004A6B12F0450FF8D012F4006FF5D1486BF5
:104B000010F0040002D1C5238B6370470420886332
:104B100070474FF00040704700000020D34D6210F6
:104B20000146164B1B68164AA2FB03235B0A4FF48F
:104B3000FA6202FB03F31A46013BE2B14A6B12F040
:104B4000450FF8D012F4006FF5D14B6B13F0040F42
:104B50000BD14B6B13F001030AD1486B10F04000EE
:104B60000BD040228A631846704704208863704740
:104B70000120886370474FF000407047000000201C
:104B8000D34D621084B00DF1040C8CE80E000B467E
:104B90001343039A1343049A1343059A1343069A43
:104BA0001343426822F4FD4222F07F021343436024
:104BB000002004B07047D0F8800070470B68C0F840
:104BC00080300020704708B5032303600220FCF703
:104BD000BDFD002008BD006800F0030070470B68B1
:104BE00083604B688A681343CA6813430A69134396
:104BF000C26822F47F6222F00F021343C3600020D8
:104C000070470069C0B270471430405870470000C8
:104C100038B504460D46504B1B685049A1FB0313A1
:104C20005B0A03FB02F21346013A002B5DD0636B73
:104C300013F0450FF7D013F4006FF4D1636B13F04A
:104C4000040F06D1636B13F0010F05D00120A063A0
:104C50004DE00420A0634AE0C523A3632046FFF78C
:104C6000D0FFA84201D0012041E000212046FFF7FB
:104C7000CBFF03463A481840C8B3002B38DB13F08B
:104C8000804F38D113F0005F37D113F0805F36D1F9
:104C900013F0006F36D113F0806F36D113F0807FA0
:104CA00036D113F4000F36D113F4800F36D113F43C
:104CB000001F36D113F4801F36D113F4802F36D164
:104CC00013F4003F36D113F4803F36D113F4004F74
:104CD00036D113F4804F36D113F4005F36D113F080
:104CE000080F36D04FF4000001E04FF0004038BD0F
:104CF0004FF00070FBE74020F9E78020F7E74FF422
:104D00008070F4E74FF40070F1E74FF48060EEE755
:104D10004FF40060EBE74FF48050E8E74FF40050A9
:104D2000E5E74FF48040E2E74FF40040DFE74FF45F
:104D30000030DCE74FF48020D9E74FF40020D6E7BD
:104D40004FF48010D3E74FF40010D0E74FF4800009
:104D5000CDE74FF48030CAE700000020D34D621049
:104D600008E0FFFDF8B505460E461746234B1B68C5
:104D7000234AA2FB03235B0A4FF4FA6202FB03F30C
:104D80001A46013B8AB36C6B14F0450FF8D014F44B
:104D9000006FF5D16B6B13F0040F06D16B6B13F042
:104DA000010F05D00120A86321E00420A8631EE0C4
:104DB0002846FFF726FFB04201D0012017E0C523A7
:104DC000AB6300212846FFF71FFF034610F4604045
:104DD00008D013F4804F0BD113F4004F0BD04FF4D5
:104DE000805004E01B0C3B8001E04FF00040F8BD18
:104DF0004FF40050FBE74FF48030F8E7000000204C
:104E0000D34D62100B6843624B6883628B68CA683B
:104E100013430A6913434A691343C26A22F0F70233
:104E20001343C3620020704730B587B00446019138
:104E30001025029540230393002304934FF48063CD
:104E4000059301A9FFF7CBFE4FF4FA6229462046ED
:104E5000FFF7DEFE07B030BD30B587B004460191E4
:104E60001125029540230393002304934FF480639C
:104E7000059301A9FFF7B3FE4FF4FA6229462046D5
:104E8000FFF7C6FE07B030BD30B587B004460191CC
:104E90001225029540230393002304934FF480636B
:104EA000059301A9FFF79BFE4FF4FA6229462046BD
:104EB000FFF7AEFE07B030BD30B587B004460191B4
:104EC0001825029540230393002304934FF4806335
:104ED000059301A9FFF783FE4FF4FA6229462046A5
:104EE000FFF796FE07B030BD30B587B0044601919C
:104EF0001925029540230393002304934FF4806304
:104F0000059301A9FFF76BFE4FF4FA62294620468C
:104F1000FFF77EFE07B030BD30B587B004460023F2
:104F200001930C2502954022039204934FF4806371
:104F3000059301A9FFF753FE034A29462046FFF7D0
:104F400067FE07B030BD00BF00E1F50530B587B0A2
:104F500004460192072502954023039300230493FE
:104F60004FF48063059301A9FFF739FE4FF4FA620D
:104F700029462046FFF74CFE07B030BD10B586B07D
:104F80000446002301930293039304934FF4806338
:104F9000059301A9FFF723FE2046FFF751FD06B058
:104FA00010BD10B586B004464FF4D57301930823A5
:104FB000029340230393002304934FF480630593EB
:104FC00001A9FFF70CFE2046FFF7AAFD06B010BDB1
:104FD00030B587B0044601913725029540230393ED
:104FE000002304934FF48063059301A9FFF7F7FDB5
:104FF0004FF4FA6229462046FFF70AFE07B030BD9B
:1050000010B586B0044641F0004141F48011019191
:105010002923029340230393002304934FF48063D6
:10502000059301A9FFF7DBFD2046FFF753FD06B00E
:1050300010BD30B587B00446019106250295402386
:105040000393002304934FF48063059301A9FFF7B2
:10505000C6FD4FF4FA6229462046FFF7D9FD07B096
:1050600030BD30B587B00446002301933325029547
:105070004022039204934FF48063059301A9FFF744
:10508000AEFD4FF4FA6229462046FFF7C1FD07B096
:1050900030BD10B586B0044600230193022202926F
:1050A000C022039204934FF48063059301A9FFF794
:1050B00096FD2046FFF7E0FC06B010BD10B586B0A7
:1050C0000446019109230293C02303930023049310
:1050D0004FF48063059301A9FFF781FD2046FFF798
:1050E000CBFC06B010BD70B586B004460D4600235B
:1050F0000193032602964022039204934FF48063A7
:10510000059301A9FFF76BFD2A4631462046FFF7BC
:1051100029FE06B070BD30B587B0044601910D255B
:10512000029540230393002304934FF48063059377
:1051300001A9FFF754FD4FF4FA6229462046FFF714
:1051400067FD07B030BD84B001A880E80E000020E4
:1051500004B0704703460020A3F844004FF43F42D8
:10516000A3F840207047B0F8403023F47C535B0430
:105170005B0CA0F84030002070470020704784B0DE
:10518000844601A880E80E000123ACF840300020DE
:10519000ACF84000ACF84400ACF8500004B07047E4
:1051A000002070470020704710B5034691F800C0FA
:1051B00030F82C2092B222F4EC4222F0700292B22B
:1051C000C878032861D8DFE800F0555C0258002059
:1051D00048F2800E42EA0E0223F82C2091F800C01B
:1051E00033F82C2092B222F4E04222F0700242EA1C
:1051F0000C0242EA0E0223F82C200A7B002A40F01F
:10520000C4804A78002A51D0B3F8502092B21A4490
:105210000C7802EB0412B1F806C04FEA5C0C4FEABE
:105220004C0CA2F800C40C7833F8242012F0400F84
:105230000CD033F8242092B222F4E04222F0700223
:1052400042F4004242F0C00223F82420CA78012A26
:105250001DD0097833F8212092B222F4E04222F0E6
:10526000400282F0200242F4004242F0800223F821
:1052700021206AE042F40072AAE742F4C0620020F2
:10528000A6E742F480620020A2E70120A0E70978A7
:1052900033F8212092B222F4E04222F0400242F49C
:1052A000004242F0800223F821204EE0B3F8502063
:1052B00092B21A440C7802EB0412B1F806C04FEA1D
:1052C0005C0C4FEA4C0CA2F808C4B3F8502092B220
:1052D0001A440C7802EB04120C69BCBBB2F80CC483
:1052E0001FFA8CFC2CF4F84C1FFA8CFCA2F80CC4AE
:1052F000B2F80CC46FEA4C4C6FEA5C4C1FFA8CFCA1
:10530000A2F80CC40C7833F8242012F4804F0CD08F
:1053100033F8242092B222F4E04222F0700242F4E8
:10532000404242F0800223F82420097833F82120FB
:1053300092B222F4804222F0700282F4405242F48F
:10534000004242F0800223F8212010BD3E2C0DD8EF
:105350004FEA540C14F0010F01D00CF1010C4FEA8C
:105360008C2C1FFA8CFCA2F80CC4CBE74FEA541C1F
:1053700014F01F0F01D10CF1FF3C6FEACC646FEA0F
:105380005444A4B2A2F80C44BCE791F800C033F82E
:105390002C2092B222F4E04222F0700242F4014248
:1053A00042F0800223F82C20B3F8502092B21A4425
:1053B00091F800C002EB0C12B1F808C04FEA5C0C87
:1053C0004FEA4C0CA2F800C4B3F8502092B21A4431
:1053D00091F800C002EB0C12B1F80AC04FEA5C0C65
:1053E0004FEA4C0CA2F808C44A78002A41D10C7844
:1053F00033F8242012F4804F0CD033F8242092B2DA
:1054000022F4E04222F0700242F4404242F0800274
:1054100023F824200C7833F8242012F0400F0CD00D
:1054200033F8242092B222F4E04222F0700242F4D7
:10543000004242F0C00223F8242091F800C033F863
:105440002C2092B222F4804222F0700282F4405268
:1054500048F28004224323F82C20097833F82120D5
:1054600092B222F4E04222F04002224323F82120AB
:105470006BE70C7833F8242012F4804F0CD033F80B
:10548000242092B222F4E04222F0700242F4404220
:1054900042F0800223F824200C7833F8242012F004
:1054A000400F0CD033F8242092B222F4E04222F0D4
:1054B000700242F4004242F0C00223F82420CA786D
:1054C000012A1ED00C7833F8242092B222F4E04254
:1054D00022F0400282F0200242F4004242F08002B8
:1054E00023F82420097833F8212092B222F4804254
:1054F00022F0700242F4004242F0800223F82120A0
:1055000023E70C7833F8242092B222F4E04222F010
:10551000400242F4004242F0800223F82420E1E7F6
:105520000B7B002B46D14B7813B30A7830F822302E
:1055300013F0400F0CD030F822309BB223F4E0433C
:1055400023F0700343F4004343F0C00320F82230FB
:105550000A7830F822309BB223F4E04323F0400372
:1055600043F4004343F0800320F8223000207047CA
:105570000A7830F8223013F4804F0CD030F8223003
:105580009BB223F4E04323F0700343F4404343F021
:10559000800320F822300A7830F822309BB223F4BE
:1055A000804323F0700343F4004343F0800320F86A
:1055B0002230DBE74B78002B4ED10A7830F82230CE
:1055C00013F4804F0CD030F822309BB223F4E04328
:1055D00023F0700343F4404343F0800320F822306B
:1055E0000A7830F8223013F0400F0CD030F8223017
:1055F0009BB223F4E04323F0700343F4004343F0F1
:10560000C00320F822300A7830F822309BB223F40D
:10561000E04323F0700343F4004343F0C00320F859
:1056200022300A7830F822309BB223F4804323F0F2
:10563000700348F2800C43EA0C0320F822300A7809
:1056400030F822309BB223F4E04323F0400343EAD6
:105650000C0320F8223089E70A7830F8223013F45E
:10566000804F0CD030F822309BB223F4E04323F07B
:10567000700343F4404343F0800320F822300A785B
:1056800030F8223013F0400F0CD030F822309BB2AB
:1056900023F4E04323F0700343F4004343F0C003DA
:1056A00020F822300A7830F822309BB223F4E0430D
:1056B00023F0700343F4404343F0800320F822308A
:1056C0000A7830F822309BB223F4E04323F0400301
:1056D00048F2800C43EA0C0320F822300A7830F8B4
:1056E00022309BB223F4804323F0700343EA0C037F
:1056F00020F822303AE74B788BB10A7830F8223024
:105700009BB223F4E04323F0400383F0100343F4FF
:10571000004343F0800320F82230002070470A78CD
:1057200030F822309BB223F4804323F0700383F4DB
:10573000805343F4004343F0800320F82230ECE729
:105740000B7B002B4BD14B7833B30A7830F82230E7
:1057500013F0400F0CD030F822309BB223F4E0431A
:1057600023F0700343F4004343F0C00320F82230D9
:10577000CB78012B33D00A7830F822309BB223F457
:10578000E04323F0400383F0200343F4004343F05D
:10579000800320F8223022E00A7830F8223013F417
:1057A000804F0CD030F822309BB223F4E04323F03A
:1057B000700343F4404343F0800320F822300A781A
:1057C00030F822309BB223F4804323F0700383F43B
:1057D000405343F4004343F0800320F8223000207C
:1057E000704711B98023A0F84C300020704700208A
:1057F000704700207047B0F8440080B27047002026
:10580000704701335B0800EB420000F5806008E060
:105810000A7891F801C042EA0C2220F8042B0231E8
:10582000013B002BF4D1704770B505460C464B7810
:10583000012B37D00A7B002A40F026838B690A6946
:10584000934240F204839B1A8B61B5F850309BB2AF
:105850002B44217803EB0113002A40F0FC82B3F8BB
:105860000C2492B222F4F84292B2A3F80C24B3F8BA
:105870000C246FEA42426FEA524292B2A3F80C241F
:10588000227835F822309BB223F4804323F0700352
:1058900083F4405343F4004343F0800325F822305F
:1058A000002070BD8E690A69964200D91646237B96
:1058B000002B39D0E378022B58D0227835F82230EB
:1058C0009BB223F4E04323F0700343F4014343F01D
:1058D000800325F82230236A9B1B2362237835F846
:1058E000232012F0400F00F026826278002A40F058
:1058F000CA81B5F8502092B22A4402EB0313002E5D
:1059000040F0A881B3F80C2492B222F4F84292B28B
:10591000A3F80C24B3F80C246FEA42426FEA524217
:1059200092B2A3F80C24B0E1B6B23346E2886169C2
:105930002846FFF766FFB5F850309BB22B4422781B
:1059400003EB0213A3F80464227835F822309BB2EB
:1059500023F4E04323F0400383F0300343F4004397
:1059600043F0800325F8223000209AE7236A9A4208
:1059700080F05281227835F822309BB223F4E04344
:1059800023F0700343F4014343F0800325F82230F1
:10599000236A9B1B2362237835F8232012F0400FE3
:1059A00000F09D8062788ABBB5F8502092B22A44FC
:1059B00002EB03138EB9B3F80C2492B222F4F8422E
:1059C00092B2A3F80C24B3F80C246FEA42426FEAB7
:1059D000524292B2A3F80C241AE03E2E09D8720863
:1059E00016F0010F00D00132920292B2A3F80C24FB
:1059F0000EE0720916F01F0F00D1013A6FEAC26281
:105A00006FEA524292B2A3F80C2401E0012A2BD093
:105A1000B3B2628961692846FFF7F3FE63693344D4
:105A20006361236A2269934228D99B1B23626378AE
:105A3000002B40D1B5F850309BB22B44227803EBB9
:105A40000213FEB9B3F8042492B222F4F84292B2DF
:105A5000A3F80424B3F804246FEA42426FEA5242E6
:105A600092B2A3F8042428E0B5F8502092B22A4458
:105A700002EB0313B2B2A3F80C24C9E7002222629E
:105A80001E46D4E73E2E09D8720816F0010F00D04A
:105A90000132920292B2A3F804240EE0720916F0C9
:105AA0001F0F00D1013A6FEAC2626FEA524292B20E
:105AB000A3F8042401E0012B06D0B3B22289616966
:105AC0002846FFF79EFE3FE7B5F850309BB22B44C7
:105AD000227803EB0213B2B2A3F80424EDE7627854
