:020000040800F2
:1000000000000120D9130008F9110008FB110008B5
:10001000FD110008FF110008011200080000000097
:10002000000000000000000000000000817B0008CC
:100030000312000800000000B17B0008F57B0008F7
:1000400021140008211400082114000821140008BC
:1000500021140008211400080512000821140008CA
:10006000211400082114000821140008211400089C
:10007000211400082114000821140008211400088C
:10008000211400082114000821140008211400087C
:10009000111200082114000821140008211400087E
:1000A000211400082112000821140008211400085E
:1000B000211400082114000821140008211400084C
:1000C000211400082114000821140008211400083C
:1000D000211400082114000821140008211400082C
:1000E000311200082114000821140008211400080E
:1000F000211400082114000821140008211400080C
:10010000211400083D1200082114000821140008E1
:1001100021140008211400082114000821140008EB
:1001200021140008211400082114000821140008DB
:1001300000000000000000000000000000000000BF
:1001400000000000000000000000000000000000AF
:10015000000000000000000000000000000000009F
:10016000000000000000000000000000000000008F
:10017000000000000000000000000000000000007F
:10018000000000000000000000000000000000006F
:10019000000000000000000000000000000000005F
:1001A000000000000000000000000000000000004F
:1001B000000000000000000000000000000000003F
:1001C000000000000000000000000000000000002F
:1001D000000000000000000000000000000000001F
:0401E0005FF8E0F1F3
:1001F00081F0004102E000BF83F0004330B54FEAD8
:1002000041044FEA430594EA050F08BF90EA020F44
:100210001FBF54EA000C55EA020C7FEA645C7FEAD7
:10022000655C00F0E2804FEA5454D4EB5555B8BFFA
:100230006D420CDD2C4480EA020281EA030382EA6B
:10024000000083EA010180EA020281EA0303362DFD
:1002500088BF30BD11F0004F4FEA01314FF4801CD0
:100260004CEA113102D0404261EB410113F0004FE2
:100270004FEA03334CEA133302D0524263EB430399
:1002800094EA050F00F0A780A4F10104D5F1200E37
:100290000DDB02FA0EFC22FA05F2801841F1000192
:1002A00003FA0EF2801843FA05F359410EE0A5F166
:1002B00020050EF1200E012A03FA0EFC28BF4CF097
:1002C000020C43FA05F3C01851EBE37101F000454D
:1002D00007D54FF0000EDCF1000C7EEB00006EEB5A
:1002E0000101B1F5801F1BD3B1F5001F0CD34908E4
:1002F0005FEA30004FEA3C0C04F101044FEA44523B
:1003000012F5800F80F09A80BCF1004F08BF5FEAC1
:10031000500C50F1000041EB045141EA050130BDA1
:100320005FEA4C0C404141EB0101013C28BFB1F5B3
:10033000801FE9D291F0000F04BF01460020B1FAFE
:1003400081F308BF2033A3F10B03B3F120020CDAD1
:100350000C3208DD02F1140CC2F10C0201FA0CF0AF
:1003600021FA02F10CE002F11402D8BFC2F1200C14
:1003700001FA02F120FA0CFCDCBF41EA0C019040CA
:10038000E41AA2BF01EB0451294330BD6FEA040413
:100390001F3C1CDA0C340EDC04F11404C4F12002FE
:1003A00020FA04F001FA02F340EA030021FA04F310
:1003B00045EA030130BDC4F10C04C4F1200220FA67
:1003C00002F001FA04F340EA0300294630BD21FAA5
:1003D00004F0294630BD94F0000F83F4801306BF6B
:1003E00081F480110134013D4EE77FEA645C18BF5F
:1003F0007FEA655C29D094EA050F08BF90EA020FF6
:1004000005D054EA000C04BF1946104630BD91EAED
:10041000030F1EBF0021002030BD5FEA545C05D1F0
:100420004000494128BF41F0004130BD14F580042F
:100430003CBF01F5801130BD01F0004545F0FE41A3
:1004400041F470014FF0000030BD7FEA645C1ABFD8
:10045000194610467FEA655C1CBF0B46024650EA0F
:10046000013406BF52EA033591EA030F41F400213B
:1004700030BD00BF90F0000F04BF0021704730B5C1
:100480004FF4806404F132044FF000054FF0000196
:1004900050E700BF90F0000F04BF0021704730B557
:1004A0004FF4806404F1320410F0004548BF40422C
:1004B0004FF000013EE700BF42004FEAE2014FEA81
:1004C00031014FEA02701FBF12F07F4393F07F4F5C
:1004D00081F06051704732F07F4208BF704793F05F
:1004E0007F4F04BF41F40021704730B54FF4607472
:1004F00001F0004521F000411CE700BF50EA010275
:1005000008BF704730B54FF000050AE050EA01021D
:1005100008BF704730B511F0004502D5404261EB8D
:1005200041014FF4806404F132045FEA915C3FF4CE
:10053000D8AE4FF003025FEADC0C18BF03325FEA6B
:10054000DC0C18BF033202EBDC02C2F1200300FA1C
:1005500003FC20FA02F001FA03FE40EA0E0021FA41
:1005600002F11444BDE600BF4FEA410212F5001249
:1005700015D211D56FF47873B3EB625212D94FEAEA
:10058000C12343F0004343EA505311F0004F23FAD4
:1005900002F018BF404270474FF00000704750EA29
:1005A000013005D111F0004008BF6FF000407047E6
:1005B0004FF00000704700BF844641EA000313F08B
:1005C000030349D1403A23D30B6803604B6843606F
:1005D0008B688360CB68C3600B6903614B694361BF
:1005E0008B698361CB69C3610B6A03624B6A4362A7
:1005F0008B6A8362CB6AC3620B6B03634B6B43638F
:100600008B6B8363CB6BC36340304031403ADBD2AA
:1006100030320BD30B6803604B6843608B68836098
:10062000CB68C36010301031103AF3D20C3205D3CE
:1006300051F8043B40F8043B043AF9D2043208D0A4
:10064000D2071CBF11F8013B00F8013B01D30B8816
:1006500003806046704700BF082A13D38B07B1D0D0
:1006600010F00303AED0C3F10403D21ADB071CBFA2
:1006700011F8013B00F8013BA4D331F8023B20F80C
:10068000023B9FE7043AD9D3013A11F8013B00F845
:10069000013BF9D20B7803704B7843708B788370F1
:1006A0006046704770B54FF0FF0C4CF4E06C1CEAEC
:1006B00011541DBF1CEA135594EA0C0F95EA0C0F58
:1006C00000F0DEF82C4481EA030621EA4C5123EACB
:1006D0004C5350EA013518BF52EA033541F48011FA
:1006E00043F4801338D0A0FB02CE4FF00005E1FBAD
:1006F00002E506F00042E0FB03E54FF00006E1FBF7
:1007000003569CF0000F18BF4EF0010EA4F1FF0439
:10071000B6F5007F64F5407404D25FEA4E0E6D4179
:1007200046EB060642EAC62141EA55514FEAC5208A
:1007300040EA5E504FEACE2EB4F1FD0C88BFBCF506
:10074000E06F1ED8BEF1004F08BF5FEA500E50F1B7
:10075000000041EB045170BD06F0004646EA01017D
:1007600040EA020081EA0301B4EB5C04C2BFD4EBAF
:100770000C0541EA045170BD41F480114FF0000EA8
:10078000013C00F3AB8014F1360FDEBF002001F016
:10079000004170BDC4F10004203C35DA0C341BDC90
:1007A00004F11404C4F1200500FA05F320FA04F062
:1007B00001FA05F240EA020001F0004221F0004196
:1007C00010EBD37021FA04F642EB06015EEA430E09
:1007D00008BF20EAD37070BDC4F10C04C4F1200539
:1007E00000FA04F320FA05F001FA04F240EA0200EC
:1007F00001F0004110EBD37041F100015EEA430EBD
:1008000008BF20EAD37070BDC4F1200500FA05F2DC
:100810004EEA020E20FA04F301FA05F243EA02035B
:1008200021FA04F001F0004121FA04F220EA02006A
:1008300000EBD3705EEA430E08BF20EAD37070BDB0
:1008400094F0000F0FD101F00046400041EB010190
:1008500011F4801F08BF013CF7D041EA060195F072
:10086000000F18BF704703F00046520043EB03032C
:1008700013F4801F08BF013DF7D043EA0603704719
:1008800094EA0C0F0CEA135518BF95EA0C0F0CD024
:1008900050EA410618BF52EA4306D1D181EA03016A
:1008A00001F000414FF0000070BD50EA410606BF64
:1008B0001046194652EA430619D094EA0C0F02D1A9
:1008C00050EA013613D195EA0C0F05D152EA0336EE
:1008D0001CBF104619460AD181EA030101F000410C
:1008E00041F0FE4141F470014FF0000070BD41F055
:1008F000FE4141F4780170BD70B54FF0FF0C4CF42F
:10090000E06C1CEA11541DBF1CEA135594EA0C0F4D
:1009100095EA0C0F00F0A7F8A4EB050481EA030E9A
:1009200052EA03354FEA013100F088804FEA033381
:100930004FF0805545EA131343EA12634FEA02224F
:1009400045EA111545EA10654FEA00260EF0004110
:100950009D4208BF964244F1FD0404F5407402D262
:100960005B084FEA3202B61A65EB03055B084FEAF3
:1009700032024FF480104FF4002CB6EB020E75EBF0
:10098000030E22BFB61A754640EA0C005B084FEA18
:100990003202B6EB020E75EB030E22BFB61A754695
:1009A00040EA5C005B084FEA3202B6EB020E75EBE0
:1009B000030E22BFB61A754640EA9C005B084FEA58
:1009C0003202B6EB020E75EB030E22BFB61A754665
:1009D00040EADC0055EA060E18D04FEA051545EA54
:1009E00016754FEA06164FEAC30343EA52734FEAFD
:1009F000C2025FEA1C1CC0D111F4801F0BD141EA76
:100A000000014FF000004FF0004CB6E711F4801FDA
:100A100004BF01430020B4F1FD0C88BFBCF5E06FBA
:100A20003FF6AFAEB5EB030C04BFB6EB020C5FEACA
:100A3000500C50F1000041EB045170BD0EF0004E1F
:100A40004EEA113114EB5C04C2BFD4EB0C0541EA51
:100A5000045170BD41F480114FF0000E013C90E64E
:100A600045EA060E8DE60CEA135594EA0C0F08BF12
:100A700095EA0C0F3FF43BAF94EA0C0F0AD150EA11
:100A800001347FF434AF95EA0C0F7FF425AF1046A4
:100A900019462CE795EA0C0F06D152EA03353FF4CC
:100AA000FDAE1046194622E750EA410618BF52EA49
:100AB00043067FF4C5AE50EA41047FF40DAF52EA1D
:100AC00043057FF4EBAE12E74FF0FF3C06E000BFBA
:100AD0004FF0010C02E000BF4FF0010C4DF804CDC7
:100AE0004FEA410C7FEA6C5C4FEA430C18BF7FEA87
:100AF0006C5C1BD001B050EA410C0CBF52EA430CB5
:100B000091EA030F02BF90EA020F0020704710F134
:100B1000000F91EA030F58BF994208BF90422CBFC3
:100B2000D8176FEAE37040F0010070474FEA410CBC
:100B30007FEA6C5C02D150EA013C07D14FEA430CDA
:100B40007FEA6C5CD6D152EA033CD3D05DF8040B4B
:100B5000704700BF8446104662468C46194663467D
:100B600000E000BF01B5FFF7B7FF002848BF10F154
:100B7000000F01BD4DF808EDFFF7F4FF0CBF012099
:100B800000205DF808FB00BF4DF808EDFFF7EAFF15
:100B900034BF012000205DF808FB00BF4DF808EDD0
:100BA000FFF7E0FF94BF012000205DF808FB00BFC5
:100BB0004DF808EDFFF7CEFF94BF012000205DF84F
:100BC00008FB00BF4DF808EDFFF7C4FF34BF01205C
:100BD00000205DF808FB00BF4FEA410C7FEA6C5C27
:100BE00002D150EA013C0AD14FEA430C7FEA6C5C27
:100BF00002D152EA033C02D14FF0000070474FF09F
:100C0000010070470348044B834202D0034B03B1F9
:100C100018477047D8070020D807002000000000C0
:100C20000548064B1B1AD90F01EBA301491002D04E
:100C3000034B03B118477047D8070020D80700209E
:100C40000000000010B5064C237843B9FFF7DAFF27
:100C5000044B13B10448AFF300800123237010BD8F
:100C6000D807002000000000D8E6000808B5054BB2
:100C70001BB105490548AFF30080BDE80840FFF708
:100C8000CFBF00BF00000000DC070020D8E600084E
:100C90002DE9F04788B00024049405940694079445
:100CA0004E4B9A6942F010029A619A6902F0100262
:100CB0000092009A9A6942F004029A619A6902F0DD
:100CC00004020192019A9A6942F008029A619A69B3
:100CD00002F008020292029A9A6942F020029A6196
:100CE0009B6903F020030393039B3D4F224614218D
:100CF000384600F005FEDFF8EC8022464FF49051B4
:100D0000404600F0FDFDDFF8E0902246C021484655
:100D100000F0F6FDDFF8D4A001224021504600F09B
:100D2000EFFD4FF400530493314D0595069404A94B
:100D3000484600F0C9FC012604960595069404A9CE
:100D4000384600F0C1FC142304930596069402254E
:100D5000079504A9384600F0B7FC082304930594CE
:100D6000069404A9384600F0AFFC4FF49053049366
:100D700005960694079504A9404600F0A5FCC023FB
:100D8000049305960694079504A9484600F09CFC38
:100D90004023049305960694079504A9504600F055
:100DA00093FC4FF4807304930594069504A9404680
:100DB00000F08AFC22460521062000F0B1FB062047
:100DC00000F0BEFB22460521282000F0A9FB2820C8
:100DD00000F0B6FB08B0BDE8F08700BF001002408D
:100DE00000080140000C01400010014000140140C7
:100DF0000000311010B504460268074B9A4204D037
:100E00002268054B9A4203D010BD00F01DFBF7E7A6
:100E1000012004F05DFFF7E7002C014072B6FEE709
:100E200000B597B0282200210CA807F065FE00232A
:100E30000793089309930A930B93019302930393E7
:100E400004930593069301220C924FF480330D9383
:100E500010920222139214934FF4E01315930CA8EE
:100E600001F0AAFDC0B90F230793022108910023C6
:100E700009934FF480620A920B9307A801F0CEFF0A
:100E800060B9102301930023069301A802F0C0F873
:100E900030B917B05DF804FBFFF7C0FFFFF7BEFFE6
:100EA000FFF7BCFF08B500F0BDFAFFF7B9FFFFF789
:100EB000EFFE00F085F800F029FA00F023F804F0C6
:100EC00063FE00F09FF8002209490A4806F05CFD25
:100ED0000146094807F0B4FD084807F0D1F906F0CB
:100EE0008DFF00224021064800F00AFDFEE700BF0A
:100EF000F00B0020C0090020F0E60008F4E600082E
:100F000000140140064B074A1A6000225A609A609A
:100F1000DA601A614FF480425A6102229A61704786
:100F2000F40700200080014030B589B0002304930D
:100F300005930693079302681E4B9A4201D009B0AD
:100F400030BD03F510435A6942F480625A615A6910
:100F500002F480620192019A9A6942F010029A6149
:100F60009A6902F010020292029A9A6942F02002F3
:100F70009A619B6903F020030393039B4FF4F8539A
:100F80000493022505950324079404A90A4800F058
:100F90009BFB042304930595079404A9074800F0DC
:100FA00093FB00220521312000F0BAFA312000F035
:100FB000C7FAC4E70080014000100140001401405E
:100FC00008B50E480E4B03604FF482734360002354
:100FD0008360C360036143614FF400728261282221
:100FE000C2610362436283620A23C36202F0C4FFE8
:100FF00000B908BDFFF712FFFBE700BFD0080020D3
:101000000030014008B50F480F4B03604FF4827366
:10101000436000238360C3600222026101224261B7
:101020004FF4007282613822C261036243628362BC
:101030000A23C36202F0A0FF00B908BDFFF7EEFE6D
:10104000FBE700BF780800200038004010B588B0EA
:10105000002304930593069307930368274A93425A
:1010600004D0274A93421FD008B010BD254B9A697F
:1010700042F480529A619A6902F480520092009A76
:101080009A6942F004029A619B6903F00403019398
:10109000019BA0230493022305930323079304A930
:1010A000194800F011FBDFE7164BDA6942F4804281
:1010B000DA61DA6902F480420292029A9A6942F095
:1010C00008029A619B6903F008030393039B4FF4A2
:1010D0002043049302230593032307930B4C04A995
:1010E000204600F0F1FA4FF4804304930023059367
:1010F000069304A9204600F0E7FAB5E70030014066
:10110000003800400010024000080140000C01407F
:1011100000B583B0114B9A6942F001029A619A6955
:1011200002F001020092009ADA6942F08052DA611C
:10113000DB6903F080530193019B00220F216FF0C4
:10114000010000F0EDF9064A536823F0E06343F034
:101150000073536003B05DF804FB00BF0010024051
:101160000000014030B589B004461E4B9A6942F434
:1011700000629A619B6903F400630193019B02A9D9
:1011800003A801F027FF01F015FF174AA2FB002377
:101190009B0C013B1548164A026040F2E732C260E0
:1011A0004360002303618360836103F08BF805468D
:1011B00010B1284609B030BD0C4802F039FF054691
:1011C0000028F6D1192000F0BBF90F2C01D9012518
:1011D000EFE700222146192000F0A2F9054B1C6020
:1011E000E7E700BF0010024083DE1B432809002010
:1011F000002C014008000020FEE7FEE7FEE7FEE7C6
:10120000FEE7704708B5012000F080FB08BD000034
:1012100008B5024801F07CF908BD00BF1C1400208D
:1012200008B5024802F044FF08BD00BF28090020AD
:1012300008B54FF4005000F069FB08BD08B502483E
:1012400002F0B4FD08BD00BFF40700200120704784
:1012500008B507F007FD162303604FF0FF3008BD07
:1012600008B54FF0FF31FFF7F3FFFEE770B50C460E
:101270001646002506E0AFF30080214601F8010B79
:1012800001350C46B542F6DB304670BD70B50C46F4
:101290001646002504E014F8010B00F08DF8013526
:1012A000B542F8DB304670BD4FF0FF3070474FF469
:1012B00000534B60002070470120704700207047AA
:1012C00010B503460C4A0D490D48006840B10C4862
:1012D00000680344521A934206D8094A136010BDAD
:1012E0000748084C0460F2E707F0BCFC0C230360DD
:1012F0004FF0FF30F3E700BF0000012000100000B6
:1013000070090020201A00207047000008B50A4824
:101310000A4B03604FF4E133436000238360C360F2
:1013200003610C2242618361C36103F085F800B957
:1013300008BDFFF773FDFBE774090020003801408A
:1013400010B586B0002302930393049305930268BB
:10135000174B9A4201D006B010BD03F558439A6965
:1013600042F480429A619A6902F480420092009AA3
:101370009A6942F004029A619B6903F004030193A5
:10138000019B4FF4007302930223039303230593FD
:10139000084C02A9204600F097F94FF480630293AD
:1013A00000230393049302A9204600F08DF9D2E7AD
:1013B000003801400008014000B583B001904FF6AD
:1013C000FF73012201A9034803F066F8019803B0F6
:1013D0005DF804FB740900200C480D490D4A0023F8
:1013E00002E0D458C4500433C4188C42F9D30A4ADA
:1013F0000A4C002301E013600432A242FBD3FFF742
:1014000083FF07F035FCFFF74DFD7047000000201B
:10141000D807002018EC0008D8070020201A002068
:10142000FEE7000008B5074A136843F01003136095
:10143000032000F063F80420FFF794FEFFF768FE36
:10144000002008BD00200240034A1168034B1B78AE
:101450000B441360704700BFBC090020040000204B
:10146000014B1868704700BFBC09002038B504461E
:10147000FFF7F6FF0546B4F1FF3F02D0044B1B789F
:101480001C44FFF7EDFF401BA042FAD338BD00BF5C
:1014900004000020002808DB0901C9B200F1604007
:1014A00000F5614080F80013704700F00F0009015B
:1014B000C9B2014B1954704714ED00E000B500F0BB
:1014C0000700C0F1070CBCF1040F28BF4FF0040C5B
:1014D000031D062B0FD9C31E4FF0FF3E0EFA0CF072
:1014E00021EA000199400EFA03FE22EA0E0241EAC7
:1014F00002005DF804FB0023EEE70000074AD36812
:1015000023F4E0631B041B0C000200F4E0600343BF
:1015100043F0BF6343F40033D360704700ED00E055
:1015200010B50446054BD868C0F30220FFF7C6FF8C
:1015300001462046FFF7AEFF10BD00BF00ED00E002
:10154000002807DB00F01F02400901239340024AF4
:1015500042F82030704700BF00E100E008B590F885
:101560002130DBB2022B03D004238363012008BDAA
:101570000268136823F00E0313600268136823F0F7
:101580000103136003684C4A93424ED9783A934260
:1015900024D01432934230D0143293422FD01432DC
:1015A00093422FD0143293422FD0143293422FD033
:1015B000143293422FD002F5627293422ED014322D
:1015C00093422DD0143293422CD01432934202D045
:1015D0004FF4803203E04FF4805200E00122374B99
:1015E0005A60012380F82130002380F82030436BBB
:1015F000002B5ED098470020B9E71022EFE74FF4A8
:101600008072ECE74FF48052E9E74FF48032E6E76E
:101610004FF48012E3E74FF08072E0E70122DEE74B
:101620001022DCE74FF48072D9E7254A934224D098
:101630001432934225D01432934224D01432934270
:1016400024D01432934224D01432934224D0143242
:10165000934224D002F56272934223D01432934213
:1016600022D01432934221D01432934202D04FF44C
:10167000803203E04FF4805200E00122114B5A60A7
:10168000AFE71022FAE74FF48072F7E74FF4805289
:10169000F4E74FF48032F1E74FF48012EEE74FF0B9
:1016A0008072EBE70122E9E71022E7E74FF480724E
:1016B000E4E700205BE700BF800002400004024036
:1016C000080002400000024070B582B00024A44629
:1016D000ACE0854DAB4210D007D9844DAB420CD065
:1016E00005F58035AB4208D013E0A5F58015AB4277
:1016F00003D005F57025AB4207D18B68002B5FD076
:10170000012B58D04261082403E0A5F58015AB42B7
:10171000F3D0BEF1FF0F55D806464FEA8C0233686E
:101720000F25954023EA050304FA02F213433360C0
:101730004B6813F0805F77D06D4B9A6942F00102DD
:101740009A619B6903F001030193019B4FEA9C029C
:10175000951C684B53F825600CF00305AD000F2372
:10176000AB4026EA0306644B984232D003F580630F
:10177000984200F0978003F58063984200F09480CF
:1017800003F58063984200F0918003F580639842EE
:1017900000F08E8003F58063984218D0062319E08C
:1017A000CC68B6E7CC680434B3E7CC680834B0E75B
:1017B000CC680C34ADE702610824AAE70024A8E74E
:1017C0000424A6E7061DACF108029200A7E7052352
:1017D00000E00023AB4033430232464D45F822304F
:1017E0004B6813F4801F65D0444A936843EA0E03A4
:1017F00093604B6813F4001F62D0404AD36843EAF9
:101800000E03D3604B6813F4003F5FD03B4A53682C
:1018100043EA0E0353604B6813F4803F5CD0374AB1
:10182000136843EA0E0313600CF1010C0B6833FAE2
:101830000CF257D0012202FA0CF203EA020E32EA4D
:101840000303F1D14B68122B3FF643AF122B3FF647
:1018500060AF01A555F823F0FB160008A11700089A
:10186000AB170008BD17000813170008131700086E
:1018700013170008131700081317000813170008A0
:101880001317000813170008131700081317000890
:10189000131700081317000813170008A5170008EE
:1018A000B1170008012395E7022393E7032391E78B
:1018B00004238FE7114A936823EA0E03936098E7A5
:1018C0000E4AD36823EA0E03D3609BE70B4A5368A2
:1018D00023EA0E0353609EE7084A136823EA0E03C7
:1018E0001360A1E702B070BD0000221000003110AB
:1018F00000100240000001400008014000040140C7
:101900000AB10161704709040161704708B5054BD0
:101910005B69034200D108BD024B586104F0D4F961
:10192000F9E700BF0004014038B512F4804F44D0FD
:101930000468B4F850309BB291F800C003EBCC03BC
:10194000023304EB4304B4F80044C4F309048B6984
:10195000A34228D31B1B8B618B697BB9056835F8C3
:101960002C309BB223F4804323F0700383F40053A4
:1019700043F4004343F0800325F82C3012F0400F6D
:101980000ED002680D7832F825309BB223F4E04384
:1019900023F0700343F4004343F0C00322F82530E2
:1019A00024B9204638BD00238B61D5E723460A8938
:1019B0004969006804F0D0F8F3E70468B4F85030DF
:1019C0009BB291F800C003EBCC03063304EB430455
:1019D000B4F80044C4F309048B69A3422FD31B1B42
:1019E0008B618B697BB9056835F82C309BB223F489
:1019F000804323F0700383F4005343F4004343F027
:101A0000800325F82C3012F0400F0FD1026891F8B6
:101A100000C032F82C309BB223F4E04323F0700373
:101A200043F4004343F0C00322F82C30002CB8D01C
:101A300023464A894969006804F08EF8B1E700231B
:101A40008B61CEE770B586B0002800F08180044637
:101A500090F8A932EBB1032384F8A932206803F08F
:101A60000AF9254655F8106BEC460FCDACE80F008F
:101A70002B68CCF80030231D0ECB304603F0EBF87A
:101A8000054658B1022384F8A9320125284606B03C
:101A900070BD80F8A83206F0DDFADCE7002120688E
:101AA00003F0F3F82B4616E05A1C02EB820104EB1C
:101AB000C1010120487002EB820104F8313004EBCF
:101AC000C1000021C17003EB830004EBC0008163FF
:101AD000C1630164D3B261688B42E5D316E005EBC4
:101AE000850304EBC303002283F8692183F868515E
:101AF00083F86B21C3F87821C3F87C2105EB8503BB
:101B000004EBC303C3F880210135EDB2A942E6D846
:101B1000254655F8106BEC460FCDACE80F002B684E
:101B2000CCF80030231D0ECB304603F0B0F805464C
:101B300020B1022384F8A9320125A7E7002384F805
:101B40002430012384F8A932206803F003FC9DE7C8
:101B500001259BE738B590F8A832012B11D0044637
:101B6000012580F8A852006803F07CF82946204639
:101B700006F085FB206803F0EBFB002084F8A80248
:101B800038BD0220FCE770B505460C46164612F03B
:101B9000400F00F00E810268B2F850309BB2097815
:101BA00003EBC103023302EB4302B2F80024C2F399
:101BB0000902A36993424ED99B1AA361A369002B22
:101BC00066D16378002B49D12B68B3F8502092B2CC
:101BD000134403EB0113B3F80424C2F30902A3F87E
:101BE0000424B3F804246FEA42426FEA524292B2EC
:101BF000A3F804242B686278002A3CD1B3F8502063
:101C000092B21344227803EB0213B3F80C24C2F30C
:101C10000902A3F80C24B3F80C246FEA42426FEADD
:101C2000524292B2A3F80C242178284606F046FAD4
:101C300016F4804F41D02A68217832F821309BB2C7
:101C400023F4E04323F0700343F4404343F0800364
:101C500022F8213031E00023A361AFE7012BC9D185
:101C60002B68B3F8502092B2134403EB0113002207
:101C7000A3F80424BEE7012AD6D1B3F8502092B2CB
:101C80001344227803EB02130022A3F80C24CBE7C1
:101C900016F4804F0DD0286830F821309BB223F421
:101CA000E04323F0700343F4404343F0800320F803
:101CB000213094F82430012B12D02A68217832F890
:101CC00021309BB223F4E04323F0400383F0300340
:101CD00043F4004343F0800322F82130002070BD1C
:101CE000636913446361E3691344E361216A23690F
:101CF000994224D3C91A21626278002A44D12A6801
:101D0000B2F8501089B20A44217802EB0112B2F8FD
:101D10000414C1F30901A2F804143E2B1BD958097D
:101D200013F01F0F00D10138B2F8041489B28002F9
:101D300080B2014341F40041A2F8041426E021B925
:101D4000002384F824301346D6E7002384F8243097
:101D500023620B46D0E74BB9B2F804146FEA414155
:101D60006FEA514189B2A2F804140FE0590813F048
:101D7000010F00D00131B2F8040480B2890289B2A7
:101D80000143A2F8041401E0012A06D09BB2228983
:101D90006169286803F0E6FA8FE72A68B2F8501004
:101DA00089B20A44217802EB011299B2A2F8041414
:101DB000ECE70268B2F850309BB2097803EBC1033C
:101DC000063302EB4302B2F80024C2F30902A3690E
:101DD00093424FD39B1AA361A369002B67D1637809
:101DE000002B4AD12B68B3F8502092B2134403EB76
:101DF0000113B3F80424C2F30902A3F80424B3F8CE
:101E000004246FEA42426FEA524292B2A3F80424D9
:101E10002B686278002A3DD1B3F8502092B2134467
:101E2000227803EB0213B3F80C24C2F30902A3F8DF
:101E30000C24B3F80C246FEA42426FEA524292B289
:101E4000A3F80C242178284606F038F916F4804FC0
:101E50007FF433AF2A68217832F821309BB223F423
:101E6000E04323F0700343F4404343F0800322F83F
:101E7000213022E70023A361AEE7012BC8D12B68F4
:101E8000B3F8502092B2134403EB01130022A3F8DD
:101E90000424BDE7012AD5D1B3F8502092B21344EF
:101EA000227803EB02130022A3F80C24CAE716F4ED
:101EB000804F0DD1286830F821309BB223F4E043E5
:101EC00023F0700343F4404343F0800320F82130B3
:101ED00094F82430012B7FF4F0AE636913446361FE
:101EE000E3691344E361216A2369994224D3C91A3F
:101EF00021622A686178002943D1B2F8501089B272
:101F00000A44217802EB0112B2F80C14C1F3090162
:101F1000A2F80C143E2B1BD9580913F01F0F00D147
:101F20000138B2F80C1489B2800280B2014341F446
:101F30000041A2F80C1426E021B9002384F82430D3
:101F40001346D6E70023236284F824300B46D0E7FB
:101F50004BB9B2F80C146FEA41416FEA514189B2B2
:101F6000A2F80C140FE0590813F0010F00D0013152
:101F7000B2F80C0480B2890289B20143A2F80C14B1
:101F800001E0012906D09BB262896169286803F0EB
:101F9000E9F992E6B2F8501089B20A44217802EBCE
:101FA000011299B2A2F80C14EDE72DE9F0410546B3
:101FB0002868B0F8443013F4004F00F09282B0F873
:101FC0004440A3B214F00F0440F0E28013F0100F6D
:101FD0006BD003889AB213F4006F40F09D8012F426
:101FE000004FE5D0038823F070031B051B0D43F061
:101FF000800303802868B0F850309BB295F86821C0
:1020000003EBC203063300EB4303B3F80034C3F31E
:102010000903C5F884318BB1D5F87C1171B1B5F8DD
:102020006E2103F099FDD5F87C31D5F88421134455
:10203000C5F87C310021284606F034F82A68138858
:1020400099B213F4006FB3D101F44051B1F5405F80
:10205000AED0B2F850309BB21A44B2F80C34C3F38D
:102060000903A2F80C34D5F878313E2B77D95909F9
:1020700013F01F0F00D10139B2F80C349BB2890262
:1020800089B20B4343F40043A2F80C342A68138846
:102090009BB223F4804323F0700383F4405343F452
:1020A000004343F08003138082E703889BB223F44C
:1020B000E14323F070036FEA43436FEA53439BB25B
:1020C00003802A68B2F850309BB295F8281003EBD1
:1020D000C103023302EB4302B2F80034C3F3090335
:1020E0006B64EA6B1A44EA630021284605F0E6FFB8
:1020F00095F82430002B3FF45BAF2B6C002B7FF462
:1021000057AF95F824302A6843F08003A2F84C308A
:10211000002385F824304BE7B0F850309BB295F897
:10212000682103EBC203063300EB4303B3F800342A
:10213000C3F30903C5F88431B5F86E2105F52C7198
:1021400003F00AFD2A68138823F070031B051B0D9A
:1021500043F080031380284605F09CFF28E74BB925
:10216000B2F80C346FEA43436FEA53439BB2A2F8D0
:102170000C348BE7590813F0010F00D00131B2F88D
:102180000C3498B28B029BB20343A2F80C347DE767
:1021900030F824309EB213F4004F4CD116F0800F6B
:1021A0003FF406AF621C02EB820105EBC101286817
:1021B00030F824309BB223F4E14323F070036FEA3C
:1021C00043436FEA53439BB220F82430CB78012B72
:1021D00000F0F28016F4807F40F07E812868B0F82D
:1021E00050309BB2621C02EB820215F8326003EBA6
:1021F000C603023300EB4303B3F80034C3F309030F
:1022000004EB840205EBC202126C9A4240F24C814C
:1022100004EB840705EBC707D21A3A6404EB840287
:1022200005EBC202126C002A40F045813146284677
:1022300005F044FFBCE630F8243023F070031B05A2
:102240001B0D43F0800320F8243004EB8401C90007
:1022500001F5B47105EB010804EB840305EBC3033E
:1022600093F87431002B42D12868B0F850309BB2FB
:1022700004EB840205EBC20292F8682103EBC2036F
:10228000063300EB4303B3F80074C7F3090717BB29
:1022900004EB840305EBC303D3F884213A44C3F869
:1022A0008421D3F87C213A44C3F87C21D3F88031CF
:1022B0003BB104EB840305EBC303D3F878319F42B1
:1022C00075D204EB840305EBC30393F86811284629
:1022D00005F0E8FE62E704EB840105EBC1013B4633
:1022E000B1F86E21D1F87C1103F036FCD0E704EB95
:1022F000840305EBC30393F86B31022B35D02968B7
:1023000004EB840205EBC20292F8680131F8203038
:102310009BB223F4E04323F0700343F4004343F003
:10232000C00321F82030286892F8682130F8223064
:1023300013F4804F20D0B0F850309BB203EBC203AF
:10234000023300EB4303B3F80074C7F30907002F0F
:102350009ED004EB840105EBC1013B46B1F870212E
:10236000D1F87C1103F0F8FB92E73246414628464B
:10237000FFF7DAFA07468BE7B0F850309BB203EB71
:10238000C203063300EB4303B3F80074C7F3090735
:10239000002F3FF47DAF04EB840105EBC1013B4608
:1023A000B1F87221D1F87C1103F0D6FB70E74146F9
:1023B000286802F0EAFFF1E604EB840305EBC303AF
:1023C00000221A6493F83430FBB116F0400F37D076
:1023D0004B781BBB2B68B3F8502092B21344621C9D
:1023E00002EB820215F8322003EB0213B3F8042447
:1023F000C2F30902A3F80424B3F804246FEA4242AA
:102400006FEA524292B2A3F80424013404EB84042C
:1024100015F83410284605F051FEC9E5012BF4D11A
:102420002B68B3F8502092B21344621C02EB820274
:1024300015F8322003EB02130022A3F80424E4E78A
:102440002A68631C03EB830305EBC3035B78D3B9F2
:10245000B2F850309BB21344621C02EB820215F8B2
:10246000322003EB0213B3F80C24C2F30902A3F8E1
:102470000C24B3F80C246FEA42426FEA524292B243
:10248000A3F80C24C1E7012BBFD1B2F850309BB2A6
:102490001344621C02EB820215F8322003EB021394
:1024A0000022A3F80C24B0E704EB840205EBC2027F
:1024B00000271764B2E604EB840205EBC202D66B78
:1024C0001E44D663526C04EB840405EBC40413442D
:1024D000636402F05AFF6BE532462846FFF753FB70
:1024E00066E50020BDE8F08190F8A832012B0DD000
:1024F00010B50446012380F8A83280F82410006843
:1025000002F020FF002084F8A80210BD02207047CE
:1025100010B584B00446006802F01EFF10F4004FAE
:1025200020D110F4806F21D110F4804F2FD110F4FE
:10253000005F37D110F4805F3ED110F4006F40F09F
:10254000878010F4007F40F0AE8010F4807F27D0A9
:102550002268B2F844309BB223F480739BB2A2F895
:1025600044301DE02046FFF720FD19E02268B2F854
:1025700044309BB223F480639BB2A2F844302046DF
:1025800005F0ADFD00212046FFF7AEFF08E0226810
:10259000B2F844309BB223F480439BB2A2F844309B
:1025A00004B010BD2268B2F844309BB223F400534B
:1025B0009BB2A2F84430F3E72268B2F840309BB2F5
:1025C00023F004039BB2A2F840302268B2F84030F6
:1025D0009BB223F008039BB2A2F84030204605F0DE
:1025E000A1FD2268B2F844309BB223F480539BB221
:1025F000A2F84430D4E7226832F8231004AA02EB90
:10260000430222F8101C0133DBB2072BF3D92268F6
:10261000B2F840309BB243F00103A2F84030226888
:10262000B2F840309BB223F001039BB2A2F84030D5
:102630002368B3F8442012F4806FF9D0B3F8442033
:1026400092B222F4806292B2A3F8442000230BE0FD
:102650000023DAE7226804A901EB430131F8101CDA
:1026600022F823100133DBB2072BF3D92268B2F82A
:1026700040309BB243F00803A2F840302268B2F821
:1026800044309BB223F400639BB2A2F8443022682A
:10269000B2F840309BB243F00403A2F84030204629
:1026A00005F030FD7CE72268B2F844309BB223F499
:1026B00000739BB2A2F84430204605F00AFD6FE794
:1026C00010B50446084611F0800F25D101F0070C23
:1026D0000CEB8C01C90001F5B47E04EB0E010CEB90
:1026E0008C0C04EBCC0C4FF0000E8CF869E100F080
:1026F000070008700A61CB70022B1AD094F8A83238
:10270000012B19D0012384F8A832206802F0D4FAF2
:10271000002084F8A80210BD01F0070C0CF1010C98
:102720000CEB8C0104EBC1014FF0010E81F801E0CC
:10273000DDE700230B71E1E70220ECE710B504466A
:102740000B4611F0800F1FD101F0070202EB82014E
:10275000C90001F5B471014402EB820200EBC20230
:10276000002082F8690103F007030B7094F8A83287
:10277000012B13D0012384F8A832206802F081FCD9
:10278000002084F8A80210BD01F00702013202EB1C
:10279000820100EBC10101204870E4E70220F2E76A
:1027A00010B501F0070C0CEB8C01C90001F5B471F8
:1027B0000CEB8C0E00EBCE0ECEF87C21CEF88031E7
:1027C0000024CEF884418EF869418EF868C1014436
:1027D000006802F0DAFD204610BD01F0070101EBB0
:1027E000810100EBC100D0F88401704738B501F0D9
:1027F000070404F1010C0CEB8C0104EB840E00EBDC
:10280000CE0ECEF83C20CEF8403001228EF84C207F
:10281000CEF848300025CEF8445000EBC1035A7082
:1028200000F831401946006802F0AFFD284638BD77
:1028300038B501F007054268954231D804460B4689
:1028400011F0800F1ED101EB8101C90001F5B471B7
:10285000014403EB830300EBC303002283F86921E7
:1028600001238B700D7094F8A832012B1AD001232C
:1028700084F8A832206802F0EFFC5DB1002084F8F3
:10288000A80238BD6B1C03EB830100EBC1010122E0
:102890004A70E5E704F52C71206802F061FDEDE770
:1028A0000120EEE70220ECE70B4601F00F01426841
:1028B000914230D810B5044613F0800F21D103F0B7
:1028C000070202EB8201C90001F5B471014402EB79
:1028D000820200EBC202002082F8690100228A70A5
:1028E00003F007030B7094F8A832012B15D00123D5
:1028F00084F8A832206802F0D4FC002084F8A802F2
:1029000010BD03F00702013202EB820100EBC101AE
:1029100001204870E2E7012070470220F0E790F8BC
:10292000A832012B14D010B50446012380F8A83238
:1029300011F0800F06D1006802F0BCF9002084F885
:10294000A80210BD01F00701006802F0B1F9F5E737
:102950000220704711F0800F0BD001F00701013108
:1029600001EB810100EBC10052B90273C38000206A
:10297000704701EB8101C90001F5B4710844F3E728
:102980000122027303811B0C4381F0E782B0084BE4
:102990001B68084AA2FB03235B0A00FB03F30193B5
:1029A00000BF019B5A1E0192002BF9D102B0704763
:1029B00000000020D34D6210002800F0F18170B5B6
:1029C00082B00446036813F0010F2CD0994B5B686A
:1029D00003F00C03042B1DD0964B5B6803F00C0333
:1029E000082B12D06368B3F5803F41D0002B55D13E
:1029F00003F1804303F504331A6822F480321A602D
:102A00001A6822F480221A6037E08A4B5B6813F45C
:102A1000803FE7D0874B1B6813F4003F03D0636807
:102A2000002B00F0BF81236813F0020F75D0814B9B
:102A30005B6813F00C0F5FD07E4B5B6803F00C03F8
:102A4000082B54D02369002B00F08A807A4B012296
:102A50001A60FEF705FD0546764B1B6813F0020F62
:102A600075D1FEF7FDFC401B0228F5D903209EE13D
:102A7000704A136843F480331360636843B3FEF70E
:102A8000EFFC05466B4B1B6813F4003FCBD1FEF700
:102A9000E7FC401B6428F5D9032088E1B3F5A02F9B
:102AA00009D0644B1A6822F480321A601A6822F442
:102AB00080221A60E1E703F18043A3F53C331A68F2
:102AC00042F480221A601A6842F480321A60D4E715
:102AD000FEF7C6FC0546574B1B6813F4003FA2D017
:102AE000FEF7BEFC401B6428F5D903205FE1514B83
:102AF0005B6813F4803FA5D14E4B1B6813F0020FA7
:102B000003D02369012B40F04F814A4A136823F018
:102B1000F803616943EAC1031360236813F0080FE7
:102B200033D0A369002B5CD0434B0122C3F880242F
:102B3000FEF796FC05463F4B5B6A13F0020F21D16E
:102B4000FEF78EFC401B0228F5D903202FE1394AFD
:102B5000136823F0F803616943EAC1031360DCE7FB
:102B6000354B00221A60FEF77BFC0546314B1B6893
:102B700013F0020FD1D0FEF773FC401B0228F5D9E9
:102B8000032014E10120FFF701FF236813F0040F75
:102B900000F09680274BDB6913F0805F34D1254B22
:102BA000DA6942F08052DA61DB6903F08053019305
:102BB000019B0125214B1B6813F4807F26D0E3681D
:102BC000012B3DD0002B53D103F1804303F5043397
:102BD0001A6A22F001021A621A6A22F004021A62C8
:102BE00033E0154B0022C3F88024FEF739FC05467C
:102BF000104B5B6A13F0020FC7D0FEF731FC401B8D
:102C00000228F5D90320D2E00025D3E70B4A136848
:102C100043F480731360FEF723FC0646074B1B68E2
:102C200013F4807FCBD1FEF71BFC801B6428F5D901
:102C30000320BCE00010024000004242007000404F
:102C40005F4A136A43F001031362E36833B3FEF78C
:102C500007FC06465A4B1B6A13F0020F2FD1FEF7F2
:102C6000FFFB801B41F288339842F3D903209EE09A
:102C7000052B09D0524B1A6A22F001021A621A6A15
:102C800022F004021A62E0E74D4B1A6A42F0040295
:102C90001A621A6A42F001021A62D6E7FEF7E0FBF6
:102CA0000646474B1B6A13F0020F08D0FEF7D8FB0D
:102CB000801B41F288339842F3D9032077E0E5B9CD
:102CC000E369002B72D03E4A526802F00C02082AD7
:102CD00056D0022B17D03B4B00221A66FEF7C0FBE2
:102CE0000446374B1B6813F0007F47D0FEF7B8FB54
:102CF000001B0228F5D9032059E0314AD36923F09B
:102D00008053D361DCE72F4B00221A66FEF7A8FB45
:102D100005462B4B1B6813F0007F06D0FEF7A0FB87
:102D2000401B0228F5D9032041E0236AB3F5803F18
:102D30001AD023494B6823F47413226A606A024351
:102D400013434B601F4B01221A66FEF789FB0446B2
:102D50001B4B1B6813F0007F0ED1FEF781FB001B9D
:102D60000228F5D9032022E0154A536823F40033E2
:102D7000A1680B435360DCE7002018E0002016E058
:102D8000012B16D00E4B5B6803F48031226A91420E
:102D900011D103F47013626A93420ED1002006E051
:102DA00001207047012002E0012000E0002002B075
:102DB00070BD0120FBE70120F9E70120F7E700BF24
:102DC00000100240000042420F4B5B6803F00C020F
:102DD000082A01D00D487047C3F383420C49885C30
:102DE00013F4803F0BD0084B5B68C3F34043094AA0
:102DF000D35C064A02FB00F0B0FBF3F07047064BD1
:102E000003FB00F0704700BF0010024000127A0080
:102E100014E7000810E7000800093D00002800F052
:102E2000A08070B50D460446524B1B6803F00703A3
:102E30008B420BD24F4A136823F007030B431360F6
:102E4000136803F007038B4240F08D80236813F072
:102E5000020F17D013F0040F04D0474A536843F40D
:102E6000E0635360236813F0080F04D0424A5368AC
:102E700043F460535360404A536823F0F003A16861
:102E80000B435360236813F0010F31D06368012BAB
:102E900020D0022B25D0384A126812F0020F64D0DD
:102EA00035494A6822F0030213434B60FEF7D8FA13
:102EB0000646314B5B6803F00C036268B3EB820F8C
:102EC00016D0FEF7CDFA801B41F288339842F0D934
:102ED000032045E0284A126812F4003FE0D10120A7
:102EE0003EE0254A126812F0007FD9D1012037E078
:102EF000204B1B6803F00703AB420AD91D4A136835
:102F000023F007032B431360136803F00703AB425E
:102F10002DD1236813F0040F06D0174A536823F409
:102F2000E063E1680B435360236813F0080F07D098
:102F3000114A536823F46053216943EAC103536083
:102F4000FFF742FF0C4B5B68C3F303130B4AD35CE0
:102F5000D8400B4B18600B4B1868FEF703F90020A4
:102F600070BD012070470120FAE70120F8E7012039
:102F7000F6E700BF002002400010024000E7000812
:102F80000000002008000020014B1868704700BFB7
:102F90000000002008B5FFF7F7FF044B5B68C3F3A0
:102FA0000223034AD35CD84008BD00BF0010024092
:102FB000F8E6000808B5FFF7E7FF044B5B68C3F3CA
:102FC000C223034AD35CD84008BD00BF00100240B2
:102FD000F8E600080F2303600B4B5A6802F0030267
:102FE00042605A6802F0F00282605A6802F4E062BD
:102FF000C2605B68DB0803F4E0630361034B1B689A
:1030000003F007030B6070470010024000200240ED
:1030100070B582B00446036813F0010F36D03F4B01
:10302000DB6913F0805F49D13C4BDA6942F0805292
:10303000DA61DB6903F080530193019B0125384B72
:103040001B6813F4807F3BD0344B1B6A13F440732E
:1030500013D0626802F440729A420ED02F4A136A6B
:1030600023F440702F490126C1F840640026C1F8BE
:103070004064106213F0010F36D1284A136A23F41A
:10308000407361680B431362002D3ED1236813F037
:10309000020F06D0214A536823F44043A1680B4332
:1030A0005360236813F0100F34D01C4A536823F484
:1030B000800361690B43536000202CE00025BEE7CC
:1030C000174A136843F480731360FEF7C9F9064684
:1030D000134B1B6813F4807FB6D1FEF7C1F9801B38
:1030E0006428F5D9032016E0FEF7BAF906460B4B23
:1030F0001B6A13F0020FC0D1FEF7B2F9801B41F238
:1031000088339842F3D9032005E0D36923F0805334
:10311000D361BBE7002002B070BD00BF00100240C9
:10312000007000400000424270B582B004460023A7
:103130000193006801F07FFA054610B1284602B0FD
:1031400070BD206801F070FD38B90123A364A36C41
:10315000012B0BD02E46284614E00023A3642068E0
:1031600001F069FA0028F2D00546E7E7002120685F
:1031700001F0C8FB0028EDD04FF08055DEE7019B41
:1031800001330193019A4FF6FE739A4213D896B910
:103190000021206801F0B6FBE0B91249206801F077
:1031A0008FFC0646C0B90021206801F02FFAC30F3A
:1031B000E5D01E46E3E7019A4FF6FE739A420ED819
:1031C00010F0804302D001236364B7E700226264F9
:1031D0001D46B3E70546B1E74FF08055AEE74FF027
:1031E0008075ABE7000010C1F8B5846AC66AA6B95D
:1031F000F8BD386801F0E5F92070C0F3072363706B
:10320000C0F30743A370000EE0700434043E0135A0
:10321000072DEED9BC62FE62EAE707460025F7E714
:10322000F0B583B0046A466ADEB903B0F0BD237816
:103230000193627843EA02230193A27843EA0243AE
:103240000193E27843EA026301930434043E01A946
:10325000386801F0B9F90135072DE8D93C627E6282
:10326000E3E707460025F7E7F0B589B004460F46C7
:10327000FEF7F6F806460023009301930821206824
:1032800001F096FA054610B1284609B0F0BD216D4F
:103290000904206801F036FB05460028F4D14FF000
:1032A000FF330293082303933023049302230593EF
:1032B000002306930123079302A9206801F0A9F9CE
:1032C000206801F04FFB054658B1DDE701F079F9C0
:1032D0004DF825000135FEF7C3F8831BB3F1FF3F1E
:1032E0003FD02068436B13F02A0F07D1436B13F4D0
:1032F000001FEBD1436B13F4005FECD1436B13F071
:10330000080F25D1436B13F0020F24D1456B15F044
:10331000200523D140F23A538363019A130203F448
:103320007F0343EA0263110A01F47F410B4343EA3E
:1033300012633B60009A130203F47F0343EA0263C3
:10334000110A01F47F410B4343EA12637B609BE760
:103350000825856398E70225856395E72025856321
:1033600092E74FF000458FE710B582B00446002188
:1033700000910191006801F049F910F0007F13D12C
:1033800069462046FFF770FF80B9019B13F4802F38
:103390000ED0216D0904206801F0B4FA30B9022181
:1033A000206801F0C7FA01E04FF4006002B010BDE0
:1033B0004FF08060FAE710B582B00446002100911A
:1033C0000191006801F022F910F0007F13D16946E5
:1033D0002046FFF749FF80B9019B13F4803F0ED0D0
:1033E000216D0904206801F08DFA30B900212068B0
:1033F00001F0A0FA01E04FF4006002B010BD4FF000
:103400008060FAE770B581B104460E46016D09048B
:10341000006801F0BFFA054608B1284670BD0021DA
:10342000206801F0F3F83060F7E74FF00065F4E74B
:103430002DE9F04F87B005460C4616469B46DDF851
:1034400040A0FEF70DF8002C36D0814695F8347078
:10345000FFB2012F40F005810023AB6306EB0B03A5
:10346000EA6D93422ED8032385F834302B6800226E
:10347000DA626B6C012B00D076024FF0FF330093C1
:103480004FEA4B23019390230293022303930023DB
:103490000493012305936946286801F0BAF8BBF14B
:1034A000010F14D902232B633146286801F0B0F9CB
:1034B000A0B9DDF8048038E0AB6B43F00063AB6388
:1034C0000127D3E0AB6B43F00073AB63CEE0012385
:1034D0002B633146286801F083F9E9E72B68654AD8
:1034E0009A63AB6B0343AB63012385F8343000234D
:1034F0002B63BBE0286801F064F82070C0F3072359
:103500006370C0F30743A370000EE0700434A8F1A9
:1035100004080136072EEDD9FDF7A2FFA0EB090044
:10352000504510D2BAF1000F0DD02868466B40F21A
:103530002A331E4015D1436B13F4004FECD0B8F181
:10354000000FE9D0E6E72B684A4A9A63AB6B43F079
:103550000043AB63012385F8343000232B6303273A
:1035600084E0436B13F4807F05D0BBF1010F02D9D7
:103570006B6C032B38D12B685A6B12F0080F44D1B7
:103580005A6B12F0020F4CD15A6B12F0200F54D12B
:103590002868436B13F4001F5BD0B8F1000F58D0BC
:1035A00001F00FF82070C0F307236370C0F30743E6
:1035B000A370000EE0700434A8F10408FDF750FF7A
:1035C000A0EB0900504502D2BAF1000FE0D12B6800
:1035D000284A9A63AB6B43F00043AB63012385F841
:1035E000343000232B6341E001F05AF903460028F0
:1035F000C1D02A681F499163AA6B1343AB630123AF
:1036000085F8343000232B6330E01A4A9A63AB6BA1
:1036100043F00803AB63012385F8343000232B63A8
:1036200024E0144A9A63AB6B43F00203AB630123BB
:1036300085F8343000232B6318E00E4A9A63AB6B95
:1036400043F02003AB63012385F8343000232B6360
:103650000CE040F23A538363012385F834300027AD
:1036600004E0AB6B43F00053AB630127384607B06F
:10367000BDE8F08FFF0540002DE9F04F8BB0054607
:103680000C4616469B46DDF850A0FDF7E9FE002CDF
:1036900037D0804695F83470FFB2012F40F0E280B9
:1036A0000023AB6306EB0B03EA6D93422FD8032391
:1036B00085F834302B680022DA626B6C012B00D065
:1036C00076024FF0FF3304934FEA4B230593902388
:1036D00006930023079308930123099304A92868FC
:1036E00000F097FFBBF1010F16D920232B63314661
:1036F000286801F0BDF80190019BABB9DDF814908A
:1037000040E0AB6B43F00063AB630127AFE0AB6B12
:1037100043F00073AB63AAE010232B6331462868A3
:1037200001F08EF80190E7E72B68534A9A63AB6B80
:10373000019A1343AB63012385F8343000232B63D4
:1037400095E023780393627843EA02230393A278F7
:1037500043EA02430393E27843EA026303930434A7
:10376000A9F1040903A9286800F02EFF0136072EED
:10377000E7D9FDF775FEA0EB0800504510D2BAF16D
:10378000000F0DD02868466B40F21A331E4015D149
:10379000436B13F4804FECD0B9F1000FE9D0E6E7AA
:1037A0002B68354A9A63AB6B019A1343AB630123D1
:1037B00085F8343000232B63032758E0436B13F460
:1037C000807F05D0BBF1010F02D96B6C032B18D1A0
:1037D0002B685A6B12F0080F24D15A6B12F0020FAB
:1037E0002CD15A6B12F0100F34D0234A9A63AB6B72
:1037F00043F01003AB63012385F8343000232B63BF
:1038000035E001F04DF803460028E1D02A681A4956
:103810009163AA6B1343AB63012385F83430002313
:103820002B6324E0144A9A63AB6B43F00803AB6349
:10383000012385F8343000232B6318E00E4A9A6385
:10384000AB6B43F00203AB63012385F834300023F4
:103850002B630CE040F23A529A63012385F834302E
:10386000002704E0AB6B43F00053AB6301273846FD
:103870000BB0BDE8F08F00BFFF05400090F83400AA
:10388000704770470346426E920F0A70426EC2F351
:1038900083624A7090F8672002F003028A7090F801
:1038A0006620CA7090F865200A7190F864204A7109
:1038B000826E120DCA80B0F86A2002F00F020A72FE
:1038C000826EC2F3C0324A72826EC2F380328A7252
:1038D000826EC2F34032CA72826EC2F300320A7341
:1038E00000224A73426C002A40F08680806E40F6C7
:1038F000FC7202EA8002D86E42EA90720A61DA6EC5
:10390000C2F3C2620A7593F86F2002F007024A758B
:10391000DA6EC2F342528A75DA6EC2F38242CA7517
:10392000DA6EC2F3C2320A760A6901325A65087E3B
:1039300000F00700023082405A6591F808C00CF090
:103940000F0C012000FA0CF09865400A00FB02F20F
:10395000DA654FF400721A66DA6EC2F380324A7684
:10396000DA6EC2F3C6128A76DA6E02F07F02CA7687
:103970001A6FD20F0A771A6FC2F341724A771A6F21
:10398000C2F382628A771A6FC2F38352CA771A6FC0
:10399000C2F3405281F82020002081F82100B3F8C2
:1039A000722002F0010281F822201A6FC2F3C032A5
:1039B00081F823201A6FC2F3803281F824201A6F15
:1039C000C2F3403281F825201A6FC2F3003281F829
:1039D00026201A6FC2F3812281F827201A6FC2F3C2
:1039E000012281F828201B6FC3F3460381F8293098
:1039F000012381F82A307047012A11D1826E120406
:103A000002F47C12B0F86E0002430A610A690132C6
:103A100092025A65DA654FF400729A651A669BE75E
:103A2000026805499163826B42F0805282630120F3
:103A300083F83400704700BFFF05400070B590B0B8
:103A400004460123ADF81230006800F0C6FD0028DE
:103A50006CD0636C032B45D1636C032B5DD1636C1D
:103A6000032B1DD0BDF8121021650904206800F059
:103A7000ECFF054600285BD10021206800F0C6FD60
:103A800060660421206800F0C1FDA066082120685E
:103A900000F0BCFDE0660C21206800F0B7FD206757
:103AA0000421206800F0B2FD000DE06405A9204665
:103AB000FFF7E8FE00283ED1226D120400232068A3
:103AC00000F008FF054698BB234653F8106B93E8B7
:103AD00007008DE80700043494E80E00304600F03B
:103AE00057FD25E0206800F09BFF054600BB002144
:103AF000206800F08BFD60670421206800F086FDDF
:103B0000A0670821206800F081FDE0670C21206893
:103B100000F07CFDC4F880009EE70DF112012068E2
:103B200001F038F80546002899D001E04FF0806593
:103B3000284610B070BD4FF08055F9E770B58AB0D7
:103B40000446002304930593069307930893762372
:103B500009930AAB13E907008DE8070004AB0ECB0D
:103B6000206800F015FD18B1012528460AB070BD87
:103B700005461A4E0023C6F8A030206800F029FD43
:103B80000123C6F8A0300220FDF770FC2046FFF7A5
:103B9000CBFA30B1012584F83450A36B0343A363FF
:103BA000E3E72046FFF74AFF30B1012584F834509F
:103BB000A36B0343A363D8E74FF40071206800F0C0
:103BC000F7FD0028D1D0236805499963A36B03430F
:103BD000A363012584F83450C7E700BF00003042DA
:103BE000FF054000A8B110B5044690F8343063B129
:103BF000032384F834302046FFF7A0FF58B9A063B0
:103C00002063012384F8343010BD0377FDF78CF96D
:103C1000EEE7012070470120F6E7436C0B60836CF0
:103C20004B60C36C8B60036DCB60436D0B61836D28
:103C30004B61C36D8B61036ECB6100207047000048
:103C400030B58BB004460D46032380F83430436C06
:103C5000032B1CD0B1F5805F08D0B1F5006F0AD0FE
:103C600079B1836B43F00063836314E0836B43F0AB
:103C7000805383630FE0FFF777FBA36B0343A363DA
:103C800009E0FFF798FBA36B0343A36303E0836B97
:103C900043F080538363A36BC3B12368174A9A63CD
:103CA000012584F834504FF40071206800F080FD45
:103CB00030B1236811499963A36B0343A3630125C2
:103CC000012384F8343028460BB030BD6368049378
:103CD000A3680593E3680693079563690893A3694E
:103CE00009930AAB13E907008DE8070004AB0ECB7C
:103CF000206800F04DFC0025D5E700BFFF0540001F
:103D000010B582B004460023019301A9FFF77AFBA6
:103D100010B1A36B0343A3630198C0F3432002B027
:103D200010BD10B5446A236840F23A529A632046A7
:103D3000FFF7E6FF012384F83430002323630538BE
:103D4000012805D9A36B53B9204601F05EFF10BDD1
:103D5000206800F0A5FDA36B0343A363F2E72046B0
:103D6000FFF78FFDF3E710B5446A236840F23A523B
:103D70009A632046FFF7C4FF012384F83430002300
:103D800023630538012805D9A36B53B9204601F0F8
:103D90003CFF10BD206800F083FDA36B0343A363C9
:103DA000F2E72046FFF76DFDF3E7000038B5044663
:103DB000056B03685A6B12F4004F02D015F0080F20
:103DC00028D15A6B12F4807F5AD04FF480729A63D4
:103DD0002268D36B23F4414323F03A03D363226870
:103DE000D36A23F00103D36215F0080F26D015F033
:103DF000220F12D1236840F23A529A63012384F8C9
:103E000034300023236315F0030F13D0204601F054
:103E100006FF01E0FFF7E8F938BD206800F040FD3B
:103E200003460028E6D0A26B1343A3632046FFF7A6
:103E300028FDDFE7204601F0EDFEEDE715F0800FED
:103E4000EAD015F0200F0ED115F0030FE4D122684F
:103E5000D36A23F00803D362012384F83430204668
:103E600001F0D8FED8E7206800F01AFD03460028CC
:103E7000EAD0A26B1343A3632046FFF702FDE3E7FA
:103E80005A6B12F4804F02D015F0080F4CD15A6BC8
:103E900012F03A0FC0D05A6B12F0020F03D0A26B8F
:103EA00042F00202A2635A6B12F0080F03D0A26B19
:103EB00042F00802A2635A6B12F0200F03D0A26BEB
:103EC00042F02002A2635A6B12F0100F03D0A26BD3
:103ED00042F01002A26340F23A729A632268D36BF6
:103EE00023F44E7323F00203D363206800F0D8FC60
:103EF000A36B0343A36315F0080F19D115F0800FCE
:103F00008AD015F0300F1CD115F0030F26D0236C8A
:103F1000174A5A63206CFDF721FB00283FF47CAF61
:103F2000206CFFF720FF77E72046FFF779F973E76A
:103F3000012384F83430002323632046FFF7A1FCDB
:103F40006AE7E36B0B4A5A63E06BFDF707FB002857
:103F50003FF462AFE06BFFF7E4FE5DE70023A3638D
:103F6000012284F834202363204601F04EFE53E7FB
:103F7000673D0008233D0008002856D010B50446D0
:103F8000436A33B94368B3F5827F05D00023C36128
:103F900002E00023036143610023A36294F85130DF
:103FA000002B3CD0022384F851302268136823F0A0
:103FB00040031360636803F48273A26802F404424E
:103FC0001343E26802F400621343226902F0020222
:103FD0001343626902F001021343A26902F4007202
:103FE0001343E26902F038021343226A02F08002AE
:103FF0001343A26A02F40052216813430B60638BDF
:10400000226803F0040353602268D36923F4006339
:10401000D36100206065012384F8513010BD84F81D
:1040200050302046FDF712F8BCE70120704770477A
:1040300090F83D30DBB2012B2FD1022380F83D30C8
:104040000268D36843F00103D3600368154A9342C2
:1040500018D002F50062934214D0B3F1804F11D012
:10406000A2F5983293420DD002F58062934209D0B6
:1040700002F58062934205D01A6842F001021A608C
:10408000002070479A6802F00702062A07D01A68D3
:1040900042F001021A6000207047012070470020A2
:1040A000704700BF002C0140704770477047704751
:1040B00010B5044603681A6912F0020F11D0DA68CD
:1040C00012F0020F0DD06FF002021A610123037784
:1040D00003689B6913F0030F70D0FFF7E6FF00231E
:1040E000237723681A6912F0040F12D0DA6812F0ED
:1040F000040F0ED06FF004021A61022323772368A5
:104100009B6913F4407F5FD02046FFF7CEFF00236A
:10411000237723681A6912F0080F12D0DA6812F0B8
:10412000080F0ED06FF008021A610423237723686A
:10413000DB6913F0030F4ED02046FFF7B6FF0023D4
:10414000237723681A6912F0100F12D0DA6812F080
:10415000100F0ED06FF010021A6108232377236826
:10416000DB6913F4407F3DD02046FFF79EFF00231C
:10417000237723681A6912F0010F03D0DA6812F06E
:10418000010F36D123681A6912F0800F03D0DA6864
:1041900012F0800F34D123681A6912F0400F03D057
:1041A000DA6812F0400F32D123681A6912F0200F3A
:1041B00003D0DA6812F0200F30D110BDFFF774FF82
:1041C0002046FFF773FF8AE72046FFF76DFF204682
:1041D000FFF76CFF9BE72046FFF766FF2046FFF7DF
:1041E00065FFACE72046FFF75FFF2046FFF75EFF65
:1041F000BDE76FF001021A612046FCF7FBFDC1E745
:104200006FF080021A61204600F089F8C3E76FF072
:1042100040021A612046FFF74AFFC5E76FF020020F
:104220001A61204600F07AF8C7E700000368244AC4
:10423000904212D002F5006290420ED0B0F1804F51
:104240000BD0A2F59832904207D002F580629042DE
:1042500003D002F58062904203D123F070034A68D4
:104260001343174A904212D002F5006290420ED0DA
:10427000B0F1804F0BD0A2F59832904207D002F5F2
:104280008062904203D002F58062904203D123F411
:104290004073CA68134323F080034A6913430360E1
:1042A0008B68C3620B688362054B984203D003F5A9
:1042B0000063984201D10B69036301234361704796
:1042C000002C014040B310B5044690F83D30F3B1E6
:1042D000022384F83D30214651F8040BFFF7A6FF76
:1042E000012384F8463084F83E3084F83F3084F867
:1042F000403084F8413084F8423084F8433084F808
:10430000443084F8453084F83D30002010BD80F8FA
:104310003C30FFF78CFEDBE70120704770477047A9
:1043200010B504460268136923F44053C1680B4377
:10433000136183680269134342691A430168CB68B9
:1043400023F4B05323F00C031343CB60026853698A
:1043500023F4407381690B4353610268134B9A4203
:1043600020D0FEF717FE024602EB820202EB820229
:1043700063689B00B2FBF3F20D48A0FB02314909D0
:10438000642303FB11231B013233A0FB03035B09EE
:1043900003F0F00202EB011203F00F032168134453
:1043A0008B6010BDFEF706FE0246DDE700380140D7
:1043B0001F85EB512DE9F84305460F4616469946F1
:1043C000DDF820802B681C6837EA04040CBF012448
:1043D0000024B4422DD1B8F1FF3FF3D0B8F1000F63
:1043E00005D0FDF73DF8A0EB09004045EAD92A6861
:1043F00002F10C0353E8003F23F4D0730C3242E87F
:1044000000310029F3D12A6802F1140353E8003F78
:1044100023F00103143242E800310029F3D12023B4
:1044200085F8413085F84230002385F8403003207C
:1044300000E00020BDE8F88360B310B5044690F8B2
:10444000413013B3242384F841302268D36823F425
:104450000053D3602046FFF763FF2268136923F4FB
:10446000904313612268536923F02A035361226841
:10447000D36843F40053D36000206064202384F8A1
:10448000413084F84230606310BD80F84030FCF762
:1044900057FFD7E7012070472DE9F04182B01E4653
:1044A00090F84130DBB2202B4BD104460D469046AC
:1044B00000294AD00AB9012044E0002343642123A3
:1044C00080F84130FCF7CCFF0746A4F82480A4F81C
:1044D0002680A368B3F5805F02D04FF000080FE09C
:1044E0002369FBB14FF000080AE038F8023B22686C
:1044F000C3F308035360E28C92B2013A92B2E284B1
:10450000E38C9BB28BB100963B4600228021204673
:10451000FFF750FFD8B9002DE7D015F8012B23681D
:104520005A60E8E7A8460025EAE700963B460022E5
:1045300040212046FFF73EFF58B9202384F8413040
:1045400000E0022002B0BDE8F0810120FAE703207C
:10455000F8E70320F6E700000B4B1B680B4AA2FBB1
:1045600003235B0A41F2883202FB03F31A46013B44
:104570003AB1426B12F0800FF8D0C523836300205C
:1045800070474FF00040704700000020D34D62108C
:1045900084B00DF1040C8CE80E000B461343039A13
:1045A0001343049A1343059A1343069A134342682C
:1045B00022F4FD4222F07F0213434360002004B046
:1045C0007047D0F8800070470B68C0F8803000203A
:1045D00070470323036000207047006800F0030069
:1045E00070470B6883604B688A681343CA6813433B
:1045F0000A691343C26822F47F6222F00F02134358
:10460000C360002070470069C0B270471430405842
:1046100070470B6843624B6883628B68CA681343B8
:104620000A6913434A691343C26A22F0F70213432B
:10463000C3620020704710B586B004460023019382
:104640000293039304934FF48063059301A9FFF74A
:10465000C8FF2046FFF780FF06B010BD38B50446FE
:104660000D46504B1B685049A1FB03135B0A03FB2B
:1046700002F21346013A002B5DD0636B13F0450F35
:10468000F7D013F4006FF4D1636B13F0040F06D16D
:10469000636B13F0010F05D00120A0634DE00420EF
:1046A000A0634AE0C523A3632046FFF7ACFFA842FE
:1046B00001D0012041E000212046FFF7A7FF03467B
:1046C0003A481840C8B3002B38DB13F0804F38D17C
:1046D00013F0005F37D113F0805F36D113F0006F15
:1046E00036D113F0806F36D113F0807F36D113F4BA
:1046F000000F36D113F4800F36D113F4001F36D1DA
:1047000013F4801F36D113F4802F36D113F4003FF9
:1047100036D113F4803F36D113F4004F36D113F461
:10472000804F36D113F4005F36D113F0080F36D026
:104730004FF4000001E04FF0004038BD4FF0007032
:10474000FBE74020F9E78020F7E74FF48070F4E7BB
:104750004FF40070F1E74FF48060EEE74FF4006033
:10476000EBE74FF48050E8E74FF40050E5E74FF4F3
:104770008040E2E74FF40040DFE74FF40030DCE731
:104780004FF48020D9E74FF40020D6E74FF4801093
:10479000D3E74FF40010D0E74FF48000CDE74FF49B
:1047A0008030CAE700000020D34D621008E0FFFD12
:1047B00030B587B00446019110250295402303933C
:1047C000002304934FF48063059301A9FFF709FFC9
:1047D00041F2883229462046FFF740FF07B030BD3E
:1047E00030B587B00446019111250295402303930B
:1047F000002304934FF48063059301A9FFF7F1FEB2
:1048000041F2883229462046FFF728FF07B030BD25
:1048100030B587B0044601911225029540230393D9
:10482000002304934FF48063059301A9FFF7D9FE99
:1048300041F2883229462046FFF710FF07B030BD0D
:1048400030B587B0044601911825029540230393A3
:10485000002304934FF48063059301A9FFF7C1FE81
:1048600041F2883229462046FFF7F8FE07B030BDF6
:1048700030B587B004460191192502954023039372
:10488000002304934FF48063059301A9FFF7A9FE69
:1048900041F2883229462046FFF7E0FE07B030BDDE
:1048A00030B587B00446002301930C2502954022C1
:1048B000039204934FF48063059301A9FFF791FEDF
:1048C000034A29462046FFF7C9FE07B030BD00BFA6
:1048D00000E1F50530B587B0044601920725029541
:1048E00040230393002304934FF48063059301A9AD
:1048F000FFF777FE41F2883229462046FFF7AEFEE9
:1049000007B030BD30B587B0044601913725029518
:1049100040230393002304934FF48063059301A97C
:10492000FFF75FFE41F2883229462046FFF796FEE8
:1049300007B030BD30B587B0044601910625029519
:1049400040230393002304934FF48063059301A94C
:10495000FFF747FE41F2883229462046FFF77EFEE8
:1049600007B030BD30B587B004460023019333252E
:1049700002954022039204934FF48063059301A9AA
:10498000FFF72FFE41F2883229462046FFF766FEE8
:1049900007B030BD30B587B0044601910D250295B2
:1049A00040230393002304934FF48063059301A9EC
:1049B000FFF717FE41F2883229462046FFF74EFEE8
:1049C00007B030BD0146144B1B68144AA2FB0323F9
:1049D0005B0A41F2883202FB03F31A46013BBAB18B
:1049E0004A6B12F0450FF8D012F4006FF5D14B6B03
:1049F00013F0040F06D1486B10F0010005D1C52358
:104A00008B63704704208863704701208863704778
:104A10004FF00040704700BF00000020D34D6210EF
:104A200010B586B004460023019302220292C022F0
:104A3000039204934FF48063059301A9FFF7D1FD1E
:104A40002046FFF7BFFF06B010BD10B586B0044684
:104A5000019109230293C0230393002304934FF48D
:104A60008063059301A9FFF7BCFD2046FFF7AAFF6D
:104A700006B010BD0146104B1B68104AA2FB032371
:104A80005B0A41F2883202FB03F31A46013B82B112
:104A90004A6B12F0450FF8D012F4006FF5D1486B55
:104AA00010F0040002D1C5238B6370470420886393
:104AB00070474FF00040704700000020D34D621057
:104AC00010B586B0044641F0004141F480110191D7
:104AD0002923029340230393002304934FF480631C
:104AE000059301A9FFF77DFD2046FFF7C3FF06B040
:104AF00010BD0000F8B505460E461746234B1B684F
:104B0000234AA2FB03235B0A41F2883202FB03F330
:104B10001A46013B8AB36C6B14F0450FF8D014F4BD
:104B2000006FF5D16B6B13F0040F06D16B6B13F0B4
:104B3000010F05D00120A86321E00420A8631EE036
:104B40002846FFF760FDB04201D0012017E0C523E1
:104B5000AB6300212846FFF759FD034610F460407F
:104B600008D013F4804F0BD113F4004F0BD04FF447
:104B7000805004E01B0C3B8001E04FF00040F8BD8A
:104B80004FF40050FBE74FF48030F8E700000020BE
:104B9000D34D621070B586B004460D4600230193D4
:104BA000032602964022039204934FF480630593F8
:104BB00001A9FFF716FD2A4631462046FFF79AFF66
:104BC00006B070BD0146164B1B68164AA2FB0323B4
:104BD0005B0A41F2883202FB03F31A46013BE2B161
:104BE0004A6B12F0450FF8D012F4006FF5D14B6B01
:104BF00013F0040F0BD14B6B13F001030AD1486B78
:104C000010F040000BD040228A6318467047042001
:104C1000886370470120886370474FF000407047F9
:104C200000000020D34D621010B586B004464FF44A
:104C3000D573019308230293402303930023049325
:104C40004FF48063059301A9FFF7CBFC2046FFF7E3
:104C5000B9FF06B010BD84B001A880E80E000020A6
:104C600004B0704703460020A3F844004FF43F42CD
:104C7000A3F840207047B0F8403023F47C535B0425
:104C80005B0CA0F84030002070470020704784B0D3
:104C9000844601A880E80E000123ACF840300020D3
:104CA000ACF84000ACF84400ACF8500004B07047D9
:104CB000002070470020704710B5034691F800C0EF
:104CC00030F82C2092B222F4EC4222F0700292B220
:104CD000C878032861D8DFE800F0555C025800204E
:104CE00048F2800E42EA0E0223F82C2091F800C010
:104CF00033F82C2092B222F4E04222F0700242EA11
:104D00000C0242EA0E0223F82C200A7B002A40F013
:104D1000DC804A78002A51D0B3F8502092B21A446D
:104D20000C7802EB0412B1F806C04FEA5C0C4FEAB3
:104D30004C0CA2F800C40C7833F8242012F0400F79
:104D40000CD033F8242092B222F4E04222F0700218
:104D500042F4004242F0C00223F82420CA78012A1B
:104D60001DD0097833F8212092B222F4E04222F0DB
:104D7000400282F0200242F4004242F0800223F816
:104D8000212017E142F40072AAE742F4C062002039
:104D9000A6E742F480620020A2E70120A0E709789C
:104DA00033F8212092B222F4E04222F0400242F491
:104DB000004242F0800223F82120FBE0B3F85020AB
:104DC00092B21A440C7802EB0412B1F806C04FEA12
:104DD0005C0C4FEA4C0CA2F808C4B3F8502092B215
:104DE0001A440C7802EB0412B2F80CC4CCF3090C90
:104DF000A2F80CC40C693E2C39D94FEA541E14F0A9
:104E00001F0F01D10EF1FF3EB2F80CC41FFA8CFC4B
:104E10004FEA8E2E1FFA8EFE4CEA0E0C4CF4004C1C
:104E2000A2F80CC40C7833F8242012F4804F0CD074
:104E300033F8242092B222F4E04222F0700242F4CD
:104E4000404242F0800223F82420097869BB33F8FD
:104E5000212092B222F4804222F0700282F4405269
:104E600042F4004242F0800223F82120A2E04CB933
:104E7000B2F80C446FEA44446FEA5444A4B2A2F876
:104E80000C44CFE74FEA540C14F0010F01D00CF1A1
:104E9000010CB2F80C44A4B24FEA8C2C1FFA8CFC23
:104EA00044EA0C04A2F80C44BCE733F8212092B287
:104EB00022F4804222F0700282F4005242F4004256
:104EC00042F0800223F8212074E0CA78022A72D0CE
:104ED0000C7833F8242092B222F4E24222F07002DD
:104EE00042F4004242F0800223F82420B3F850201C
:104EF00092B21A4491F800C002EB0C12B1F808C04B
:104F00004FEA5C0C4FEA4C0CA2F800C4B3F85020F6
:104F100092B21A4491F800C002EB0C12B1F80AC028
:104F20004FEA5C0C4FEA4C0CA2F808C44A78002AFD
:104F300050D10C7833F8242012F4804F0CD033F881
:104F4000242092B222F4E04222F0700242F4404265
:104F500042F0800223F824200C7833F8242012F049
:104F6000400F0CD033F8242092B222F4E04222F019
:104F7000700242F4004242F0C00223F8242091F86B
:104F800000C033F82C2092B222F4804222F070024A
:104F900082F4405248F28004224323F82C200978FE
:104FA00033F8212092B222F4E04222F04002224360
:104FB00023F8212010BD0C7833F8242092B222F47B
:104FC000E04222F0700242F4014242F0800223F8F3
:104FD00024208BE70C7833F8242012F4804F0CD077
:104FE00033F8242092B222F4E04222F0700242F41C
:104FF000404242F0800223F824200C7833F8242029
:1050000012F0400F0CD033F8242092B222F4E04288
:1050100022F0700242F4004242F0C00223F8242041
:10502000CA78012A1ED00C7833F8242092B222F4D8
:10503000E04222F0400282F0200242F4004242F0BC
:10504000800223F82420097833F8212092B222F438
:10505000804222F0700242F4004242F0800223F8C3
:105060002120A7E70C7833F8242092B222F4E04202
:1050700022F0400242F4004242F0800223F8242051
:10508000E1E70B7B002B46D14B7813B30A7830F85D
:10509000223013F0400F0CD030F822309BB223F4B2
:1050A000E04323F0700343F4004343F0C00320F8CF
:1050B00022300A7830F822309BB223F4E04323F008
:1050C000400343F4004343F0800320F822300020E3
:1050D00070470A7830F8223013F4804F0CD030F843
:1050E00022309BB223F4E04323F0700343F44043A7
:1050F00043F0800320F822300A7830F822309BB247
:1051000023F4804323F0700343F4004343F080030F
:1051100020F82230DBE74B78002B4ED10A7830F8AC
:10512000223013F4804F0CD030F822309BB223F49D
:10513000E04323F0700343F4404343F0800320F83E
:1051400022300A7830F8223013F0400F0CD030F8BB
:1051500022309BB223F4E04323F0700343F4004376
:1051600043F0C00320F822300A7830F822309BB296
:1051700023F4E04323F0700343F4004343F0C003FF
:1051800020F822300A7830F822309BB223F4804392
:1051900023F0700348F2800C43EA0C0320F822301D
:1051A0000A7830F822309BB223F4E04323F0400326
:1051B00043EA0C0320F8223089E70A7830F82230DD
:1051C00013F4804F0CD030F822309BB223F4E0432C
:1051D00023F0700343F4404343F0800320F822306F
:1051E0000A7830F8223013F0400F0CD030F822301B
:1051F0009BB223F4E04323F0700343F4004343F0F5
:10520000C00320F822300A7830F822309BB223F411
:10521000E04323F0700343F4404343F0800320F85D
:1052200022300A7830F822309BB223F4E04323F096
:10523000400348F2800C43EA0C0320F822300A783D
:1052400030F822309BB223F4804323F0700343EA0A
:105250000C0320F822303AE74B788BB10A7830F80B
:1052600022309BB223F4E04323F0400383F0100389
:1052700043F4004343F0800320F8223000207047BD
:105280000A7830F822309BB223F4804323F0700375
:1052900083F4805343F4004343F0800320F822302A
:1052A000ECE70B7B002B4BD14B7833B30A7830F80B
:1052B000223013F0400F0CD030F822309BB223F490
:1052C000E04323F0700343F4004343F0C00320F8AD
:1052D0002230CB78012B33D00A7830F822309BB2C1
:1052E00023F4E04323F0400383F0200343F400431E
:1052F00043F0800320F8223022E00A7830F8223090
:1053000013F4804F0CD030F822309BB223F4E043EA
:1053100023F0700343F4404343F0800320F822302D
:105320000A7830F822309BB223F4804323F07003D4
:1053300083F4405343F4004343F0800320F82230C9
:105340000020704711B98023A0F84C30002070472E
:105350000020704700207047B0F8440080B27047CA
:105360000020704701335B0800EB420000F58060CD
:1053700008E00A7891F801C042EA0C2220F8042BD8
:105380000231013B002BF4D1704770B505460C4645
:105390004A78012A3BD00B7B002B40F0A6828B6918
:1053A0000A69934240F284829B1A8B61B5F85030AF
:1053B0009BB22B44217803EB0113B3F80C14C1F317
:1053C0000901A3F80C143E2A40F27682510912F02A
:1053D0001F0F00D10139B3F80C2492B2890289B2AF
:1053E0000A4342F40042A3F80C24227835F8223014
:1053F0009BB223F4804323F0700383F4405343F4BF
:10540000004343F0800325F82230002070BD8E69F0
:1054100009698E4200D90E46237B73B3E378022BD1
:105420004DD0236A9B1B2362217835F8213013F07D
:10543000400F00F0F581002A40F0E281B5F85030CD
:105440009BB22B4403EB0113B3F80C24C2F3090203
:10545000A3F80C243E2E40F2BA81710916F01F0FFA
:1054600000D10139B3F80C2492B2890289B20A43FF
:1054700042F40042A3F80C24CBE1B6B23346E288F2
:1054800061692846FFF76EFFB5F850309BB22B4498
:10549000227803EB0213A3F80464227835F8223053
:1054A0009BB223F4E04323F0400383F0300343F442
:1054B000004343F0800325F822300020A6E7236A4A
:1054C000994280F06681227835F822309BB223F42D
:1054D000E04323F0700343F4014343F0800325F8D5
:1054E0002230236A9B1B2362227835F8223013F086
:1054F000400F00F0A7806378B3BBB5F850309BB283
:105500002B4403EB0213B3F80C24C2F30902A3F8F3
:105510000C243E2E0FD9710916F01F0F00D101394E
:10552000B3F80C2492B2890289B20A4342F40042D1
:10553000A3F80C241AE04EB9B3F80C246FEA4242E7
:105540006FEA524292B2A3F80C240FE0720816F0F0
:10555000010F00D00132B3F80C1489B2920292B25A
:105560000A43A3F80C2401E0012B30D0B3B26289C6
:1055700061692846FFF7F6FE636933446361236A75
:10558000226993422DD99B1B23626378002B45D15E
:10559000B5F850309BB22B44227803EB0213B3F8DA
:1055A0000424C2F30902A3F804243E2E1DD9710974
:1055B00016F01F0F00D10139B3F8042492B289020A
:1055C00089B20A4342F40042A3F8042428E0B5F863
:1055D00050309BB22B4403EB0213B2B2A3F80C245D
:1055E000C4E7002222621E46CFE74EB9B3F8042476
:1055F0006FEA42426FEA524292B2A3F804240FE0EB
:10560000720816F0010F00D00132B3F8041489B209
:10561000920292B20A43A3F8042401E0012B06D0BF
:10562000B3B2228961692846FFF79CFE35E7B5F8D9
:1056300050309BB22B44227803EB0213B2B2A3F892
:105640000424EDE76378B3BBB5F850309BB22B442C
:1056500003EB0213B3F80424C2F30902A3F80424F1
:105660003E2E0FD9710916F01F0F00D10139B3F882
:10567000042492B2890289B20A4342F40042A3F898
:1056800004241AE04EB9B3F804246FEA42426FEAE8
:10569000524292B2A3F804240FE0720816F0010FF0
:1056A00000D00132B3F8041489B2920292B20A43D4
:1056B000A3F8042401E0012B30D0B3B22289616940
:1056C0002846FFF74FFE636933446361236A22690A
:1056D00093422DD99B1B23626378002B45D1B5F8EB
:1056E00050309BB22B44227803EB0213B3F80C2406
:1056F000C2F30902A3F80C243E2E1DD9710916F03D
:105700001F0F00D10139B3F80C2492B2890289B27B
:105710000A4342F40042A3F80C2428E0B5F85030C4
:105720009BB22B4403EB0213B2B2A3F80424C4E7E8
:10573000002222621E46CFE74EB9B3F80C246FEA6E
:1057400042426FEA524292B2A3F80C240FE0720870
:1057500016F0010F00D00132B3F80C1489B2920296
:1057600092B20A43A3F80C2401E0012B06D0B3B295
:10577000628961692846FFF7F5FD8EE6B5F850307D
:105780009BB22B44227803EB0213B2B2A3F80C2491
:10579000EDE7217835F8212092B222F4E24222F09E
:1057A000700242F4004242F0800225F82120B5F850
:1057B000502092B22A44217802EB01129BB2A2F847
:1057C0000434228961692846FFF7CCFD65E64EB9AD
:1057D000B3F80C246FEA42426FEA524292B2A3F845
:1057E0000C2416E0720816F0010F00D00132B3F855
:1057F0000C1489B2920292B20A43A3F80C2408E076
:10580000B5F850309BB22B4403EB0113B2B2A3F8AE
:105810000C24B3B2628961692846FFF7A3FD3CE618
:10582000B2BBB5F850309BB22B4403EB0113B3F875
:105830000424C2F30902A3F804243E2E0FD97109EF
:1058400016F01F0F00D10139B3F8042492B2890277
:1058500089B20A4342F40042A3F8042421E04EB97D
:10586000B3F804246FEA42426FEA524292B2A3F8BC
:10587000042416E0720816F0010F00D00132B3F8CC
:10588000041489B2920292B20A43A3F8042408E0F5
:10589000B5F850309BB22B4403EB0113B2B2A3F81E
:1058A0000424B3B2228961692846FFF75BFDF4E561
:1058B00000228A611A4679E54AB9B3F80C246FEAE6
:1058C00042426FEA524292B2A3F80C248DE551088D
:1058D00012F0010F00D00131B3F80C2492B289020A
:1058E00089B20A43A3F80C247FE5CB78022B4DD074
:1058F000012B40F02F8189692369994240F2E680AB
:10590000C91AA161F2B9B5F8502092B22A4421789F
:1059100002EB0112B2F80414C1F30901A2F8041455
:105920003E2B40F2D780580913F01F0F00D10138E9
:10593000B2F8041489B2800280B2014341F40041FC
:10594000A2F804146278002A40F0F680B5F85020DE
:1059500092B22A44217802EB0112B2F80C14C1F37E
:105960000901A2F80C143E2B40F2CD80590913F026
:105970001F0F00D10139B2F80C349BB2890289B2F1
:105980000B4343F40043A2F80C342EE5F2B9B0F80F
:1059900050309BB203440A7803EB0213B3F804249B
:1059A000C2F30902A3F804240A693E2A31D9510935
:1059B00012F01F0F00D10139B3F8042492B289020A
:1059C00089B20A4342F40042A3F804246378002B0E
:1059D00051D1B5F850309BB22B44227803EB02131F
:1059E000B3F80C24C2F30902A3F80C2422693E2A5E
:1059F00028D9510912F01F0F00D10139B3F80C2436
:105A000092B2890289B20A4342F40042A3F80C24FC
:105A100033E04AB9B3F804246FEA42426FEA5242D3
:105A200092B2A3F80424D1E7510812F0010F00D07C
:105A30000131B3F8042490B28A0292B20243A3F86F
:105A40000424C3E74AB9B3F80C246FEA42426FEA70
:105A5000524292B2A3F80C240FE0510812F0010F49
:105A600000D00131B3F80C2490B28A0292B2024302
:105A7000A3F80C2401E0012B1DD0E369002B3FF4B7
:105A8000B4AC227835F8221044F2400303EA010056
:105A90008B4302D000287FF4A8AC35F822309BB2AB
:105AA00023F4E04323F0700343F4004343F0C003C6
:105AB00025F8223099E4B5F850309BB22B44227877
:105AC00003EB0213228AA3F80C24D6E70023A36178
:105AD0000B4617E74BB9B2F804146FEA41416FEA7D
